:020000040800F2
:10000000E8810020410300086742000869040008F5
:100010001D390008C12B0008CD7D0008000000003C
:10002000000000000000000000000000C15E0008A9
:100030003D2F000800000000B7030008156100080C
:100040005F0300085F0300085F0300085F03000808
:100050005F0300085F0300085F030008412F0008EA
:100060005F0300085F0300085F0300085F030008E8
:100070005F0300085F0300085F0300085F030008D8
:100080005F0300085F0300085F0300085F030008C8
:100090005F0300085F0300085F030008792F000872
:1000A0005F0300085F0300085F0300085F030008A8
:1000B0005F0300085F0300085F0300085F03000898
:1000C0005F0300085F0300085F0300085F03000888
:1000D0005F030008497400085F0300085F0300081D
:1000E0005F0300085F0300085F0300085F03000868
:1000F0005F0300085F0300085F0300085F03000858
:100100005F0300085F0300085F0300085F03000847
:10011000697300088D730008016200085F0300081E
:100120005F0300085F0300085F0300085F03000827
:100130005F0300085F0300085F0300085F03000817
:100140005F0300085F0300085F0300085F03000807
:100150005F0300085F0300085F0300085F030008F7
:100160005F0300085F0300085F0300085F030008E7
:100170005F0300085F0300085F0300085F030008D7
:100180005F0300085F0300085F0300080D740008A8
:100190005F0300085F0300085F0300085F030008B7
:1001A0005F0300085F0300085F03000800F002F827
:1001B00000F0B7F80AA090E8000C82448344AAF14A
:1001C0000107DA4501D100F0ACF8AFF2090EBAE848
:1001D0000F0013F0010F18BFFB1A43F0010318477B
:1001E000949F0100B49F01000A444FF0000C10F8E6
:1001F000013B13F0070408BF10F8014B1D1108BFA5
:1002000010F8015B641E05D010F8016B641E01F844
:10021000016BF9D113F0080F1EBF10F8014BAD1C94
:100220000C1B09D16D1E58BF01F801CBFAD505E0B2
:1002300014F8016B01F8016B6D1EF9D59142D6D30C
:10024000704700000023002400250026103A28BF34
:1002500078C1FBD8520728BF30C148BF0B60704738
:100260006E2900F07786702900F0B987662917F0AB
:100270008885652917F08585672917F082856129AA
:1002800017F0818503681B0A28BF41F080016929A6
:1002900000F02486642900F02186752900F01E866E
:1002A0006F2900F04787782900F08587E92900F059
:1002B000E186E42900F0DE86F52900F0DB86EF29EF
:1002C00000F04487F82900F084870368DB0928BF21
:1002D00041F08001632901F08B84732901F090843F
:1002E000E32901F09B84F32901F0A08400207047EA
:1002F0001FB517F03CFD00F05DFD0400002000215B
:1003000016F036FE401C60600020002116F05CFEF6
:10031000E0600020002116F041FE20611FBD10B5F5
:1003200010BD00F021FD1146FFF7E2FF0FF0C2FE05
:1003300000F068FD03B4FFF7F2FF03BC01F01EF804
:100340000A4880470A4880470A480047FEE7FEE718
:10035000FEE7FEE7FEE7FEE7FEE7FEE7FEE7FEE775
:1003600005480649064A074B70470000955C01089E
:10037000A5610008AD010008E85A0020E8810020CE
:10038000E85C0020E85C0020EFF3108072B6704754
:1003900080F310887047394A1368012B04D04FF05E
:1003A00001031360364A1060364A116036484FF038
:1003B000805101607047EFF3108272B62F480168D8
:1003C00021B34FF0000101602D48016891B1EFF3B6
:1003D00009811EF0100F08BF21ED108B21E9F00FED
:1003E0004FF000041EF0100F08BF012441F8044D27
:1003F0000068016023490968096808C9B1E8F00F7D
:10040000002B18BFB1EC108B81F3098882F31088A0
:100410004EF0100E002B18BF2EF0100E4EF0040EF2
:10042000704718490860EFF3148222F0040282F347
:10043000148813494FF00000086010494FF0010084
:10044000086012484FF47F01D0F8002041EA020111
:1004500001600D484FF0805101600D480068006850
:1004600080F3088862B67047EFF3098000B512F098
:100470007FFE5DF804EB4EF0040E70470808002084
:10048000000800200408002004ED00E020ED00E05A
:1004900008ED00E053EA020C00F069802DE9F04B12
:1004A0004FF00006002B1FBFB3FA83F503FA05F4E3
:1004B00024FA05F65E4012BF1643B2FA82F502FA3C
:1004C00005F4C5F120051EBF22FA05FC44EA0C0420
:1004D000203556EA044C4FEA144418BF641C4FF010
:1004E00000084FF00009904271EB030C39D300294A
:1004F00019BFB1FA81F701FA07F6B0FA80F700FAEE
:1005000007F6C7F120071EBF20FA07FC46EA0C06D3
:100510002037B6FBF4FCA7EB0507103F07F01F0BD5
:10052000CBF120060CFA0BFB2CFA06F644BFB346BF
:100530000026202FA4BF5E464FF0000B5BEA060C9E
:1005400008BF4FF0010B19EB0B09ABFB027C48EB2A
:100550000608C01B06FB02CC0BFB03CC71EB0C01A5
:10056000C1E70B46024641464846BDE8F08B13B54D
:100570004FF000004FF00001AFF30080BDE81C40D9
:10058000704770B5064600F0B5FA04680546304677
:100590000A22002100F0BDFA2C6070BD40EA010380
:1005A000024630B59B0710D14FF0013400E008C27D
:1005B00008C91D1B9D4315EAC41FF8D013F0FF01A5
:1005C00002F8011B0DD01B0AF8E711F8013B002BC4
:1005D00002F8013B05D011F8013B002B02F8013B6A
:1005E000F3D130BD10B5431C02E010F8011B71B10E
:1005F0008107FAD14FF0013202C88C1A8C4314EAF9
:10060000C211F9D0C01A0A0603D0C01E10BDC01A0C
:1006100010BD0A0401D0801E10BD0902FCD0401E8E
:1006200010BD40EA010370B59B072ED14FF0013693
:10063000042A2AD308C810C99D1B9D43121F15EA1E
:10064000C61517D0D8B2E1B2401A50EA056110D1F0
:1006500098B2A1B2401A50EA05410AD123F07F4076
:1006600024F07F41401A50EA052102D1180EA0EB78
:10067000146070BDA342DBD018BA21BA884201D9F8
:10068000012070BD4FF0FF3070BD0AB9002070BD71
:1006900010F8013B11F8014B63B1A3420AD1521E7D
:1006A00008D010F8013B11F8014B1BB1A34201D156
:1006B000521EEDD1181B70BD421E12F8013F002BD7
:1006C000FBD111F8013B002B02F8013BF9D1704737
:1006D000032A40F2308010F0030C00F0158011F86E
:1006E000013BBCF1020F624498BF11F801CB00F846
:1006F000013B38BF11F8013BA2F1040298BF00F89A
:1007000001CB38BF00F8013B11F0030300F0258056
:10071000083AC0F0088051F8043B083A51F804CB7D
:10072000A0E80810F5E7121D5CBF51F8043B40F843
:10073000043BAFF30080D20724BF11F8013B11F84E
:1007400001CB48BF11F8012B24BF00F8013B00F892
:1007500001CB48BF00F8012B704710B5203AC0F01C
:100760000B80B1E81850203AA0E81850B1E81850B2
:10077000A0E81850BFF4F5AF5FEA027C24BFB1E8EF
:100780001850A0E8185044BF18C918C0BDE8104060
:100790005FEA827C24BF51F8043B40F8043B08BF69
:1007A0007047D20728BF31F8023B48BF11F8012B30
:1007B00028BF20F8023B48BF00F8012B70474FF0DC
:1007C00000020429C0F0128010F0030C00F01B801E
:1007D000CCF1040CBCF1020F18BF00F8012BA8BF2C
:1007E00020F8022BA1EB0C0100F00DB85FEAC17CF0
:1007F00024BF00F8012B00F8012B48BF00F8012BA3
:1008000070474FF0000200B51346944696462039D3
:1008100022BFA0E80C50A0E80C50B1F12001BFF4B9
:10082000F7AF090728BFA0E80C5048BF0CC05DF81F
:1008300004EB890028BF40F8042B08BF704748BF6D
:1008400020F8022B11F0804F18BF00F8012B7047E1
:1008500010B5044610F0030F08BF11F0030F40F06D
:1008600015804FF0013E121FC0F20E8051F8043B7C
:10087000A3EB0E0C2CEA030C1CEACE1C08BF40F8BC
:10088000043BF0D0A1F1040102F10402521E08DB86
:1008900011F8013B002B00F8013BF7D11146FFF79F
:1008A0008EFF204610BD00004FF0013C50F8042B95
:1008B00051F8043B9A4221D1A2EB0C03934313EA73
:1008C000CC1317D150F8042B51F8043B9A4215D1A0
:1008D000A2EB0C03934313EACC130BD150F8042B77
:1008E00051F8043B9A4209D1A2EB0C03934313EA5B
:1008F000CC13DBD04FF00000704700BFD01A01BA14
:10090000B1FA81F101F0180122FA01F0CB40C1F1F6
:100910002001DBB2C0B2C01A2CFA01F3D11A914304
:1009200011EAC311E6D1704710B500F005F8BDE833
:10093000104000F027B90000014900F029B900007B
:10094000145A002010B503681C1404EB21449BB218
:1009500089B2194494FBF2F302FB134394FBF2F4C3
:1009600001EB034393FBF2F102FB113193FBF2F332
:1009700001E05B1E11440029FBDB016003EB044036
:1009800010BD2DE9F04704464FF0FF3A86B00068ED
:10099000029060680390A0680490E068019020696C
:1009A0000090656905F18040B0F1004F7DD83C2290
:1009B000002102A8FFF7C6FF3C22014603A8FFF76B
:1009C000C1FF1822014604A8FFF7BCFF411E40F2F8
:1009D000B55201A8FFF7B6FF0C2206466846002173
:1009E000FFF7B0FF00EB860028443E4D00267D4413
:1009F0000FE09A1A491CCDE90012022902D00C29F5
:100A000007D104E0810704D0521C019201E0401C90
:100A100000960099019B6A5C9A42EADD012906D1A1
:100A20001C2B04D1810702D00221CDE90016A0F1D0
:100A300046018B2940D20199009B00220F4602E01B
:100A4000AE5C521C31449A42FADB012B02DD820774
:100A500000D0491E40F2B55540F26D16C21700EBAA
:100A6000927292106A4300F0030505FB0622850787
:100A70000A4400D1521E049D02EB4206DDF80C80B0
:100A8000A94605EBC605184EC5EB0515DDF808C0EF
:100A900008EB850535442E14ADB2C6EB0616C5EB42
:100AA0000515B6000CEB850500E005E006EB1546E4
:100AB00066F31F45360C03D0504606B0BDE8F087FC
:100AC000C4E904307F1C0720521CC4E9029792FB42
:100AD000F0F3E4E806C800FB132084E8030428468A
:100AE000EBE70000EE8A0100A039CEFD70477047A9
:100AF0007047000000487047845A002010B5FFF787
:100B0000F9FF006810BD10B50446FFF7F3FF04605D
:100B100010BD2DE9F04791460F4680460446002659
:100B200014F8015B2DB100F093F80068405DC00738
:100B3000F6D12B2D02D02D2D18D0641E4A463946F1
:100B4000204600F08DF827B13968A14201D1C7F8DD
:100B500000804FF0020471050BD54042002803DDF0
:100B6000FFF7C8FF0460A007BDE8F08746F4806681
:100B7000E4E70028F8DAFFF7BDFF04606FF00040FB
:100B8000F2E70000014900F0BBB80000405A002025
:100B900070B50C46016800204A1C3ED03C22B1FBD7
:100BA000F2F302FB1313B1FBF2F12360B1FBF2F39A
:100BB00002FB1313B1FBF2F118226360B1FBF2F3F5
:100BC00002FB1313B1FBF2F146F2E0320A440721B3
:100BD000A360B2FBF1F301FB132140F2B553B2FB6A
:100BE000F3F5A161B2FBF3F103FB15228900B2F525
:100BF000B77F08D39B10521EB2FBF3F52944B2FB1A
:100C0000F3F503FB15220F4BE261616189077B4419
:100C10000CD03B2A0AD3521C08E02C212046FFF7B7
:100C2000F0FD0120E0600AE0521A401C195C91427C
:100C3000FAD9521CC4E903204FF0FF30206220464D
:100C400070BD0000CE88010000487047845A002023
:100C500010B500F0AFF8001D10BD00BF1563010016
:100C60002DE9F05F824615468B4600270AF1010404
:100C7000B9460078302801D09DB113E014F8010B7B
:100C80000127782803D0582801D045B10AE00DB1DA
:100C9000102D07D1002714F8010B102502E00825BC
:100CA00000E00A250026B0460EE005FB080005FB23
:100CB00006F101271FFA80F801EB1046B6F5803FD8
:100CC00000D3B94614F8010B294600F08DF800282E
:100CD000EBDABBF1000F05D00FB1641E00E0544603
:100CE000CBF80040B9F1000F06D0FFF703FF022157
:100CF0000160C81EBDE8F09F48EA0640FAE7000020
:100D0000F0B50D46044685B000F054F8006994E84B
:100D1000C0106369016803F26C730A188168CDE939
:100D20000363CDE901C7E36801440093C66A236900
:100D3000406A03FB0613A16901FB0022284603A1B8
:100D400000F03CF805B02846F0BD000025732025D2
:100D50007325336420252E32643A252E32643A25D9
:100D60002E32642025640A007546FFF76DFFAE46FB
:100D700005006946534620F00700854618B020B5A7
:100D8000FFF7EEFABDE820404FF000064FF00007F5
:100D90004FF000084FF0000B21F00701AC46ACE823
:100DA000C009ACE8C009ACE8C009ACE8C0098D4690
:100DB0007047000000487047A45A00200FB41CB5CB
:100DC000084B06AA7B4469460090059800F0DBF8C2
:100DD00004460020694600F0E9F820461CBC5DF896
:100DE00014FB0000E50100003A2800D2303820F062
:100DF0002002412A01D3A2F13700884201D34FF0EB
:100E0000FF30704710B50446AFF300802046BDE8C0
:100E10001040FFF78FBA70B5044685690068C106B7
:100E200001D5302600E02026C00707D070BDD4E9E8
:100E3000012130469047206A401C20626D1EF6D585
:100E400070BD70B5044685690078C00707D170BDD4
:100E5000D4E9012120209047206A401C20626D1EA9
:100E6000F6D570BD09684A0501D540B27047C9057D
:100E7000FCD500B2704709684A0501D5C0B2704779
:100E8000C905FCD580B2704770B50C460546012AED
:100E900005D02878800600D5EA69002302E0012306
:100EA00005E05B1C934202D2E05C0028F9D1A869FE
:100EB000E618C01AA861286A184428622846FFF775
:100EC000AAFF04E0D5E9012114F8010B9047B442D0
:100ED000F8D32846FFF7B5FF70BD00002DE9F041BB
:100EE0000646002410687529314616A510D0FFF774
:100EF000B9FF002802DA404213A507E031688A07EB
:100F000001D512A502E0490704D511A5012401E08D
:100F1000FFF7B1FF00210A2206F1240709E0B0FB28
:100F2000F2FCB0FBF2F302FB1C00303078541846A0
:100F3000491C0028F3D123462A463046BDE8F0413B
:100F400000F067BA000000002D0000002B00000038
:100F50002000000011680268006A530501D508707E
:100F60000AE0D30501D5088006E0130603D5C217B1
:100F7000C1E9000200E008600120704701694A1CD5
:100F800002610878704700B58FB0CDE901310021CA
:100F9000059105497944CDE903101146684600F0F2
:100FA00029F90FB000BD0000E5FFFFFF0A6802F855
:100FB000010B0A60704700002DE9FF5F15468A4665
:100FC0000446DFF8AC80F8440027D8E900103E461C
:100FD000CDE9001010E03AF816106A4602A800F0B9
:100FE00029FE411C07D02178890603D5E26939180A
:100FF00091420DD80744761C2078800602D5E0691E
:10100000B84205DDAE42E6DB3AF816000028E2D130
:10101000A069C01BA0612046FFF7FDFED8E90010C3
:10102000CDE90010002017E03AF818106A4602A82F
:1010300000F000FEB0F1FF3F81460BD000250DF11E
:10104000080B05E0D4E901211BF8050090476D1C51
:101050004D45F7D308F10100B0428046E4DB206A39
:10106000384420622046FFF7ECFEBDE8FF9F0000F9
:101070004E8601002DE9F0418046D21D22F0070284
:101080000025D2E90002F52915A614D0011E72F13F
:10109000000106DA0023D0EB030063EB020211A685
:1010A00008E0D8F800108B0701D50FA602E0490729
:1010B00001D50EA601251146002408F1240704E0FD
:1010C00000F062F930323A55641C50EA0102F7D15F
:1010D0002B46324621464046BDE8F04100F099B922
:1010E000000000002D0000002B0000002000000088
:1010F00030B4002100F1240408E002F00705D20812
:10110000303542EA4372DB086554491C52EA030554
:10111000F3D10468002310A2250708D504F02004A9
:101120000C4304D0C46901230CA2641EC46130BC0A
:1011300000F06FB910B5044621461068FFF79BFE1A
:1011400002462046BDE810400023D1E7D21D22F020
:101150000701D1E90023CBE70000000030000000C8
:10116000F0B40D460188090502D5214C7C4402E00B
:101170001F4C7C440E34002100F1240608E002F0EC
:101180000F071209E75D42EA03721B097754491CF5
:1011900052EA0307F3D102780023120704D5702D19
:1011A00006D009B1022311342246F0BC00F031B957
:1011B00001231034F8E770B504460D462146106847
:1011C000FFF759FE024629462046BDE8704000233D
:1011D000C6E7D21D22F00703D3E90023C0E7036866
:1011E000126843F0200303600823C3610023B7E7BC
:1011F000B08401002DE9F05F894604464FF0000AF3
:10120000DFF874B1FB44C0F820A02046E1688847AD
:10121000002874D0252806D0D4E901219047206AFF
:10122000401C2062F1E700265F462046E1688847BF
:101230002028054607DB312D05D2781910F8200C3F
:1012400008B10643F1E7B00701D526F00406C4F85B
:101250001CA00027C4F818A02A2D09D0284608F0A1
:10126000C5F938B304EB8708303DC8F8185019E0C9
:1012700059F8041B204604EB87029161E168884716
:10128000012F054618D1E069002820DA26F0200653
:101290001DE0D8F8180000EB800005EB4000303866
:1012A000C8F818002046E1688847054608F09EF90E
:1012B0000028EED1012F0AD02E2D08D12046E1685A
:1012C00088477F1C0546022F46F02006C4DBA06934
:1012D000002803DA404246F00106A061F00701D081
:1012E00026F010066C2D0BD0682D09D04C2D39D06E
:1012F0006A2D35D0742D35D07A2D33D016E038E0F4
:10130000E1682F4620468847B842054609D16C2F30
:1013100026D04FF48060E1680643204688470546A2
:1013200004E06C2F1AD04FF4807006430DB3A5F182
:101330004100192802D8203546F400664A4629465D
:10134000204626604E46FEF78BFF80B101280BD069
:10135000F61D26F0070000F1080956E74020E4E7F3
:101360008020D8E70020D6E706F104094DE728469B
:1013700052E7206ABDE8F09F40840100014918202F
:10138000ABBEFEE72600020030B5B0F10A024FEA1C
:10139000900E71F100034EEA817EB0EB0E0061EB1E
:1013A00091014FEA101E4EEA017E10EB0E0041EB58
:1013B00011114FEA102E4EEA016E10EB0E0041EBB8
:1013C00011214FEA104E4EEA014E10EB0E0041EB98
:1013D0001141401841F100014FEAD00040EA41704C
:1013E0004FEAD10110EB80054FEA810444EA907482
:1013F00044EB01046D1944EB0404521BA3414FF06C
:10140000000348BF0A3200D530BD401C41F1000145
:1014100030BD2DE9F0470D4699469246044600F14D
:1014200024080168880604D5E06921F010012160D4
:1014300000E00120A84201DD471B00E00027A16970
:101440007A1902EB0900081AA0612078C00602D4BC
:101450002046FFF7E0FC002608E0D4E901211AF855
:1014600006009047206A401C761C20624E45F4DB43
:101470002078C0060AD52046FFF7CDFC06E0D4E967
:10148000012130209047206A401C2062381EA7F1BD
:101490000107F4DC07E0D4E9012118F805009047C2
:1014A000206A401C2062281EA5F10105F3DC2046BD
:1014B000FFF7C7FC2078000602D50220BDE8F087C0
:1014C0000120FBE770472DE9FF4F0C461E464FF009
:1014D000FF378BB0D2E90001DDF860800A908A46C0
:1014E000C1F30A5505B93D46002108464FF00000FA
:1014F000BAF1000F00F4400005DA00EB80004FF471
:10150000400101EA50004FEA9059B9F1010F00DDA6
:10151000B9460A9850EA4A000ED044F61050A5F297
:10152000FF3545432F14B8F1000F1ED07542291E18
:101530001EDDC9F100021CE0B8F1010F4FF0000000
:1015400001D0302103E0F24305E02154401CB042B9
:10155000FBDB30460022002121540B99C1F80880A2
:10156000C1E900200FB0BDE8F08FBD1B6D1CDEE7A8
:101570004A4600DA694206A800F0BEFB06AB93E8D3
:10158000070003AB83E8070050460A9900F022FCED
:101590008DE80700A0F500501F3800900398002D3B
:1015A00009DD42F21F014A46084403A90390684638
:1015B00000F081FE08E0A0F500504A461F3803A95C
:1015C0000390684600F08BFE8DE807000004000CD5
:1015D00003D04FF0FF30410800E01046B8F1000F93
:1015E00003D00022009215461EE0751E05D4FFF7B9
:1015F000CBFE303262556D1EF9D5B3460122084349
:1016000002D000227F1C04E02078302801D1002283
:101610007F1E002A099786D01DE0112D07DAFFF7FB
:10162000B3FE303262556D1C50EA0102F5D1084319
:1016300002D00098C8B10EE00021681E05E0235CCE
:10164000625C63542254401E491C8142F7DBAB4666
:10165000A81B401E0990002004F80B000B98099A63
:10166000C0F80880C0E9002B7CE711264FF0000885
:1016700059E72DE9F04F88460446D21D22F00701B4
:1016800091B0D1E90001CDE90A0106F0A0FB0246C4
:101690000B98C00F01D02D2007E02068810701D5ED
:1016A0002B2002E0202101EAC000032A099001D08A
:1016B000072A05DB03464146204600F0DDFA0BE130
:1016C0002078800601D5E06900E00620B8F1650FBA
:1016D000814606D0B8F1660F18D0B8F1670F70D107
:1016E00031E00020B9F1110F009001DB112301E07E
:1016F00009F101030AAA01A90CA8FFF7E4FEDDE93C
:101700000C70002609F10105834647E001204B4695
:1017100000904FF000470AAA01A90CA8FFF7D3FEDA
:10172000DDE90DB00C995D46002610B909F1010004
:101730000D18B9EB050003D4C0F1FF3609F101051E
:10174000A5EB09002BE0B9F1010F01DA4FF0010917
:101750000020B9F1110F0090484601DD112300E08F
:1017600003460AAA01A90CA8FFF7ADFEDDE90C703B
:101770004D4600268346207800070AD4AB4500DAA0
:101780005D4601A8012D04DD411911F8011C302925
:1017900007D04F4502DA17F1040F04DA0120824620
:1017A0000FE06D1EEEE7002F02DCED1B3E4403E070
:1017B000781CA84200DD7D1CB81B00F1010A4FF027
:1017C00000472078000703D4AA4501DB4FF0FF3A19
:1017D0000021B7F1004F0DF143088DF8431024D0DC
:1017E00002202B23002F01DA7F422D230A21021E23
:1017F000A0F1010000DC5FB197FBF1FC97FBF1F277
:1018000001FB1C7C17460CF1300C08F801CDEEE70B
:10181000A8F1010003702188090501D5452100E0E8
:101820006521A0F1010800F8011C09980FA9A1EB9E
:101830000807FF1D00B10120411901EBEA70A16901
:101840003844081A401EA0612078C00602D4204601
:10185000FFF7E1FA099828B1D4E901219047206AFD
:10186000401C20622078C00622D52046FFF7D3FA1C
:101870001EE0002E04DBB34502DD01A8805D00E020
:101880003020D4E901219047206A401C2062761C58
:10189000AAF101005FEA000A0AD1FFF78BFAC068DB
:1018A0000168405CD4E901219047206A401C206215
:1018B000281EA5F10105DCDC07E0D4E9012118F8B8
:1018C000010B9047206A401C2062381EA7F10107D7
:1018D000F3DC2046FFF7B5FA032011B043E6000021
:1018E0002DE9F04F04460D46D21D22F0070089B0C5
:1018F000D0E900974846394606F069FA0246F80FE3
:1019000001D02D2307E02068810701D52B2302E0B9
:10191000202101EAC0038DF820300BB1012000E046
:101920000020032A824601D0072A04DB29462046EC
:1019300000F0A2F93FE12078800601D40D2500E0F7
:10194000E569C7F30A560D2D49DA00214FEA175B06
:1019500008464FF00000002F00F4400007DA00EBCB
:1019600080004FF4400100EBD07001EA6000811567
:10197000012901DD4FF0FF3100224FEA850CBCF157
:10198000180F06D31346ACF118004FF08052C24036
:1019900003E04FF4801323FA0CF30CF10C0CBCF1B0
:1019A000200F04D3ACF1200C09FA0CF001E007FA87
:1019B0000CF000294FF0004801DD18B90FE00ED1FE
:1019C00040450CD319EB02095F4121B9404502D1D2
:1019D0009F4329EA0209BBEB175F00D0761C2088E1
:1019E000000502D57B48784402E07A4878441938EB
:1019F00008AA302302F80A30037C0AF10101002E04
:101A00000AF1020A53546A4602DC4FF0300101E049
:101A10004FF031014FF001088DF8001002D0A6F20E
:101A2000FF3603E059EA470100D06B4E002D02DC7F
:101A30002178090704D54FF002082E218DF80110F6
:101A4000C44600210BE0C7F303433F01C35C491CBC
:101A50006D1E02F80830052908F1010801DA002D91
:101A6000F1DC00210CE000EB1973491C1B786D1EA2
:101A7000082902F808304FEA091908F1010801DACB
:101A8000002DF0DC21688B0602D516E0A8F10108D4
:101A9000E04505DD02EB080313F8013C302BF5D0DF
:101AA000B8F1000F09DD02EB080313F8013C2E2BFF
:101AB00003D1090701D4A8F10108002D05DD3E215D
:101AC00002F808106D1E08F10108407C002E02F893
:101AD000080008F1010804DA2D20764202F8080017
:101AE00002E02B2002F808000A214FF47A708642A7
:101AF00008F101080BDB96FBF0F3303302F80830F5
:101B000096FBF0F308F1010800FB136601E0642E78
:101B10000CDB642096FBF0F3303302F8083096FBC0
:101B2000F0F308F1010800FB136601E00A2E06DB62
:101B300096FBF1F0303002F8080008F1010896FB3E
:101B4000F1F001FB1060303002F80800A16908F1E3
:101B5000010808EB050202EB0A00081AA0612078D0
:101B6000C00602D42046FFF756F9216A08AE01EB01
:101B70000A00206204E0D4E9012116F8010B904725
:101B8000BAF1010AF7D22078C00602D52046FFF745
:101B900042F96E4609E016F8010B3E280FD0D4E951
:101BA00001219047206A401C2062B8F10108F2D25E
:101BB0002046FFF746F909B00320BDE8F08F206A00
:101BC0002844206203E0D4E90121302090476D1EB3
:101BD000EBD3F8E7827C010002FCFFFF10B54369FC
:101BE00013B1AFF3008001E0FFF74EF9012010BD03
:101BF000127800F124010A7000224A700122EDE7F8
:101C000011684FF0FF32E9E710B5436913B1AFF344
:101C1000008001E0FFF7D0F9012010BD128800F12B
:101C2000240182840022C2840122EDE711684FF072
:101C3000FF32E9E770B516460C460546FFF708F88F
:101C4000036893F80101012806D0FF2C0FD8185D16
:101C500068B101202C7070BDD3F8070132462146CF
:101C600003F2071303442846BDE8704018474FF0BD
:101C7000FF3070BD704700002DE9F0411F4604465B
:101C800003260168072A01F4006004DB08B116A5E9
:101C900005E016A503E008B115A500E015A521F0A3
:101CA00010002060A069C01EA0610FB1401EA0619D
:101CB0002046FFF7B0F84FB1D4E9012138469047EC
:101CC000206A401C2062C01C206206E0206AFAE7FD
:101CD000D4E9012115F8010B9047761EF8D2204671
:101CE000FFF7AFF8BDE8F0814E414E006E616E0027
:101CF000494E4600696E66002DE9F047814616465A
:101D00008AB0334878440DC88DE80D0030487844D7
:101D1000801C03AC0DC884E80D0041F69B300844DC
:101D2000372190FBF1F290FBF1F5A5F1800501FB65
:101D300012041B3C02D56442012000E00020DFF8C1
:101D400090A080460027FA44AAF1BE0A0DE0E00701
:101D500009D03246684607EB47010AEB810100F0E3
:101D6000BEFA8DE8070064107F1C002CEFD1184FDD
:101D70007F44AC3F18E0E80714D007EB04100DF1E6
:101D8000180A90E80E008AE80E00C068F04201D1FF
:101D900098190890324606A903A800F0A0FA03ABF0
:101DA00083E807006D10641C002DE4D132466946BB
:101DB000B8F1000F03A802D000F07DFA01E000F0B6
:101DC0008EFAC9E90001C9F808200AB0BDE8F08719
:101DD000F47901005FEA400C08BF91F0000F4FEA70
:101DE0008C234FEAC12243EA51514FEA1C5018BFDD
:101DF00000F5F0404FEA300018BF41F000415FEAC3
:101E00006C5C00F02980BCF1FF3F08BF40F08040CF
:101E10007047130C06BF12044FF0100C4FF0000C6B
:101E2000130E04BF12020CF1080C130F04BF1201B1
:101E30000CF1040C930F04BF92000CF1020CD30FB1
:101E400004BF52000CF1010C11464FF00002A0F14A
:101E50001F00A0EB0C00704711F0004F08BF704747
:101E600031F000413FF4D5AF0B0C06BF09044FF031
:101E7000100C4FF0000C0B0E04BF09020CF1080C03
:101E80000B0F04BF09010CF1040C8B0F04BF890078
:101E90000CF1020CCB0F04BF49000CF1010CCCF18A
:101EA0002003A0EB0C0022FA03F302FA0CF241EA41
:101EB000030100F10100704720F07F4C80EA03002D
:101EC00023F07F47ACEB070303F57C5300F00040A1
:101ED00003F1FF032DE980494FEA154B09B44FEA9E
:101EE000144325EA0B4E24EA03480FF2042606EBBE
:101EF000132749083E785FEA320203FB0667C7F5FD
:101F0000000707FB06F64FEA54374FEAD64606F1BC
:101F1000020607FB066CCCF1005C4FEA1C472CEA7A
:101F2000074C07FB06F40CFB06F504EB15464FEADD
:101F3000961634BF00204FF000404FEAD13706FB21
:101F400007FC4FEA1C4C0CFB0BF7D21B03FB0CF7F6
:101F500061EB07010CFB0EF7B0EB074072EB174289
:101F60000CFB08F734BFA2EB0742B2EB074261EB70
:101F700017414FEA0C444FEA910706FB07FC4FEA72
:101F80001C4C0CFB0BF7B0EBC74072EB573203FB5A
:101F90000CF734BFA2EBC742B2EBC74261EB57313B
:101FA0000CFB0EF7B0EBC70072EB57720CFB08F797
:101FB00034BFA2EBC702B2EBC70261EB5771039FBC
:101FC0004FEA816141EA921104EBCC044FEAD13728
:101FD0004FEA826206FB07FC42EA90124FEA8060F9
:101FE0004FEA1C4C0CFB0BF7D21B03FB0CF761EB0D
:101FF00007010CFB0EF7B0EB074072EB17420CFB2E
:1020000008F734BFA2EB0742B2EB074261EB17417E
:102010004FEA8C554FEA910704EB9C2406FB07FC22
:102020004FEA1C4C0CFB0BF7B0EBC74072EB57327E
:1020300003FB0CF734BFA2EBC742B2EBC74261EB24
:1020400057310CFB0EF7B0EBC70072EB57720CFB6D
:1020500008F734BFA2EBC702B2EBC70261EB5771BE
:1020600015EB4C254FEA816141EA92114FEA8262F9
:102070004FEAD13742EA901206FB07FC44F1000414
:102080004FEA80604FEA1C4C0CFB0BF7D21B03FBA2
:102090000CF761EB07010CFB0EF7B0EB074072EB9E
:1020A00017420CFB08F734BFA2EB0742B2EB074222
:1020B00061EB174115EB1C154FEA813141EA924162
:1020C0004FEA823242EA90424FEA80304FEA0C7681
:1020D00044F1000448EA03434EEA0B484FF0000E77
:1020E000B2EB080C71EB030724BF624639464EEB96
:1020F0000E0E4FF0000B0018524149414BEB0B0BF9
:10210000B2EB080C71EB03077BF1000B24BF6246B6
:1021100039464EEB0E0E4FF0000B0018524149416C
:102120004BEB0B0BB2EB080C71EB03077BF1000BD5
:1021300024BF624639464EEB0E0E51EA020718BF25
:1021400046F0010616EB0E7655F1000254F100013F
:1021500003D5BDE88901BDE80088BDE88901BDE877
:102160000048B619524141EB0101A3F10103704748
:1021700080807F7E7D7C7B7A7978777676757473C4
:10218000727171706F6E6E6D6C6C6B6A6A69686883
:10219000676666656464636362616160605F5F5E19
:1021A0005E5D5D5C5C5B5B5A5A595958585757568F
:1021B00056555555545453535252525151505050F4
:1021C0004F4F4F4E4E4D4D4D4C4C4C4B4B4B4A4A46
:1021D0004A4949494848484747474746464645458A
:1021E00045444444444343434342424242414141C3
:1021F000002B26D4770021D01CB54FEA370703B453
:102200004FF010004FF010014FF000000FBCBDE880
:1022100010400BF1010BBBF1010F08BF5FEA17077C
:1022200022BF12F1010211F101014FF0004143F10F
:10223000000300F0004043EA00007047F9D357085C
:10224000DAE746EA064613F1400F4FEA16461FDD6D
:1022500013F1200FDFBF16430A46002120335B42F3
:10226000C8D0C3F1200746EA064602FA07F74FEA4C
:10227000164646EA0706C3F1200722FA03F201FADE
:1022800007F721FA03F14FF0000342EA0702B1E732
:1022900046EA020646EA06464FEA164646EA0106BE
:1022A000BCBF46EA0646360C4FF000034FF0000272
:1022B0004FF000019EE72DE9C048934630B491E805
:1022C000380007C831EA400C48BF34EA430C03D554
:1022D000FFF7F2FDFFF78CFFF0BCBDE800882DE9A9
:1022E000C048934630B491E8380007C810F0804FDA
:1022F00008BF13F0804F03D100F005F8FFF778FF17
:10230000F0BCBDE8008820F07F4780EA030023F09E
:102310007F4C07EB0C03A3F57C5300F00040A3F1C6
:10232000FE0392F0000F00F0B38095F0000F00F074
:1023300077802DE901494FEA11404FEA144621EA1E
:10234000004800FB06FC24EA064708FB06F607FBEC
:1023500008F800FB07F718EB06484CEB164C4FEA61
:10236000124B18EB07484FEA15464CEB174022EA90
:102370000B4E0BFB06FC25EA06470EFB06F607FB99
:102380000EFE0BFB07F71EEB064E4CEB164C4FF008
:1023900000061EEB074E4CEB174B18EB0B0840F1F9
:1023A000000018EB0E0B58EB000840F100008F1AEC
:1023B0004FF000013CBFC943661B14BFB5EB040CD2
:1023C00000213CBFC943F61B4FEA17444EEA8E0E6C
:1023D00027EA04454FEA1C4704FB07622CEA074C36
:1023E00005FB07F70CFB05F604FB0CFC16EB074698
:1023F00042EB174216EB0C4642EB1C421BEB060667
:1024000058EB0202414146EA9E0601D5BDE801892A
:10241000B619524141EB0101A3F10103BDE8018965
:102420004FEA14454FEA114724EA054621EA074CD2
:1024300005FB07F406FB07F70CFB06F105FB0CFC9C
:1024400011EB074144EB17444FEA124711EB0C41E3
:1024500044EB1C4422EA074C05FB07F206FB07F796
:102460000CFB06F605FB0CFC16EB074642EB17428D
:1024700016EB0C4642EB1C456A1854F1000148BFAC
:102480007047B619524141EB0101A3F101037047B6
:1024900095F0000F37D04FEA11424FEA144721EA76
:1024A000024624EA074C02FB07F106FB07F70CFB88
:1024B00006F402FB0CFC14EB074441EB17414FEA16
:1024C000154714EB0C4441EB1C4125EA074C02FB79
:1024D00007F506FB07F70CFB06F602FB0CFC16EBF8
:1024E000074645EB174516EB0C4645EB1C42121907
:1024F00051F1000148BF7047B619524141EB01014B
:10250000A3F1010370474FEA14454FEA114724EA4B
:10251000054621EA074C05FB07F106FB07F70CFB14
:1025200006F24FF0000605FB0CFC12EB074241EBF4
:10253000174112EB0C4251EB1C4148BF70479218F7
:1025400041EB0101A3F101037047000070B504469F
:102550000F480D4684420AD00E48844207D00E48E8
:10256000844204D04FF4C9710CA007F0D5FE55B1D8
:10257000012D04D040F2931108A007F0CDFEA06811
:1025800040F0010002E0A06820F00100A06070BDF2
:102590000020014000210140002201402E2E5C530A
:1025A000746D4C69625C53544D3332463478785FB5
:1025B0005374645065726970685F447269766572BD
:1025C0005C7372635C73746D3332663478785F6108
:1025D00064632E630000000010B501680446E1B199
:1025E00001291AD0022918D0052916D0062914D09D
:1025F000072912D0092910D011290ED012290CD088
:1026000015290AD0162908D0172906D0192904D06F
:1026100040F2591133A007F07FFE606868B1B0F551
:10262000803F0AD0B0F5003F07D0B0F5403F04D05E
:102630004FF4AD712BA007F06FFEA06868B1B0F544
:10264000804F0AD0B0F5004F07D0B0F5404F04D00E
:1026500040F25B1123A007F05FFEE16889B3B1F59A
:10266000807F2ED0B1F5007F2BD0B1F5407F28D0F0
:10267000B1F5806F25D0B1F5A06F22D0B1F5C06F54
:102680001FD0B1F5E06F1CD0B1F5006F19D0B1F5D6
:10269000106F16D0B1F5206F13D0B1F5306F10D098
:1026A000B1F5406F0DD0B1F5506F0AD0B1F5606F44
:1026B00007D0B1F5706F04D04FF4AE7109A007F0E8
:1026C0002BFE174AD2F8040316490840D4E9001338
:1026D0001943D4E90234234319430143C2F80413D4
:1026E00010BD00002E2E5C53746D4C69625C535417
:1026F0004D3332463478785F537464506572697034
:10270000685F4472697665725C7372635C73746D42
:102710003332663478785F6164632E6300000000B2
:1027200000200140E030FCFF70B504460F480D4624
:1027300084420AD00E48844207D00E48844204D016
:1027400040F21F410CA007F0E7FD55B1012D04D068
:102750004FF4846108A007F0DFFDA06840F48070AA
:1027600002E0A06820F48070A06070BD00200140ED
:1027700000210140002201402E2E5C53746D4C69F3
:10278000625C53544D3332463478785F53746450EE
:1027900065726970685F4472697665725C737263B2
:1027A0005C73746D3332663478785F6164632E6372
:1027B0000000000070B504460F480D4684420AD060
:1027C0000E48844207D00E48844204D040F237417C
:1027D0000CA007F0A1FD55B1012D04D04FF4876185
:1027E00008A007F099FDA06840F4007002E0A0681E
:1027F00020F40070A06070BD002001400021014065
:10280000002201402E2E5C53746D4C69625C53545F
:102810004D3332463478785F537464506572697012
:10282000685F4472697665725C7372635C73746D21
:102830003332663478785F6164632E630000000091
:102840002DE9F041054650480C46854209D04F48D5
:10285000854206D04E48854203D0F0214DA007F0B6
:102860005BFD4FF08076206877004FF0407848B1EC
:10287000B04207D0B84205D0404503D0F12145A071
:1028800007F04AFD207928B1012803D0F22141A0A8
:1028900007F042FD607928B1012803D0F3213DA063
:1028A00007F03AFDA06860B1B0F1805F09D0B0F1E7
:1028B000005F06D0B0F1405F03D0F42135A007F0EF
:1028C0002BFDE06868B3B0422BD0B84229D0404518
:1028D00027D0B0F1806F24D0B0F1A06F21D0B0F13B
:1028E000C06F1ED0B0F1E06F1BD0B0F1006F18D0F8
:1028F000B0F1106F15D0B0F1206F12D0B0F1306F81
:102900000FD0B0F1406F0CD0B0F1506F09D0B0F1E2
:10291000606F06D0B0F1706F03D0F5211DA007F0F5
:10292000FBFC206930B1B0F5006F03D0F62119A08F
:1029300007F0F2FC207D401E0F2803D9F72115A0D7
:1029400007F0EAFC6868224922790840216840EAD9
:10295000022001436960A8681E4963790840D4E9F0
:1029600003211143A26842EA430211430143A960D3
:10297000E86A217D20F47000491EC9B240EA015086
:10298000E862BDE8F0810000002001400021014024
:10299000002201402E2E5C53746D4C69625C5354CE
:1029A0004D3332463478785F537464506572697081
:1029B000685F4472697665725C7372635C73746D90
:1029C0003332663478785F6164632E630000000000
:1029D000FFFEFFFCFDF7FFC02DE9F0410546494829
:1029E0001E4617460C4685420AD04748854207D006
:1029F0004648854204D040F2CF2145A007F08CFC28
:102A000044B3012C26D0022C24D0032C22D0042C39
:102A100020D0052C1ED0062C1CD0072C1AD0082C38
:102A200018D0092C16D00A2C14D00B2C12D00C2C38
:102A300010D00D2C0ED00E2C0CD00F2C0AD0102C38
:102A400008D0112C06D0122C04D04FF4347130A0D1
:102A500007F062FCA7F10108B8F10F0F04D940F2AA
:102A6000D1212BA007F058FC96B1012E10D0022ED8
:102A70000ED0032E0CD0042E0AD0052E08D0062E20
:102A800006D0072E04D040F2D22121A007F044FC4A
:102A90000722092C0AD9E968A4F10A0000EB4000DA
:102AA0008240914386403143E96007E0296904EBA5
:102AB0004400824091438640314329611F21072F02
:102AC00009D26A6B08EB880081408A438440224324
:102AD0006A63BDE8F0810D2F09D22A6BFF1F07EB57
:102AE000870081408A43844022432A63F1E7EA6AEF
:102AF0000D3F07EB870081408A4384402243EA620E
:102B0000E7E70000002001400021014000220140D1
:102B10002E2E5C53746D4C69625C53544D333246B7
:102B20003478785F5374645065726970685F44727A
:102B3000697665725C7372635C73746D333266348C
:102B400078785F6164632E630000000010B504466E
:102B5000094884420AD00948844207D00848844280
:102B600004D040F2463107A007F0D6FBA06840F041
:102B70008040A06010BD0000002001400021014005
:102B8000002201402E2E5C53746D4C69625C5354DC
:102B90004D3332463478785F53746450657269708F
:102BA000685F4472697665725C7372635C73746D9E
:102BB0003332663478785F6164632E63000000000E
:102BC000FEE7000070B504462A480D4684423FD017
:102BD0002848183084423BD026483030844237D0D1
:102BE00024484830844233D02248603084422FD079
:102BF0002048783084422BD01E489030844227D021
:102C00001C48A830844223D01B48844220D01A4854
:102C1000183084421CD018483030844218D01648EE
:102C20004830844214D014486030844210D0124896
:102C3000783084420CD010489030844208D00E483E
:102C4000A830844204D040F2E1110CA007F064FBEC
:102C500055B1012D04D04FF4F17108A007F05CFBD1
:102C6000206840F0010002E0206820F001002060B0
:102C700070BD000010600240106402402E2E5C53B4
:102C8000746D4C69625C53544D3332463478785FCE
:102C90005374645065726970685F447269766572D6
:102CA0005C7372635C73746D3332663478785F641E
:102CB0006D612E630000000070B505468D480C461E
:102CC00085423FD08B48183085423BD08948303010
:102CD000854237D087484830854233D085486030B8
:102CE00085422FD08348783085422BD08148903060
:102CF000854227D07F48A830854223D07E48854230
:102D000020D07D48183085421CD07B483030854229
:102D100018D079484830854214D0774860308542D1
:102D200010D07548783085420CD073489030854279
:102D300008D07148A830854204D04FF4A2716FA02A
:102D400007F0EAFA2068C8B1B0F1007F16D0B0F100
:102D5000806F13D0B0F1C06F10D0B0F1006F0DD004
:102D6000B0F1206F0AD0B0F1406F07D0B0F1606FC2
:102D700004D040F2451161A007F0CEFAE06840B1FE
:102D8000402806D0802804D04FF4A3715BA007F040
:102D9000C3FA20694FF6FF71401E884204D340F207
:102DA000471156A007F0B8FA6069B0F5007F05D06A
:102DB00020B14FF4A47151A007F0AEFAA069B0F5AC
:102DC000806F05D020B140F249114CA007F0A4FA61
:102DD000E06950B1B0F5006F07D0B0F5805F04D066
:102DE0004FF4A57145A007F097FA206A50B1B0F5ED
:102DF000005F07D0B0F5804F04D040F24B113FA0E8
:102E000007F08AFA606A38B1B0F5807F04D04FF4D9
:102E1000A6713AA007F080FAA06A68B1B0F5803FC9
:102E20000AD0B0F5003F07D0B0F5403F04D040F2E3
:102E30004D1132A007F070FAE06A30B1042804D0D6
:102E40004FF4A7712DA007F067FA206B50B101284D
:102E500008D0022806D0032804D040F24F1127A042
:102E600007F05AFA606B68B1B0F5000F0AD0B0F104
:102E7000807F07D0B0F1C07F04D04FF4A8711FA0AD
:102E800007F04AFAA06B68B1B0F5001F0AD0B0F5A0
:102E9000800F07D0B0F5C00F04D040F2511117A039
:102EA00007F03AFA29682448E26801402068104394
:102EB000D4E905231A431043E2691043226A104300
:102EC000626A1043A26A1043626B1043A26B104304
:102ED000084328606869D4E90B1220F00700114309
:102EE00001436961206968606068A860A068E86063
:102EF00070BD000010600240106402402E2E5C5332
:102F0000746D4C69625C53544D3332463478785F4B
:102F10005374645065726970685F44726976657253
:102F20005C7372635C73746D3332663478785F649B
:102F30006D612E63000000003F801CF070470000B0
:102F400010B5022000F06AF8002811D00CF0D4F877
:102F500013F0DEFD0BF04AF8064C84ED010A0BF08D
:102F6000DFF884ED020ABDE81040022000F028B826
:102F700010BD00001400002010B5402000F04EF8F5
:102F800020B113F053FE402000F01AF84FF4807483
:102F9000204600F043F820B10EF0D8FD204600F0A6
:102FA0000FF84FF40074204600F038F8002806D0DF
:102FB0000EF020FE2046BDE8104000F001B810BD24
:102FC00010B50446C00D00D124B940F2231103A06E
:102FD00007F0A2F91048046010BD00002E2E5C53CB
:102FE000746D4C69625C53544D3332463478785F6B
:102FF0005374645065726970685F44726976657273
:103000005C7372635C73746D3332663478785F65B9
:103010007874692E63000000143C014070B50025EF
:103020000446012842D0022C40D0042C3ED0082C6B
:103030003CD0102C3AD0202C38D0402C36D0802CCC
:1030400034D0B4F5807F31D0B4F5007F2ED0B4F504
:10305000806F2BD0B4F5006F28D0B4F5805F25D0F9
:10306000B4F5005F22D0B4F5804F1FD0B4F5004F07
:103070001CD0B4F5803F19D0B4F5003F16D0B4F59C
:10308000802F13D0B4F5002F10D0B4F5801F0DD0D1
:10309000B4F5001F0AD0B4F5800F07D0B4F5000FC7
:1030A00004D04FF4867105A007F036F91248006885
:1030B000204200D00125284670BD00002E2E5C5312
:1030C000746D4C69625C53544D3332463478785F8A
:1030D0005374645065726970685F44726976657292
:1030E0005C7372635C73746D3332663478785F65D9
:1030F0007874692E63000000143C014070B50446EA
:10310000007928B1042803D0832129A007F004F90D
:103110006079082807D00C2805D0102803D0842116
:1031200023A007F0F9F82068C10D00D118B9852156
:103130001FA007F0F1F8A07928B1012803D086215B
:103140001BA007F0E9F82949A07958B3086822685C
:1031500090430860081D026823689A430260207942
:103160000844026823681A430260204B0833186839
:103170002268904318601A1D10682568A8431060E3
:103180006079102805D00844016822681143016065
:1031900070BD1868216808431860106821680843EA
:1031A000106070BD20790844016822689143EEE701
:1031B0002E2E5C53746D4C69625C53544D33324611
:1031C0003478785F5374645065726970685F4472D4
:1031D000697665725C7372635C73746D33326634E6
:1031E00078785F657874692E63000000003C0140C8
:1031F0002DE9F05F04464B4800260D46844221D05D
:10320000494884421ED0494884421BD048488442E1
:1032100018D04848844215D04748844212D04748C5
:1032200084420FD0464884420CD04648844209D09C
:103230004548844206D04548844203D0CF2144A06B
:1032400007F06AF828880004000C03D1D02140A0C0
:1032500007F062F8287948B1012807D0022805D084
:10326000032803D0D1213AA007F056F8E87938B105
:10327000012805D0022803D0D22135A007F04CF850
:103280004FF0010A4FF0030B0AFA06F02968814655
:103290000140494541D1216870000BFA00F7B9435C
:1032A000804621602979206801FA08F101432160F4
:1032B0002879012801D0022826D1687948B101284F
:1032C00007D0022805D0032803D0E42120A007F06E
:1032D00023F8A068B843A0606879A16800FA08F0F4
:1032E0000843A060A87928B1012803D0EB2118A0D9
:1032F00007F012F8606820EA090060606168A87948
:10330000B04080B201436160E068B843E060E879B2
:10331000E16800FA08F00843E060761C102EB3D391
:10332000BDE8F09F00000240000402400008024097
:10333000000C02400010024000140240001802403D
:10334000001C0240002002400024024000280240ED
:103350002E2E5C53746D4C69625C53544D3332466F
:103360003478785F5374645065726970685F447232
:10337000697665725C7372635C73746D3332663444
:1033800078785F6770696F2E6300000070B506463D
:103390003F4815460C46864222D03E4886421FD002
:1033A0003D4886421CD03D48864219D03C48864262
:1033B00016D03C48864213D03B48864210D03B484A
:1033C00086420DD03A4886420AD03A48864207D013
:1033D0003948864204D040F2492138A006F09CFFCB
:1033E00014B3012C20D0022C1ED0032C1CD0042C92
:1033F0001AD0052C18D0062C16D0072C14D0082C67
:1034000012D0092C10D00A2C0ED00B2C0CD00C2C66
:103410000AD00D2C08D00E2C06D00F2C04D040F270
:103420004A2126A006F078FF15B3092D20D0012DE2
:103430001ED0022D1CD0032D1AD0042D18D0052D1E
:1034400016D0062D14D0072D12D0082D10D00A2D1D
:103450000ED00B2D0CD00C2D0AD00D2D08D00F2D19
:1034600006D00E2D04D040F24B2114A006F054FFDC
:103470006007C10E8D40E00806EB8000026A0F2352
:103480008B409A430262016A2943016270BD0000C9
:10349000000002400004024000080240000C02400C
:1034A000001002400014024000180240001C0240BC
:1034B0000020024000240240002802402E2E5C53CF
:1034C000746D4C69625C53544D3332463478785F86
:1034D0005374645065726970685F4472697665728E
:1034E0005C7372635C73746D3332663478785F67D3
:1034F00070696F2E6300000070B505462D480026E8
:103500000C46854222D02C4885421FD02B4885424C
:103510001CD02B48854219D02A48854216D02A480B
:10352000854213D02948854210D0294885420DD0C4
:10353000284885420AD02848854207D02748854236
:1035400004D04FF4A47126A006F0E6FE012C2AD088
:10355000022C28D0042C26D0082C24D0102C22D0C9
:10356000202C20D0402C1ED0802C1CD0B4F5807F85
:1035700019D0B4F5007F16D0B4F5806F13D0B4F530
:10358000006F10D0B4F5805F0DD0B4F5005F0AD0A5
:10359000B4F5804F07D0B4F5004F04D040F2491184
:1035A0000FA006F0B9FE2869204200D0012630465F
:1035B00070BD00000000024000040240000802400C
:1035C000000C0240001002400014024000180240AB
:1035D000001C02400020024000240240002802405B
:1035E0002E2E5C53746D4C69625C53544D333246DD
:1035F0003478785F5374645065726970685F4472A0
:10360000697665725C7372635C73746D33326634B1
:1036100078785F6770696F2E6300000070B50446AC
:1036200017480D46844222D0164884421FD01648BF
:1036300084421CD01548844219D01548844216D0C3
:103640001448844213D01448844210D01348844252
:103650000DD0134884420AD01248844207D0124841
:10366000844204D04FF4DA7110A006F055FE25B95B
:1036700040F2B5110DA006F04FFE658370BD00004D
:10368000000002400004024000080240000C02401A
:10369000001002400014024000180240001C0240CA
:1036A0000020024000240240002802402E2E5C53DD
:1036B000746D4C69625C53544D3332463478785F94
:1036C0005374645065726970685F4472697665729C
:1036D0005C7372635C73746D3332663478785F67E1
:1036E00070696F2E6300000070B5044617480D46E0
:1036F000844222D0164884421FD0164884421CD0EF
:103700001548844219D01548844216D01448844282
:1037100013D01448844210D0134884420DD013486B
:1037200084420AD01248844207D01248844204D00E
:1037300040F29F1110A006F0EFFD25B94FF4D071B3
:103740000DA006F0E9FD258370BD000000000240D9
:103750000004024000080240000C02400010024039
:103760000014024000180240001C024000200240E9
:1037700000240240002802402E2E5C53746D4C69D8
:10378000625C53544D3332463478785F53746450DE
:1037900065726970685F4472697665725C737263A2
:1037A0005C73746D3332663478785F6770696F2E3E
:1037B0006300000070B50546304816460C46854249
:1037C00022D02F4885421FD02E4885421CD02E483B
:1037D000854219D02D48854216D02D48854213D0F8
:1037E0002C48854210D02C4885420DD02B4885426C
:1037F0000AD02B48854207D02A48854204D04FF48E
:10380000E57129A006F088FD012C2AD0022C28D0D1
:10381000042C26D0082C24D0102C22D0202C20D0F0
:10382000402C1ED0802C1CD0B4F5807F19D0B4F56C
:10383000007F16D0B4F5806F13D0B4F5006F10D0B0
:10384000B4F5805F0DD0B4F5005F0AD0B4F5804FB9
:1038500007D0B4F5004F04D040F2CB1112A006F00F
:103860005BFD46B1012E04D04FF4E6710EA006F0C8
:1038700053FD2C8370BD6C8370BD000000000240BE
:103880000004024000080240000C02400010024008
:103890000014024000180240001C024000200240B8
:1038A00000240240002802402E2E5C53746D4C69A7
:1038B000625C53544D3332463478785F53746450AD
:1038C00065726970685F4472697665725C73726371
:1038D0005C73746D3332663478785F6770696F2E0D
:1038E000630000000B48B7EE001A9FED0B0A80ED55
:1038F000001A80ED010A80ED020AFFEE000AC0ED19
:10390000030AC0ED040A80ED050A80ED060A80ED89
:10391000071A7047E042002000000000FEE70000A8
:103920001CB504460D4801A990ED000A8DED000A72
:1039300090ED010A68468DED010A00F038FA9DED20
:10394000000A074884ED030A9DED010A84ED040A8C
:1039500090EC020A84EC020A1CBD0000480700201B
:10396000A409002070B51949022400230A681849E7
:103970009FED180A012509686FF03106002A04DA64
:10398000B24204DC0477524206E0322A03DA0377BB
:1039900080ED080A06E0057700EE902AF8EEE00ACE
:1039A000C0ED080A002907DAB14207DC4477494232
:1039B00007E080ED090A70BD322901DA4377F8E7A4
:1039C000457700EE101AB8EEC00AF2E7E4070020CF
:1039D000E80700200000000070B504462DED028BC2
:1039E00082B00E46012011F0BBFD002584F8105175
:1039F00084F811512670012060719FED210A9FED1E
:103A0000218A84ED3D0A84ED3E8A84ED3F8A9FED54
:103A10001E0A201D00F07AFB9FED1C1ADFED1C0A28
:103A20009FED1C0A201D00F065FBB0EE481AF0EE79
:103A3000480AB0EE480A201D00F064FBB0EE481AB8
:103A4000F0EE480AB0EE480A201D00F057FB4FF494
:103A5000FA70CDE90050012300221946201D00F024
:103A600095FBFFF73FFF02B02046BDEC028BDFED78
:103A70000A0ABDE870409FED090A00F0BDBB0000D6
:103A80000000204200000000CDCCCC3E0000FA43F4
:103A9000CDCCCC3D0000FA449A99193FCDCC4C3F97
:103AA0002DE9F04104462DED028B9FED748A00F064
:103AB000EDF8734B01221870A0B194F8791091B110
:103AC000022504270526012917D0022936D0F5EE54
:103AD000000A032947D004296ED0052974D006298D
:103AE00073D08BE02270B0EE480A84ED420A84ED78
:103AF000410ABDEC028BBDE8F081032103280FD001
:103B000001280DD002280BD0042806D0062807D0A3
:103B100008285BD0072809D00BE084F8795008E02A
:103B200094F8D800987084F8791002E084F87970DD
:103B30009A70B0EE480A84ED420A5DE0042804D091
:103B4000052806D084F87920F3E75D7094ED400AEB
:103B500004E05A7094ED400AB1EE400A84ED420A46
:103B6000B0EE480A48E094F8D82099788A4203D108
:103B700094F8D9208A4204D0082827D084F8797094
:103B8000D7E794ED370A94ED381AB4EEC10AF1EE96
:103B900010FA02DD94ED400A04E006D294ED400AEA
:103BA000FDEE000A20EE200A01E0B0EE480A84EDA6
:103BB000420A94ED400A1FE0082807D094F87800E4
:103BC00038B101281DD0FEE720E053E084F8796089
:103BD000AFE794F8D800022805D15D7094ED401A43
:103BE00084ED421A06E05A7094ED401AB1EE410A93
:103BF00084ED420A21EE200A84ED410AB0EE480A23
:103C000077E794F8D8000128EDD1E6E794F8D800DA
:103C100094F8D91088421AD194F87810BEEE080AA8
:103C2000B6EE081A31B1012808D00228E6D1D4ED49
:103C3000400A1CE00128FAD00228DFD1D4ED400A66
:103C400020EE810A84ED420AC4ED410AD6E794EDE4
:103C5000370AD4ED380AB4EEE00AF1EE10FAD4EDEA
:103C6000400A02DD9FED070A01E09FED070A20EE02
:103C7000800AE7E7002084F879005AE70000000096
:103C8000BA060020CDCCCC3DCDCCCCBD90F8D82010
:103C9000D2B390F8D910B9B38A425AD190ED370A0D
:103CA000BDEEC00A10EE101A002900DA494290ED6C
:103CB000380ABDEEC00A10EE100A002800DA4042B1
:103CC00000EE900A9FED290A012AF8EE600A20EE24
:103CD000801A00EE901AF8EE600A18D0B4EEE01ADE
:103CE000F1EE10FA2FDD00EE901AF8EE600A60EEA9
:103CF000800A00EE100AB8EE400AF4EEC00AF1EEB7
:103D000010FA20DD06207047FFE70020FBE7B4EE45
:103D1000E01AF1EE10FA10DD00EE901AF8EE600AEB
:103D200060EE800A00EE100AB8EE400AF4EEC00A17
:103D3000F1EE10FA01DD0320E5E7814201D901200F
:103D4000E1E70220DFE7814201D90420DBE705201B
:103D5000D9E790F8780010B1012A02D003E0012AD7
:103D600001D00720CFE70820CDE700009A99993FBE
:103D700070B590ED000AD1ED000A0C4620EE000A65
:103D8000054600EEA00A04F0B4FFB5EEC00AF1EE5D
:103D900010FA0BD0D5ED000A80EE801A85ED001ADE
:103DA000D4ED000A80EE801A84ED001A70BD70B563
:103DB00090ED000AD1ED000A0C4620EE000A0546FF
:103DC00000EEA00A04F095FFB5EEC00AF1EE10FA7D
:103DD0000BD0D5ED000A80EE801A85ED001AD4EDE7
:103DE000000A80EE801A84ED001A70BD90ED420A40
:103DF00090ED431A70EE010A30EE410A90ED3E1A42
:103E0000FDEEE00ABDEEC00AF8EEE01AB4EEE11AEB
:103E1000F1EE10FA0DD2D0ED3D1A31EE211AF8EE86
:103E2000E01A80ED3E1AB4EEE11AF1EE10FA14DC5D
:103E300017E0F8EEE01AB4EEE11AF1EE10FA10DD38
:103E4000D0ED3D1A31EE611AF8EEE01A80ED3E1A1F
:103E5000B4EEE11AF1EE10FA03D2F8EEE00AC0ED8A
:103E60003E0AB8EEC01AD0ED3F0AF4EEC10AF1EEF8
:103E700010FA0DD290ED3D1A70EE810AB8EEC01A1C
:103E8000C0ED3F0AF4EEC10AF1EE10FA14DC17E0BF
:103E9000B8EEC01AF4EEC10AF1EE10FA10DD90EDA2
:103EA0003D1A70EEC10AB8EEC01AC0ED3F0AF4EE3A
:103EB000C10AF1EE10FA03D2B8EEC00A80ED3F0A53
:103EC00090ED3F0ABDEEC00A10EE101A90ED3E0ACA
:103ED000BDEEC00A10EE100A11F030BB90F81011C0
:103EE000022901D100F05AB8704710B5044603F01A
:103EF000F9F984ED420A94ED400A84ED410A10BDBF
:103F00001CB590ED020AD0ED300A90ED011AD0ED0B
:103F10002F1A30EE600AD0ED040A71EE611A90EDAE
:103F2000051A20EE200A044601A901EEC10A60EE3E
:103F3000411A20EE802A90ED120A684660EE200AAF
:103F400020EE010A71EEA00A32EE000ACDED000A61
:103F50008DED010AFFF72BFF9DED000A204684ED51
:103F6000130A9DED010A84ED140A03F0BBF99FEDDD
:103F7000040A84ED420A94ED400A84ED410A1CBD16
:103F800000000000FFF78CBD417819B1012903D171
:103F9000FFF7B6BFFFF7A9BF7047000070B54A4EE4
:103FA00004462DED048B3088401C308094F81601B7
:103FB000F0B30025012846D002285AD194ED330AE7
:103FC000D4ED490A94ED4A1AF7EE001A20EE202AA1
:103FD00094ED340AD4ED472A00EE012A94ED461AF6
:103FE000B0EE610A358001EE620AB6EE001A94F86E
:103FF000140120EE010A94ED481A84ED421A08B12A
:10400000B1EE411A31EEC00A12EE101A2F4AC1EE7B
:10401000001A9142C4ED431A2BD901219FED2C0ABD
:1040200084F8161184ED430A84ED420A20B300E0BF
:1040300002E0012822D023E0BDEC048B25A0BDE8DE
:1040400070400FF05FBB201DFFF79EFF0BF0E8FFF5
:104050001D48801C817901290BD1C179012908D122
:104060003188642905D9022184F81611C57185713A
:104070003580BDEC048B70BD84F8141184F81451A4
:10408000B1EE609A84ED499A19EE100A13F0CEFD54
:104090009FED150A41EC180B29EE000A10EE100AEC
:1040A00013F0C4FDB0EE481AF0EE681A41EC100BA4
:1040B0000022BDEC048B201D1146BDE870409FED31
:1040C0000B2B00F063B80000B00600208FC275BF54
:1040D0000000000057616974696E67206F72646543
:1040E000727321200A000000000048430000000015
:1040F00000407F40583080EC030A70477C3080ECF1
:10410000030A70479C3080EC030A704780ED120A66
:104110007047000031B504462DED040B2DED028BE8
:10412000B0EE418A03A902A8FFF722FE00206070CA
:104130009DED020A84ED040ADDED030AC4ED050AD3
:1041400084ED130AC4ED140A84ED3F8A9FED040A3E
:1041500084ED408A84ED1D0ABDEC028B05B030BDB4
:104160000000000008224270012280F8792080EDD2
:104170003F0A80ED400A9FED040A80F8781080ED38
:10418000260A80ED2E0A70470000000031B5044673
:104190002DED060B2DED048BB0EE428AB0EE609A49
:1041A000F0EE408A07A906A8FFF701FE0120607023
:1041B000C4ED018A84ED029A9DED060A84ED040A9D
:1041C000DDED070AC4ED050A84ED130AC4ED140AF7
:1041D0009FED070A84ED3F8A84ED400A9FED050AB2
:1041E00084ED110A84ED1D0ABDEC048B07B030BDCF
:1041F000000048440000000080ED460AC0ED470A78
:10420000002180F81511012180F81611704730B592
:104210000D462DED028B83B00446B0EE408A01A915
:104220006846CDEC020AFFF7A3FD9DED000A0020D1
:1042300084ED490ADDED010AB0EE481AC4ED4A0AE0
:1042400084F8145184F8150184ED488A012084F81B
:104250001601022084F81001201DFFF75BFF03B058
:10426000BDEC028B30BD704710B500214FF00060EF
:1042700000F09EF8BDE810404FF4A06000F062B876
:1042800070B50446C0780F2528B1012803D08D21D0
:104290001FA006F041F86078102803D38E211CA0DF
:1042A00006F03AF8A078102803D38F2118A006F062
:1042B00033F8E078012200B32148006800F4E060A0
:1042C000C0F5E060C0F30720C0F10401C54060788C
:1042D0008840A178294001430801217801F1E021BB
:1042E00081F80004207800F01F018A404009800016
:1042F00000F1E020C0F8002170BD207800F01F011F
:104300008A404009800000F1E020C0F8802170BDA3
:104310002E2E5C53746D4C69625C53544D3332469F
:104320003478785F5374645065726970685F447262
:10433000697665725C7372635C6D6973632E63008A
:104340000CED00E010B50446B0F5E06F0FD0B4F509
:10435000C06F0CD0B4F5A06F09D0B4F5806F06D053
:10436000B4F5407F03D0792103A005F0D5FF0E48B6
:1043700004430E48046010BD2E2E5C53746D4C69CE
:10438000625C53544D3332463478785F53746450D2
:1043900065726970685F4472697665725C73726396
:1043A0005C6D6973632E63000000FA050CED00E09C
:1043B00070B50D460446B0F1005F06D0B4F1006F51
:1043C00003D0B72107A005F0A7FF1248854203D309
:1043D000B82104A005F0A0FF0F4805400F48254371
:1043E000056070BD2E2E5C53746D4C69625C535435
:1043F0004D3332463478785F537464506572697017
:10440000685F4472697665725C7372635C6D697330
:10441000632E6300FFFF0F0080FFFF1F08ED00E029
:104420000549086810F8082D10F8043F1A4400F8F0
:10443000042C0860704700006808002003490868E1
:1044400070E902231A4404C008607047680800201D
:104450000549086830F8082D30F8043F1A4420F860
:10446000042C0860704700006808002005490868AF
:1044700010F8082D10F8043F1A4000F8042C0860CA
:1044800070470000680800200349086870E90223AB
:104490001A4004C008607047680800200549086891
:1044A00030F8082D30F8043F1A4020F8042C08603A
:1044B00070470000680800200348006810F8041DD9
:1044C000C943017070470000680800200348006875
:1044D00050F8041DC94301607047000068080020BF
:1044E0000348006830F8041DC9430180704700008C
:1044F0006808002070B57A4A9CB07A4D10680CAB01
:1045000010F8011B10602A680020121F2A6008E0C2
:104510000E1A03EB860652F8044946F8044C401C78
:104520002A608842F4D3146811297DD2DFE801F0B3
:10453000090B0E12171C232C36404D5C6C7D90A588
:10454000BB00002000E00C98A047C3E0DDE90C01AF
:10455000A047BFE00CAB93E80700A047BAE00CAE61
:1045600096E80F00A047B5E010980CAE009096E8D2
:104570000F00A047AEE0DDE910010CAECDE900016F
:1045800096E80F00A047A5E010AB0CAE93E807003B
:104590008DE8070096E80F00A0479BE010AE96E874
:1045A0000F008DE80F000CAE96E80F00A04791E0D9
:1045B00011AE96E80F0001AE86E80F0010980CAE21
:1045C000009096E80F00A04784E012AE96E80F0036
:1045D00002AE86E80F00DDE910010CAECDE9000166
:1045E00096E80F00A04775E013AE96E80F0003AE03
:1045F00086E80F0010AB0CAE93E807008DE80700CB
:1046000096E80F00A04765E014AE96E80F0004AEF0
:1046100086E80F0010AE96E80F008DE80F000CAE94
:1046200096E80F00A04755E053E015AE96E80F005E
:1046300005AE86E80F0011AE96E80F0001AE86E8E1
:104640000F0010980CAE009096E80F00A04741E0D4
:1046500016AE96E80F0006AE86E80F0012AE96E89A
:104660000F0002AE86E80F00DDE910010CAECDE9C7
:10467000000196E80F00A0472CE017AE96E80F0067
:1046800007AE86E80F0013AE96E80F0003AE86E88B
:104690000F0010AB0CAE93E807008DE8070096E81A
:1046A0000F00A04716E018AE96E80F0008AE86E8A7
:1046B0000F0014AE96E80F0004AE86E80F0010AEAF
:1046C00096E80F008DE80F000CAE96E80F00A047AB
:1046D00000E00020296801C129601CB070BD000005
:1046E0006C080020680800200549086810F8082DAB
:1046F00010F8043FB2FBF3F200F8042C0860704796
:10470000680800200449086870E9022392FBF3F26C
:1047100004C0086070470000680800200549086868
:1047200030F9082D30F9043F92FBF3F220F8042C05
:1047300008607047680800200549064A0868037841
:10474000106800F8043B10600868401C086070475F
:104750006C0800206808002006490868C2780368D1
:1047600062F31F63044A106808C010600868001DE7
:10477000086070476C080020680800200749086836
:10478000C278006862F31F60054A0378106800F879
:10479000043B10600868001D086070476C0800202A
:1047A000680800200348006850F8041D097801706B
:1047B000704700006808002007490868C278006850
:1047C00062F31F60054A0368106808C0106008683B
:1047D000001D0860704700006C0800206808002079
:1047E0000348006850F8041D096801607047000024
:1047F0006808002007490868C278006862F31F60F3
:10480000054A0388106820F8043B10600868001D02
:10481000086070476C0800206808002003480068A2
:1048200050F8041D098801807047000068080020C6
:104830000549064A08680388106820F8043B1060A0
:104840000868801C086070476C0800206808002019
:10485000074B10B5186810F8081D10F8042FB1FBAD
:10486000F2F402FB141100F8041C186010BD0000E3
:1048700068080020054B10B5186870E9021291FB1A
:10488000F2F402FB141102C0186010BD6808002089
:10489000074B10B5186830F9081D30F9042F91FB4B
:1048A000F2F402FB141120F8041C186010BD000083
:1048B000680800200549086810F8082D10F8043F22
:1048C00012FB03F200F8042C08607047680800200F
:1048D0000349086870E902235A4304C0086070471E
:1048E000680800200549086830F8082D30F8043FB2
:1048F00012FB03F220F8042C0860704768080020BF
:10490000704700000549086810F8082D10F8043FAA
:104910001A4300F8042C0860704700006808002063
:104920000349086870E902231A4304C0086070470D
:10493000680800200549086830F8082D30F8043F61
:104940001A4320F8042C0860704700006808002013
:1049500002480168091F01607047000068080020D4
:104960000549086810F8082D10F8043F9A4000F82F
:10497000042C08607047000068080020054908689A
:1049800050F8082D10F8043F9A4040F8042C0860B5
:1049900070470000680800200549086830F8082DB5
:1049A00010F8043F9A4020F8042C0860704700007B
:1049B000680800200549086810F8082D10F8043F21
:1049C000DA4000F8042C08607047000068080020F6
:1049D0000549086850F8082D10F8043F1A4140F8BE
:1049E000042C08607047000068080020054908682A
:1049F00030F9082D10F8043F1A4120F8042C086003
:104A000070470000680800200549086810F8042C69
:104A100050F8080C02700868001F0860704700001A
:104A20006808002004490868083805C8026008685A
:104A3000001F0860704700006808002005490868EA
:104A400030F8042C50F8080C02800868001F086039
:104A500070470000680800200549086810F8082D14
:104A600010F8043FD21A00F8042C086070470000C8
:104A7000680800200349086870E90223D21A04C0BC
:104A800008607047680800200549086830F8082D5C
:104A900030F8043FD21A20F8042C08607047000058
:104AA000680800200549086810F8082D10F8043F30
:104AB0005A4000F8042C0860704700006808002085
:104AC0000349086870E902235A4004C0086070472F
:104AD000680800200549086830F8082D30F8043FC0
:104AE0005A4020F8042C0860704700006808002035
:104AF00080ED030AC0ED040A70EEC00AC0ED050A9D
:104B000090ED070A90ED011A01EE200A80ED070AE8
:104B1000B0EEC01A90ED020AF0EEC01AB4EEE11A3F
:104B2000F1EE10FA02DC90ED070A01E080ED070AD1
:104B300090ED001A01EE200A80ED060A7047000091
:104B400010B5040005D0012C03D0BA2102A005F055
:104B5000E3FB1048046210BD2E2E5C53746D4C694B
:104B6000625C53544D3332463478785F53746450EA
:104B700065726970685F4472697665725C737263AE
:104B80005C73746D3332663478785F7077722E633D
:104B90000000000000000E4270B504460C480D46AF
:104BA000044200D124B940F63B010AA005F0B4FB51
:104BB000174E4DB1012D04D040F63D0105A005F082
:104BC000ABFB3068204301E03068A043306070BD2B
:104BD00000E80B012E2E5C53746D4C69625C5354DB
:104BE0004D3332463478785F53746450657269701F
:104BF000685F4472697665725C7372635C73746D2E
:104C00003332663478785F7263632E63000000008D
:104C10003038024070B504460D46400800D124B932
:104C200040F6790109A005F077FB174E4DB1012D33
:104C300004D040F67A0105A005F06EFB30682043F1
:104C400001E03068A043306070BD00002E2E5C5340
:104C5000746D4C69625C53544D3332463478785FDE
:104C60005374645065726970685F447269766572E6
:104C70005C7372635C73746D3332663478785F7220
:104C800063632E63000000003838024070B50D46A3
:104C9000044610F4585F00D124B940F6B20109A0CF
:104CA00005F03AFB164E4DB1012D04D040F6B3018C
:104CB00004A005F031FB3068204301E03068A043D8
:104CC000306070BD2E2E5C53746D4C69625C535421
:104CD0004D3332463478785F53746450657269702E
:104CE000685F4472697665725C7372635C73746D3D
:104CF0003332663478785F7263632E63000000009D
:104D00004038024070B50D46044610F4585F00D19B
:104D100024B940F67E1109A005F0FEFA164E4DB1F9
:104D2000012D04D040F67F1104A005F0F5FA30689B
:104D3000204301E03068A043306070BD2E2E5C53EC
:104D4000746D4C69625C53544D3332463478785FED
:104D50005374645065726970685F447269766572F5
:104D60005C7372635C73746D3332663478785F722F
:104D700063632E63000000002038024070B50446D3
:104D80000C480D46044200D124B940F6E6010AA0C1
:104D900005F0C2FA174E4DB1012D04D040F6E701DF
:104DA00005A005F0B9FA3068204301E03068A0435F
:104DB000306070BD0C0008F02E2E5C53746D4C6991
:104DC000625C53544D3332463478785F5374645088
:104DD00065726970685F4472697665725C7372634C
:104DE0005C73746D3332663478785F7263632E63FC
:104DF000000000004438024070B504460C480D46DF
:104E0000044200D124B940F6AD110AA005F084FA9D
:104E1000174E4DB1012D04D040F6AE1105A005F09E
:104E20007BFA3068204301E03068A043306070BDF9
:104E30000C8608F22E2E5C53746D4C69625C5354E0
:104E40004D3332463478785F5374645065726970BC
:104E5000685F4472697665725C7372635C73746DCB
:104E60003332663478785F7263632E63000000002B
:104E70002438024070B5204B1968204C11F00C0109
:104E800004D01F4E042903D0082903D004601BE07E
:104E9000066019E0184A121F1168C1F380551168A5
:104EA00001F03F0115B1B6FBF1F101E0B4FBF1F106
:104EB00014681268C4F388146143C2F30142521C9F
:104EC0005200B1FBF2F1016019680F2202EA1111E0
:104ED0000C4A545C0168E14041601C68072505EA02
:104EE0009424145D21FA04F484601B6805EA5333AA
:104EF000D25CD140C16070BD083802400024F4008B
:104F000040787D01EC07002070B50025044621287B
:104F10001ED0312C1CD0392C1AD0412C18D0612C29
:104F200016D0792C14D07A2C12D07B2C10D07C2C5B
:104F30000ED07D2C0CD07E2C0AD07F2C08D03B2CA0
:104F400006D03D2C04D040F602410CA005F0E4F957
:104F5000600901280CD002280DD01748006804F021
:104F60001F0101228A40024200D00125284670BD5F
:104F700011487438F2E71048001FEFE72E2E5C53FB
:104F8000746D4C69625C53544D3332463478785FAB
:104F90005374645065726970685F447269766572B3
:104FA0005C7372635C73746D3332663478785F72ED
:104FB00063632E63000000007438024010B50400E3
:104FC00008D0012C06D0042C04D040F2931108A084
:104FD00005F0A2F91548002101700170012C04D0E0
:104FE000042C01D10521017010BD0121FBE7000057
:104FF0002E2E5C53746D4C69625C53544D333246B3
:105000003478785F5374645065726970685F447275
:10501000697665725C7372635C73746D3332663487
:1050200078785F7263632E6300000000703802407E
:1050300010B5040006D0012C04D040F2E15103A0C9
:1050400005F06AF91048046010BD00002E2E5C5374
:10505000746D4C69625C53544D3332463478785FDA
:105060005374645065726970685F447269766572E2
:105070005C7372635C73746D3332663478785F721C
:1050800063632E63000000003C0E474210B50446E7
:10509000B0F5807F61D0B4F5007F5ED0394884429E
:1050A0005BD03948844258D03848844255D038487B
:1050B000844252D0374884424FD0374884424CD043
:1050C0003648844249D03648844246D035488442E6
:1050D00043D03548844240D0344884423DD034489F
:1050E00084423AD03348844237D03348844234D063
:1050F0003248844231D0324884422ED031488442F2
:105100002BD03148844228D03048844225D03048C2
:10511000844222D02F4884421FD02F4884421CD082
:105120002E48844219D02E48844216D02D488442FD
:1051300013D02D48844210D02C4884420DD02C48E6
:1051400084420AD02B48844207D02B48844204D0A2
:1051500040F2C35129A005F0DFF8C4F30120032871
:1051600008D1354A1068354B20F4F81104EA0300E1
:1051700008431060304868300168C4F30B021143E3
:10518000016010BD000302000003030000030400DF
:1051900000030500000306000003070000030800E9
:1051A0000003090000030A0000030B0000030C00C9
:1051B00000030D0000030E0000030F0000031000A9
:1051C0000003110000031200000313000003140089
:1051D0000003150000031600000317000003180069
:1051E0000003190000031A0000031B0000031C0049
:1051F00000031D0000031E0000031F002E2E5C5341
:10520000746D4C69625C53544D3332463478785F28
:105210005374645065726970685F44726976657230
:105220005C7372635C73746D3332663478785F726A
:1052300063632E630000000008380240FFFCFF0F8C
:10524000010901EB810100F00F0000EB4100C0B249
:105250007047002103E0491C0A38C9B2C0B20A28CD
:10526000F9D2090740EA1160704710B5012108071B
:10527000FFF70CFD0120FFF763FC0120FFF79EFE06
:105280004120FFF741FE0028FAD04FF48070FFF76D
:10529000FDFE0120FFF7CCFE00F0FCFA002010BD5F
:1052A00008B50D49002000900868400612D44FF060
:1052B000FF3008608B130868009A00F04000521C11
:1052C00000929A4201D00028F5D00868400601D427
:1052D000002008BD012008BD0C28004002480168DC
:1052E00021F08001016070470C28004070B50C4629
:1052F000050006D0012D04D040F224410FA005F096
:105300000BF81D4801681D480140080CE070C1F30E
:105310000422627001F03F02A270C1F34231217099
:10532000002D0AD1FFF78CFFE0706078FFF788FF4F
:105330006070A078FFF784FFA07070BD2E2E5C53C4
:10534000746D4C69625C53544D3332463478785FE7
:105350005374645065726970685F447269766572EF
:105360005C7372635C73746D3332663478785F7229
:1053700074632E6300000000042800403FFFFF001C
:1053800070B50C46050006D0012D04D04FF45F71B6
:1053900010A004F0C1FF1E4801681E480140C1F37F
:1053A00005402070C1F30622627001F07F02A270F6
:1053B000402202EA1141E170002D0AD1FFF740FFBF
:1053C00020706078FFF73CFF6070A078FFF738FF2F
:1053D000A07070BD2E2E5C53746D4C69625C53548A
:1053E0004D3332463478785F537464506572697017
:1053F000685F4472697665725C7372635C73746D26
:105400003332663478785F7274632E630000000074
:10541000002800407F7F7F0070B5044600680026AA
:10542000402805D020B14FF4E7711BA004F074FFB1
:1054300060687F2804D940F2CF1117A004F06CFFF8
:10544000A068B0F5004F04D34FF4E87112A004F047
:1054500063FF204DCA20286053202860FFF720FFFB
:10546000A8B11C481C38016821F0400101600168A6
:105470002268114301601748A1681438016001686F
:10548000A28841EA02410160FFF728FF0126FF20C0
:105490002860304670BD00002E2E5C53746D4C6940
:1054A000625C53544D3332463478785F53746450A1
:1054B00065726970685F4472697665725C73726365
:1054C0005C73746D3332663478785F7274632E6304
:1054D000000000002428004038B504004FF0000010
:1054E00000902AD0012C28D0022C26D0032C24D0C6
:1054F000042C22D0052C20D0062C1ED0072C1CD02A
:10550000082C1AD0092C18D00A2C16D00B2C14D029
:105510000C2C12D00D2C10D00E2C0ED00F2C0CD029
:10552000102C0AD0112C08D0122C06D0132C04D029
:1055300040F6191104A004F0EFFE124800EB8400BD
:105540000090006838BD00002E2E5C53746D4C69CD
:10555000625C53544D3332463478785F53746450F0
:1055600065726970685F4472697665725C737263B4
:105570005C73746D3332663478785F7274632E6353
:10558000000000005028004070B50C4605004FF0A8
:10559000000647D0012D04D040F2B73147A004F0F7
:1055A000BBFEE078FFF74CFE632804D940F2C5311A
:1055B00042A004F0B1FE6078FFF742FE401E0B28C7
:1055C00004D940F2C7313DA004F0A6FEA078FFF751
:1055D00037FE401E1E2804D940F2C93137A004F01E
:1055E0009BFE2178012910D002290ED003290CD06E
:1055F00004290AD0052908D0062906D0072904D095
:1056000040F2CB312DA004F087FE002D29D0A078E8
:10561000E17840EA014560782178000240EA4130B3
:1056200005432EE06078C10603D520F010000A3053
:105630006070E078632804D940F2BF311FA004F005
:105640006BFE6078401E0B2804D94FF470711BA0CC
:1056500004F062FEA078401E1E28C2D940F2C1317B
:10566000BCE7E078FFF7F5FD05046078FFF7F1FD92
:1056700045EA0025A078FFF7ECFD0543207845EAD0
:1056800040351D4CCA20206053202060FFF708FEE3
:1056900078B11A480540184820380560FFF71EFE0B
:1056A00015481C380068800602D400F0F3F800B1F9
:1056B0000126FF202060304670BD00002E2E5C5376
:1056C000746D4C69625C53544D3332463478785F64
:1056D0005374645065726970685F4472697665726C
:1056E0005C7372635C73746D3332663478785F72A6
:1056F00074632E6300000000242800403FFFFF0079
:105700002DE9F0410026524F0C46354600281CD0AA
:10571000012804D040F203314EA004F0FDFD3868AA
:1057200040066AD52078FFF78BFD401E0B2804D970
:1057300040F2193147A004F0EFFDE078002867D06F
:10574000402865D040F21A315FE0386840060FD536
:105750002078401E0B2804D940F209313DA004F006
:10576000DBFDE07868B140280BD040F20A3105E05B
:10577000E5702078172804D940F20F3135A004F0E5
:10578000CBFD60783B2804D940F2113131A004F000
:10579000C3FDA0783B2804D940F212312DA004F0BB
:1057A000BBFD2078FFF755FD05046078FFF751FD3C
:1057B00045EA0025A078FFF74CFD0543E07845EA6F
:1057C0000045234CCA201C34206053202060FFF782
:1057D00067FD68B12E4805401D4808380560FFF791
:1057E0007DFD3868800602D400F054F800B101262F
:1057F000FF2020603046BDE8F081E5702078FFF79B
:105800001FFD172804D940F21F3112A004F084FDB7
:105810006078FFF715FD3B2804D940F221310DA037
:1058200004F07AFDA078FFF70BFD3B2804D940F285
:10583000223108A004F070FDA078217840EA0145EB
:105840006078E178000240EA01400543B9E70000D2
:10585000082800402E2E5C53746D4C69625C5354D2
:105860004D3332463478785F537464506572697092
:10587000685F4472697665725C7372635C73746DA1
:105880003332663478785F7274632E6300000000F0
:105890007F7F7F0018B50020104B0090CA20186051
:1058A000532018600D491839086820F0A0000860DE
:1058B0004FF400340868009A00F02000521C009257
:1058C000A24201D00028F5D00868800601D5012049
:1058D00000E00020FF21196018BD000024280040CE
:1058E00038B504004FF000000D4600902AD0012C7E
:1058F00028D0022C26D0032C24D0042C22D0052C16
:1059000020D0062C1ED0072C1CD0082C1AD0092C15
:1059100018D00A2C16D00B2C14D00C2C12D00D2C15
:1059200010D00E2C0ED00F2C0CD0102C0AD0112C15
:1059300008D0122C06D0132C04D040F6041104A079
:1059400004F0EAFC114800EB84000090056038BDCB
:105950002E2E5C53746D4C69625C53544D33324649
:105960003478785F5374645065726970685F44720C
:10597000697665725C7372635C73746D333266341E
:1059800078785F7274632E63000000005028004036
:1059900070B5044614480D46844213D0134884421F
:1059A00010D0134884420DD0124884420AD01248C5
:1059B000844207D01148844204D040F22B2110A029
:1059C00004F0AAFC55B1012D04D04FF40B710CA0CA
:1059D00004F0A2FC208840F0400002E0208820F083
:1059E0004000208070BD00000030014000380040C1
:1059F000003C004000340140005001400054014090
:105A00002E2E5C53746D4C69625C53544D33324698
:105A10003478785F5374645065726970685F44725B
:105A2000697665725C7372635C73746D333266346D
:105A300078785F7370692E63000000002DE9F047ED
:105A4000244D254E254FDFF89880DFF89890DFF839
:105A500098A00446A8420DD0B4420BD0BC4209D055
:105A6000444507D04C4505D0544503D0E3211FA041
:105A700004F052FCAC4202D101210C031FE0B442FD
:105A800002D101218C0303E0BC420AD10121CC03E5
:105A90002046FFF737F92046BDE8F0470021FFF721
:105AA00031B9444502D101214C0308E04C4502D1F3
:105AB00001210C0503E054450AD101214C05204683
:105AC000FFF79AF92046BDE8F0470021FFF794B9A7
:105AD000BDE8F0870030014000380040003C004045
