:020000040800F2
:10000000203C002039030008A3C00008E38D00084D
:10001000A1C0000827760008A1CA0008000000005F
:10002000000000000000000000000000ADC100085A
:100030002976000800000000C5C0000845C300087C
:100040005303000853030008530300085303000838
:100050005303000853030008530300085303000828
:100060005303000853030008530300085303000818
:100070005303000853030008530300085303000808
:1000800053030008530300085303000853030008F8
:1000900053030008530300085303000853030008E8
:1000A00053030008530300085303000853030008D8
:1000B00053030008530300089DC3000853030008BE
:1000C00053030008530300085303000853030008B8
:1000D00053030008D5C900085303000845CA0008A7
:1000E0005303000853030008530300085303000898
:1000F0005303000853030008530300085303000888
:100100005303000853030008530300085303000877
:10011000530300085303000853030008D1C3000829
:100120005303000853030008530300085303000857
:100130005303000853030008530300085303000847
:100140005303000853030008530300085303000837
:100150005303000853030008530300085303000827
:100160005303000853030008530300085303000817
:100170005303000853030008530300080000000065
:1001800053030008530300085303000853030008F7
:1001900053030008530300085303000853030008E7
:1001A00053030008530300085303000800F002F84B
:1001B00000F0B2F80AA090E8000C82448344AAF14F
:1001C0000107DA4501D100F0A7F8AFF2090EBAE84D
:1001D0000F0013F0010F18BFFB1A43F0010318477B
:1001E000AC560100CC5601000A444FF0000C10F848
:1001F000013B13F0070408BF10F8014B1D1108BFA5
:1002000010F8015B641E05D010F8016B641E01F844
:10021000016BF9D113F0080F1EBF10F8014BAD1C94
:100220000C1B09D16D1E58BF01F801CBFAD505E0B2
:1002300014F8016B01F8016B6D1EF9D59142D6D30C
:10024000704700000023002400250026103A28BF34
:1002500078C1FBD8520728BF30C148BF0B60704738
:100260006E2905F0B987702905F0C584662914F058
:100270002282652914F01F82672914F01C826129EB
:1002800014F01B8203681B0A28BF41F08001692912
:1002900005F03684642905F03384752905F030842F
:1002A0006F2906F0BF82782905F09184E92906F0CC
:1002B0005982E42906F05682F52906F05382EF2987
:1002C00006F0BC82F82905F090840368DB0928BF9A
:1002D00041F08001632906F0C881732906F0CD81C1
:1002E000E32906F0CB84F32906F0D0840020704780
:1002F0001FB514F092F906F0ABFA040000200021BB
:1003000013F094FA401C60600020002113F078FA8A
:10031000E0601FBD10B510BD06F052FD1146FFF79D
:10032000E7FF10F071FE06F079FD03B4FFF7F2FF6E
:1003300003BC0DF008FF000009488047094800474A
:10034000FEE7FEE7FEE7FEE7FEE7FEE7FEE7FEE785
:10035000FEE7FEE704480549054A064B70470000E2
:1003600049C30008AD01000820360020203C0020D1
:100370002038002020380020FE4880ED3A0A7047DF
:100380002DE9F047DFF8EC9300262DED0A8B0446AB
:10039000B0EE408AF0EE608A884635463746D9F896
:1003A000AC0013F03CFD53EC182B13F063FD6FD33E
:1003B000D9F8B00013F033FD53EC182B13F094FE72
:1003C000F5D3B4F90000B4F90610401A13F027FD74
:1003D00053EC182B13F04EFD00D20126B4F90E0099
:1003E000B4F91410401A13F01AFD53EC182B13F043
:1003F00041FD00D2761CB4F91C00B4F92210401A59
:1004000013F00DFD53EC182B13F034FD00D2761CC5
:100410009FEDD90B012E3BDC53EC102B51EC180B4C
:1004200013F064FD8946064649EC180BB4F9000048
:10043000B4F90610401A13F0F2FC53EC182B13F029
:1004400053FE00D20125B4F90E00B4F9141049ECA2
:10045000186B401A13F0E3FC53EC182B13F044FE16
:1004600000D26D1CB4F91C00B4F9221049EC186BD1
:10047000401A13F0D4FC53EC182B13F035FE00D2C5
:100480006D1C002D05DD0220BDEC0A8BBDE8F08758
:1004900065E000269FEDBACB06EB460904EB890523
:1004A000B5F90A0013F0BBFC98ED048B53EC182B44
:1004B00013F028FF41EC190BB5F9040013F0AFFC61
:1004C00053EC182B13F01EFF53EC192B13F00EFDF9
:1004D00041EC190BB5F9080013F0A1FC98ED028B63
:1004E00053EC182B13F00EFF41EC1A0BB5F9020078
:1004F00013F095FC53EC182B13F004FF53EC1A2B5C
:1005000013F0F4FC41EC1A0BB5F9060013F087FC6C
:1005100098ED008B53EC182B13F0F4FE41EC1B0B01
:1005200034F9290013F07BFC53EC182B13F0EAFE8E
:1005300053EC1B2B13F0DAFC53EC1A2B13F0CAF913
:1005400053EC192B13F0C6F953EC1C2B13F092FC4F
:1005500000D27F1C761C032E9EDB022F01DA0120C5
:1005600092E7002090E788490A684B68D00180EA4A
:10057000D20080EA031048608B68520380EAC3030C
:1005800082EA5312520282EAD0208B6008607047E0
:1005900010B52DED048BF0EE408AFFF7E4FF00EE7E
:1005A000100AB8EE400ADFED790A20EE200A9FED2E
:1005B000789A20EE090A0CF003FDB0EE408AFFF7AE
:1005C000D2FF00EE100AB8EE400A20EE090AB5EE9E
:1005D000C00AF1EE10FA01D1B7EE000A10EE100ACF
:1005E00013F07AFF41EC100B0CF09EFD9FED691BA0
:1005F00051EC100B53EC112B13F078FC13F038F97D
:1006000000EE100A0DF077F820EE280A20EE080A16
:10061000BDEC048B10BD2DE9F04105462DED048B9A
:10062000B0EE608AF0EE408A0F4618EE100A13F022
:1006300053FF97ED301B53EC112B13F057FC41EC9B
:10064000190B18EE900A13F047FF95ED301B53EC91
:10065000112B13F04BFC53EC192B13F03BF9002436
:10066000C5E9300118EE100A13F036FF07EBC40895
:1006700098ED001B53EC112B13F038FC41EC190BD7
:1006800018EE900A13F028FF05EBC40696ED001B48
:1006900053EC112B13F02AFC53EC192B13F01AF91D
:1006A000C6E9000118EE100A13F016FF98ED241B9E
:1006B00053EC112B13F01AFC41EC190B18EE900AB5
:1006C00013F00AFF96ED241B53EC112B13F00EFCD4
:1006D00053EC192B13F0FEF8641CC6E92401062C18
:1006E000C0DB002418EE100A13F0F6FE41EC100BEC
:1006F00007EBC40090ED121B51EC100B53EC112BC7
:1007000013F0F4FB41EC190B18EE900A13F0E4FE21
:1007100005EBC40696ED121B53EC112B13F0E6FB10
:1007200053EC192B13F0D6F8641CC6E91201092CFE
:10073000D8DB002418EE100A13F0CEFE41EC100BAB
:1007400007EBC40090ED0C1B51EC100B53EC112B7C
:1007500013F0CCFB41EC190B18EE900A13F0BCFE21
:1007600005EBC40696ED0C1B53EC112B13F0BEFBEE
:1007700014E00000A0280020000000000000044059
:100780000000000000000000A0010020DB0FC940B5
:100790000000802F00000000000000C053EC192B67
:1007A00013F098F8641CC6E90C01032CC2DBBDEC05
:1007B000048BBDE8F0812DE9F04F04462DED068B4A
:1007C00083B00D46086813F02AFB41EC1A0B6868E9
:1007D00013F025FB41EC190BA86813F020FB41EC4A
:1007E000180B94ED300B9FEDFE1B51EC100B53ECEE
:1007F000112B13F06FF8C4E9300194ED0C0B53EC9E
:100800001A2B51EC100B13F065F8C4E90C0194EDB0
:100810000E0B53EC192B51EC100B13F05BF8C4E9E1
:100820000E0194ED100B53EC182B51EC100B13F040
:1008300051F8C4E9100153EC1A2B51EC1A0B13F0C8
:1008400055FB029194ED001B064653EC112B13F05F
:1008500041F8C4E9000153EC192B51EC1A0B13F0C9
:1008600045FB894649EC100B94ED021B054653EC01
:10087000112B51EC100B13F02DF8C4E9020153ECCD
:10088000182B51EC1A0B13F031FB8B464BEC100B71
:1008900094ED041B804653EC112B51EC100B13F01C
:1008A00019F8C4E9040153EC192B51EC190B13F09E
:1008B0001DFB019194ED061B074653EC112B13F021
:1008C00009F8C4E9060153EC182B51EC190B13F08D
:1008D0000DFB009194ED081B824653EC112B12F096
:1008E000F9FFC4E9080153EC182B51EC180B13F075
:1008F000FDFA94ED0A1B53EC112B12F0EBFFC4E947
:100900000A01029953EC1A2B41EC106B51EC100BBD
:1009100013F0ECFA94ED121B53EC112B12F0DAFFEA
:1009200049EC105BC4E9120153EC192B51EC100B8C
:1009300013F0DCFA94ED141B53EC112B12F0CAFFE8
:100940004BEC108BC4E9140153EC182B51EC100B39
:1009500013F0CCFA94ED161B53EC112B12F0BAFFE6
:1009600049EC105BC4E9160153EC1A2B51EC100B47
:1009700013F0BCFA94ED181B53EC112B12F0AAFFE4
:10098000C4E91801019953EC192B41EC107B51EC8F
:10099000100B13F0ABFA94ED1A1B53EC112B12F061
:1009A00099FFC4E91A010099554641EC10AB0E4677
:1009B00053EC182B51EC100B13F098FA94ED1C1B10
:1009C00053EC112B12F086FFC4E91C0153EC1A2BD7
:1009D00051EC180B13F08AFA53EC1A2B13F086FA29
:1009E00094ED1E1B53EC112B12F074FF46EC105BC0
:1009F000C4E91E0153EC192B51EC100B13F076FADD
:100A000094ED201B53EC112B12F064FFC4E920017C
:100A100053EC182B51EC180B13F068FA894649EC8B
:100A2000100B074653EC182B51EC100B13F05EFA29
:100A300094ED221B53EC112B12F04CFFC4E9220160
:100A400053EC1A2B51EC1A0B13F050FA884648EC71
:100A5000100B054653EC1A2B51EC100B13F046FA11
:100A600053EC1A2B13F042FA94ED241B53EC112B88
:100A700012F030FFC4E9240153EC192B51EC190B8F
:100A800013F034FA8A464AEC100B064653EC192B45
:100A900051EC100B13F02AFA53EC192B13F026FA31
:100AA00094ED261B53EC112B12F014FF49EC107B34
:100AB000C4E9260153EC182B51EC100B13F016FA75
:100AC00053EC182B13F012FA94ED281B53EC112B56
:100AD00012F000FF48EC105BC4E9280153EC192B1D
:100AE00051EC100B13F002FA53EC192B13F0FEF932
:100AF00094ED2A1B53EC112B12F0ECFE48EC105B2A
:100B0000C4E92A0153EC182B51EC100B13F0EEF949
:100B100053EC182B13F0EAF994ED2C1B53EC112B2A
:100B200012F0D8FE4AEC106BC4E92C0153EC182BE0
:100B300051EC100B13F0DAF953EC182B13F0D6F933
:100B400094ED2E1B53EC112B12F0C4FEC4E92E01C0
:100B500003B0BDEC068BBDE8F08F2DE9F04F934656
:100B60002DED108B0D46044693B090ED0CEB53EC3D
:100B70001E2B51EC1E0B13F0B9F994ED000B41EC58
:100B8000190B8DED080B94ED308B53EC102B51ECC1
:100B9000180B13F0ABF953EC192B13F0B3FB94EDD6
:100BA0000EDB41EC1F0B53EC1D2B51EC1D0B13F016
:100BB0009DF994ED060B41EC190B8DED060B53ECF2
:100BC000102B51EC180B13F091F953EC192B13F077
:100BD00099FB41EC100B8DED040B94ED10CB03E071
:100BE000000000000000F03F53EC1C2B51EC1C0BEC
:100BF00013F07CF994ED0A0B41EC190B8DED020B0F
:100C000053EC102B51EC180B13F070F953EC192B1B
:100C100013F078FB41EC110B53EC1D2B8DED001BF9
:100C200051EC1E0B13F062F994ED020B41EC190B21
:100C300053EC102B51EC180B13F058F953EC192B03
:100C400013F060FB41EC1B0B53EC1C2B51EC1E0B07
:100C500013F04CF994ED040B41EC190B53EC102BF1
:100C600051EC180B13F042F953EC192B13F04AFB1B
:100C700041EC1A0B53EC1C2B51EC1D0B13F036F905
:100C800094ED080B41EC190B53EC102B51EC180BA5
:100C900013F02CF953EC192B13F034FB9DED020BE0
:100CA00041EC190B53EC102B51EC1E0B13F01EF9F9
:100CB00041EC110B51EC180B8DED101B94ED160B44
:100CC00053EC102B13F012F941EC110B51EC1E0BED
:100CD0008DED0E1B9DED060B53EC102B13F006F95A
:100CE00041EC110B51EC180B8DED0C1B94ED140B1A
:100CF00053EC102B13F0FAF841EC110B51EC1E0BD6
:100D00008DED0A1B9DED080B53EC102B13F0EEF844
:100D100094ED120B41EC1E0B53EC102B51EC180B05
:100D200013F0E4F853EC1E2B13F0ECFA9DED0A1BC4
:100D300053EC112B12F0CEFD9DED0C1B53EC112B3F
:100D400013F0E0FA9DED0E1B53EC112B12F0C2FDD7
:100D50009DED101B53EC112B13F0D4FA9FEDFE1BED
:100D600053EC112B13F0C2F89DED020B41EC1E0B5E
:100D700053EC102B51EC1D0B13F0B8F841EC110B98
:100D800051EC180B8DED101B94ED1C0B53EC102B3C
:100D900013F0ACF841EC110B51EC1D0B8DED0E1B5B
:100DA0009DED060B53EC102B13F0A0F841EC110B4A
:100DB00051EC180B8DED0C1B94ED1A0B53EC102B12
:100DC00013F094F841EC110B51EC1D0B8DED0A1B47
:100DD0009DED080B53EC102B13F088F894ED180BD5
:100DE00041EC1D0B53EC102B51EC180B13F07EF85B
:100DF00053EC1D2B13F086FA9DED0A1B53EC112BBF
:100E000012F068FD9DED0C1B53EC112B13F07AFAD8
:100E10009DED0E1B53EC112B12F05CFD9DED101B94
:100E200053EC112B13F06EFA9FEDCB1B53EC112BEF
:100E300013F05CF89DED020B41EC1D0B53EC102BF5
:100E400051EC1C0B13F052F841EC110B51EC180B48
:100E50008DED021B94ED220B53EC102B13F046F892
:100E600041EC110B51EC1C0B8DED0A1B9DED060B9B
:100E700053EC102B13F03AF841EC110B51EC180B1A
:100E80008DED0C1B94ED200B53EC102B13F02EF872
:100E900041EC110B51EC1C0B8DED061B9DED080B6D
:100EA00053EC102B13F022F894ED1E0B41EC1C0BAD
:100EB00053EC102B51EC180B13F018F853EC1C2BBF
:100EC00013F020FA9DED061B53EC112B12F002FDDE
:100ED0009DED0C1B53EC112B13F014FA9DED0A1B26
:100EE00053EC112B12F0F6FC9DED021B53EC112B71
:100EF00013F008FA9FED981B53EC112B12F0F6FF3C
:100F00009DED040B41EC180B53EC102B51EC1F0B17
:100F100012F0ECFF10919DED001B824653EC112B5B
:100F200012F0E4FF41EC110B53EC192B8DED0A1B71
:100F300051EC1F0B12F0DAFF53EC192B12F0D6FF15
:100F400041EC110B53EC1A2B8DED081B9DED040B9E
:100F500051EC100B12F0CAFF814653EC1A2B119181
:100F600012F0C4FF41EC110B8DED061B9FED7C0BC5
:100F700051EC1B0B53EC102B12F0B8FF53EC1A2B57
:100F800012F0B4FF53EC192B12F0B0FF9DED001BD3
:100F900041EC1C0B53EC1B2B51EC110B12F0A6FF78
:100FA000074653EC1B2B029112F0A0FF53EC1C2BB5
:100FB00013F0A8F99DED061B53EC112B12F08AFCDF
:100FC0009DED081B53EC112B12F084FC9DED0A1BC8
:100FD00053EC112B13F096F941EC1C0B9FED620BB7
:100FE00053EC102B12F082FE7DD053EC192B51ECF8
:100FF0001B0B12F07BFF53EC182B12F077FF41EC28
:10100000110B53EC1D2B8DED0E1B029941EC107B47
:1010100051EC100B12F06AFF41EC110B8DED0C1B23
:101020009DED000B53EC102B9DED040B51EC100BC0
:1010300012F05CFF53EC1E2B12F058FF41EC110B29
:1010400053EC192B8DED081B51EC190B12F04EFFD0
:1010500053EC1E2B12F04AFF41EC110B53EC1D2BED
:101060008DED0A1B51EC190B12F040FF41EC110BF6
:1010700053EC182B8DED061B9DED040B51EC100B62
:1010800012F034FF9DED061B53EC112B13F03AF9CF
:1010900053EC1A2B12F02AFF9DED0A1B53EC112B77
:1010A00012F018FC9DED081B53EC112B13F02AF9DC
:1010B0009DED0C1B53EC112B12F00CFC9DED0E1B47
:1010C00053EC112B13F01EF941EC100B53EC1A2BBF
:1010D0008DED060B51EC1B0B12F008FF88460646FF
:1010E00048EC100B00E065E153EC182B51EC100BB1
:1010F00012F0FCFE41EC110B53EC1E2B8DED041B8A
:10110000029941EC107B51EC100B12F0EFFE41EC18
:10111000110B51EC1F0B8DED021B9DED000B53ECE1
:10112000102B12F0E3FE53EC1D2B12F0DFFE41EC0E
:10113000110B53EC1A2B8DED081B51EC1A0B12F00E
:10114000D5FE53EC1D2B12F0D1FE41EC110B53ECEC
:101150001E2B8DED001B0BE0000000000000E03FA7
:10116000000000000000004000000000000000003F
:1011700051EC1A0B12F0BAFE41EC1A0B53EC182B7F
:1011800051EC1F0B12F0B2FE53EC1A2B13F0BAF80D
:1011900053EC192B12F0AAFE9DED001B53EC112B02
:1011A00012F098FB9DED081B53EC112B13F0AAF8DD
:1011B0009DED021B53EC112B12F08CFB9DED041BDB
:1011C00053EC112B13F09EF841EC100B53EC1D2B3C
:1011D0008DED040B48EC106B51EC100B12F086FEF9
:1011E00041EC110B53EC1E2B8DED001B119941ECC2
:1011F000109B51EC100B12F079FE41EC110B53ECEB
:10120000182B8DED021B109941EC10AB51EC100B1B
:1012100012F06CFE41EC1A0B53EC1B2B51EC1B0B28
:1012200012F064FE53EC182B12F060FE41EC180B28
:1012300053EC1E2B51EC1B0B12F058FE41EC1B0B18
:1012400053EC1D2B51EC1F0B12F050FE53EC1B2BDB
:1012500013F058F853EC192B12F048FE53EC182BEE
:1012600012F038FB53EC1A2B13F04CF89DED021BD7
:1012700053EC112B12F02EFB9DED001B53EC112BA8
:1012800013F040F89DED060B41EC190B53EC1C2BB1
:1012900051EC100B12F0D2FB41EC180B53EC1C2B51
:1012A00085ED008B9DED040B51EC100B12F0C6FB8D
:1012B00041EC1A0B53EC1C2B85ED02AB51EC190BD6
:1012C00012F0BCFB41EC190B85ED049B94ED100B67
:1012D00053EC102B12F00AFE94ED0E0B41EC1B0B9D
:1012E00053EC102B51EC1A0B12F000FE94ED0C0B8A
:1012F00041EC1C0B53EC102B51EC180B12F0F6FDCB
:1013000053EC1C2B12F0E6FA53EC1B2B12F0E2FA12
:101310001FED6D1B53EC112B12F0E8FD94ED061B35
:1013200094ED000B41EC1B0B53EC112B51EC100B0B
:1013300012F0D0FA94ED0A1B53EC112B12F0CAFAFA
:1013400053EC1B2B12F0DEFF94ED301B53EC112BF2
:1013500012F074FB41EC1B0B53EC192B51EC190BE5
:1013600012F0C4FD41EC190B53EC1A2B51EC1A0B83
:1013700012F0BCFD41EC1A0B53EC182B51EC180B7E
:1013800012F0B4FD53EC1A2B12F0A4FA53EC192B03
:1013900012F0A0FA53EC1B2B12F09CFA41EC100B4C
:1013A0000CF06CF98BED000B012013B0BDEC108B31
:1013B000BDE8F08F0020F8E72DE9F04F0D462DED48
:1013C000108B04468BB091ED00AB53EC1A2B51EC13
:1013D0001A0B12F08BFD94ED0CCB53EC1C2B12F07E
:1013E00085FD53EC1C2B12F081FD94ED30FB41EC9C
:1013F000180B53EC1A2B51EC1F0B12F077FD8B4698
:101400004BEC100B074653EC1A2B51EC100B12F05F
:101410006DFD94ED00EB53EC1E2B12F067FD53ECC9
:10142000182B12F06FFF41EC190B53EC1E2B51ECF3
:101430001A0B12F05BFD53EC1C2B12F057FD4BEC1A
:10144000107B94ED121B41EC180B53EC112B51EC5B
:10145000100B12F04BFD53EC192B12F07BFE53ECEA
:10146000182B12F037FA41EC1B0B1FEDC30B51EC9C
:101470001A0B53EC102B12F039FD894649EC100B76
:1014800095ED029B064653EC192B51EC100B12F014
:101490002DFD53EC1C2B12F029FD94ED0EDB53ECCB
:1014A0001D2B12F023FD41EC180B1FEDD30B51EC5B
:1014B0001F0B53EC102B12F019FD824653EC1A2B24
:1014C000069112F013FD53EC192B12F00FFD94ED61
:1014D000021B53EC112B12F009FD53EC1B2B12F0E5
:1014E000F9F953EC182B12F00DFF41EC180B53ECEB
:1014F0001C2B51EC1A0B12F0F9FC049194ED06BB75
:10150000804653EC1B2B12F0F1FC41EC110B4BEC21
:10151000107B8DED001B94ED141B51EC100B53EC64
:10152000112B12F0E3FC53EC182B12F013FE9DED7F
:10153000001B53EC112B12F0CDF941EC110B49ECCF
:10154000106B8DED001B95ED048B51EC100B53ECE3
:10155000182B12F0CBFC53EC1C2B12F0C7FC94EDB3
:1015600010CB53EC1C2B12F0C1FC41EC110B53ECD3
:101570001A2B8DED021B069941EC10AB51EC100BB0
:1015800012F0B4FC53EC182B12F0B0FC94ED041BD9
:1015900053EC112B12F0AAFC9DED001B53EC112B08
:1015A00012F098F99DED021B53EC112B12F0AAFEDC
:1015B00041EC100B8DED000B049994ED0AAB41EC5E
:1015C000108B53EC1A2B51EC100B12F08FFC41ECEA
:1015D000110B4BEC107B8DED021B94ED161B51ECA7
:1015E000100B53EC112B12F081FC9DED001B53EC02
:1015F000112B12F0AFFD9DED021B53EC112B12F0DD
:1016000069F941EC110B8DED001B9FEDFE0B51ECC8
:101610001E0B53EC102B12F069FC53EC1E2B12F036
:1016200065FC41EC110B8DED021B9FEDF60B51ECAF
:101630001F0B53EC102B12F059FC059194ED241B59
:10164000814653EC112B12F051FC9DED001B53EC25
:10165000112B12F03FF99DED021B53EC112B12F0F0
:1016600051FE41EC110B53EC1E2B8DED001B51EC88
:10167000190B12F03BFC53EC1D2B12F037FC41EC24
:10168000110B53EC192B8DED081B51EC1F0B12F0B5
:101690002DFC039194ED181B064653EC112B12F010
:1016A00025FC9DED001B53EC112B12F053FD9DED1D
:1016B000081B53EC112B12F00DF941EC110B8DEDC1
:1016C000001B9FEDD20B51EC1E0B53EC102B12F0B4
:1016D0000DFC8B464BEC100B054653EC1B2B51ECD1
:1016E000100B12F003FC41EC110B8DED081B9FED6C
:1016F000C70B51EC1F0B53EC102B12F0F7FB0491AE
:1017000094ED2A1B804653EC112B12F0EFFB9DED5C
:10171000001B53EC112B12F0DDF89DED081B53EC70
:10172000112B12F0EFFD41EC110B53EC1E2B8DED44
:10173000001B51EC180B12F0D9FB53EC1C2B12F0D0
:10174000D5FB41EC1E0B53EC182B51EC1F0B12F088
:10175000CDFB029194ED1E1B074653EC112B12F0AA
:10176000C5FB9DED001B53EC112B12F0F3FC53EC69
:101770001E2B12F0AFF84BEC105B41EC1F0B53EC3F
:101780001A2B51EC100B12F0B1FB41EC1E0B04991B
:1017900094ED2C1B41EC108B53EC112B51EC100BE6
:1017A00012F0A4FB53EC1F2B12F094F853EC1E2BF9
:1017B00012F0A8FD41EC1F0B53EC192B51EC190B47
:1017C00012F094FB53EC1D2B12F090FB53EC1D2BED
:1017D00012F08CFB41EC1E0B039953EC192B41ECDE
:1017E000106B51EC100B12F081FB53EC1B2B12F021
:1017F0007DFB53EC1F2B12F06DF853EC1E2B12F0F7
:1018000081FD41EC1F0B53EC1B2B51EC190B12F01B
:101810006DFB53EC1D2B12F069FB41EC1E0B039981
:1018200094ED1A1B41EC106B53EC112B51EC100B87
:1018300012F05CFB53EC1F2B12F08CFC53EC1E2BB4
:1018400012F048F841EC1F0B9FED720B51EC190B95
:1018500053EC102B12F04AFB53EC182B12F046FB02
:1018600053EC1D2B12F042FB53EC1C2B12F03EFBF1
:1018700041EC1E0B069953EC192B41EC10AB51ECCB
:10188000100B12F033FB53EC182B12F02FFB94EDDE
:10189000081B53EC112B12F029FB53EC1F2B12F0F9
:1018A00019F853EC1E2B12F02DFD41EC1E0B53ECDE
:1018B0001D2B51EC190B12F019FB53EC1A2B12F0E3
:1018C00015FB41EC190B039994ED1C1B41EC106BBB
:1018D00053EC112B51EC100B12F008FB53EC1E2BA8
:1018E00012F038FC53EC192B11F0F4FF41EC1D0BF6
:1018F0009FED44EB51EC1B0B53EC1E2B12F0F6FA50
:1019000053EC1B2B12F0F2FA41EC190B059994EDF4
:10191000261B41EC109B53EC112B51EC100B12F0D9
:10192000E5FA53EC1D2B11F0D5FF53EC192B12F0F7
:10193000E9FC41EC1D0B53EC1B2B51EC180B12F086
:10194000D5FA53EC1C2B12F0D1FA41EC190B029989
:1019500094ED201B41EC107B53EC112B51EC100B40
:1019600012F0C4FA53EC1D2B12F0F4FB53EC192BBC
:1019700011F0B0FF9FED250B41EC190B53EC102B30
:1019800051EC1B0B12F0B2FA53EC1A2B12F0AEFA18
:1019900041EC1B0B049994ED2E1B41EC108B53EC86
:1019A000112B51EC100B12F0A1FA53EC192B11F082
:1019B00091FF53EC1B2B12F0A5FC41EC1B0B53ECDD
:1019C000182B51EC180B12F091FA53EC1C2B12F05F
:1019D0008DFA53EC1C2B12F089FA41EC190B029989
:1019E00053EC182B41EC107B51EC100B12F07EFAEB
:1019F00053EC1A2B12F07AFA53EC1B2B11F06AFFFE
:101A00000CE00000000000000000D03F00000000DB
:101A10000000E03F000000000000004053EC192BE4
:101A200012F070FC41EC190B53EC1A2B51EC180B13
:101A300012F05CFA53EC1C2B12F058FA41EC180B24
:101A4000029994ED221B41EC107B53EC112B51ECCD
:101A5000100B12F04BFA53EC192B12F07BFB53ECEA
:101A6000182B11F037FF41EC180B53EC1E2B51ECE7
:101A70001A0B12F03BFA53EC1A2B12F037FA41EC26
:101A8000190B059994ED281B41EC109B53EC112B7D
:101A900051EC100B12F02AFA53EC182B11F01AFF2C
:101AA00053EC192B12F02EFC41EC100B0BB07DE423
:101AB00030B50446B0F88C0089B000040690B4F844
:101AC0008E000D4600040790B4F89000883400049E
:101AD000089002A80EF03CFA029906982B46401A8C
:101AE00006900399079806AA401A07900499089847
:101AF000401A08902088616A80B20EF0D5F809B0CB
:101B000030BDF0B50D462DED048B87B06946FFF76B
:101B1000CFFF9FEDFE8B00246F469FEDFE9A03AE34
:101B200057F8240000EE100A06EB8400B8EEC00A55
:101B300020EE090A80ED000A20EE000A10EE100ADD
:101B400012F0CAFC53EC182B11F0C4FE41EC180B38
:101B5000641C032CE4DBB0EE480AF0EE680A0BF0DC
:101B60008DFDB0EE408AF0EE608A002456F8240025
:101B700012F0B2FC53EC182B11F060FF11F078FE5C
:101B800000EE100A05EB8400641CD0ED000A032C63
:101B900030EE200A80ED000AE8DB686D401C6865C5
:101BA0000EF040FCE86707B0BDEC048BF0BD2DE9FA
:101BB000F04104460EF068FA40BB0EF0F5F9042837
:101BC00024D0D54920460E46FFF79BFFD34DD5E9DB
:101BD0005C01814205DB304603F0E5FB0020C5F8DF
:101BE0007401208E4FF00406C00515D504F11800CD
:101BF0000EF03EFA8009B0F5C87F0AD2D5F8B800D9
:101C0000002850DD401EC5F8B8004AE00120BDE8BC
:101C1000F081C5F8B86044E0D4F8A010D5F81401FC
:101C2000081A01D4034600E04342BB4A4FF4A02CFB
:101C3000583A634505DDD4E929035365C2E9131019
:101C40002FE00312D4F8A470D5F818015B43381ABA
:101C500001D4864601E0C0F1000EE64505DDD4F86A
:101C6000A800D164C2E914701BE0001200FB00332D
:101C7000D4F8A800D5F81C11401A01D4014600E0A0
:101C8000414261450DDC001200FB0030B0F5403FE1
:101C9000B4DBA034C5F8B86094E80B004C3282E89D
:101CA0000B000020B3E70220B1E72DE9F04F9B4C79
:101CB0002DED028B93B0D4F8A81090ED000B04EB3F
:101CC000C10181ED000BD4F8A810491CC4F8A8107C
:101CD00090ED020B04EBC10181ED000BD4F8A810CC
:101CE000491CC4F8A81090ED040B04EBC10080ED72
:101CF000000BD4F8A800401CC4F8A800152802DB8B
:101D00000020C4F8A800182284490CA804F0B3F8F5
:101D10001822824904A804F0AEF801260DF1300A19
:101D20000DF1100BA146002406EB460808EB040158
:101D300009EBC1050AEBC40795ED001B97ED000BFD
:101D400053EC112B51EC100B12F0CEF903D295EDA0
:101D5000000B87ED000B0BEBC40795ED001B97ED17
:101D6000000B53EC112B51EC100B12F083F803D243
:101D700095ED000B87ED000B641C032CD6DB761C65
:101D8000072ED0DB9DED0C1B9DED040B53EC112BAE
:101D900051EC100B12F0B6FA9DED0E1B9DED060BEB
:101DA00041EC180B53EC112B51EC100B12F0AAFA6A
:101DB00053EC182B12F05EF80BD39DED0E1B9DED2E
:101DC000060B53EC112B51EC100B12F09BFA41EC6B
:101DD000180B9DED101B9DED080B53EC112B51ECD6
:101DE000100B12F08FFA53EC182B12F043F80BD3B0
:101DF0009DED101B9DED080B53EC112B51EC100BBE
:101E000012F080FA41EC180B13B0B0EE480AF0EE75
:101E1000680ABDEC028BBDE8F08F10B504462DEDCD
:101E2000068B9CB0002155200E91CDE90F1011902A
:101E30009FED3B8B0AA80EF059F812A90AA80EF0E4
:101E4000CFFB16AA0EA912A80EF0EDFB6A460AA94E
:101E500016A80EF0E8FB0198B2EE059A00F5967010
:101E600001900298B0EE490A00F59670029003982E
:101E700000F596700390FEF78BFBBDEEC00A01994A
:101E800010EE100AB0EE490A08440190FEF780FBFC
:101E9000BDEEC00A029810EE101AB0EE490A0844CE
:101EA0000290FEF775FBBDEEC00A039910EE100A12
:101EB00008440390204601A9FEF77DFC94ED300B09
:101EC0009FED191B51EC100B53EC112B12F00CF978
:101ED0005DD21AAA04A92046FEF73FFE60B39DED2D
:101EE000080B9FED138B51EC100B53EC182B12F0D9
:101EF00009FA41EC100B53EC102B11F0F7FF41ECF9
:101F0000190B9DED060B53EC182B16E0000000009A
:101F10000000000000008037C0290020A028002019
:101F20000000000000408F4000000000000034402E
:101F30000000000000C0724029E051EC100B12F0CC
:101F4000E1F941EC100B53EC102B11F0CFFF9DED9C
:101F5000040B41EC1A0B53EC182B51EC100B12F044
:101F6000D1F941EC100B53EC102B11F0BFFF53ECE7
:101F70001A2B11F0AFFC53EC192B11F0ABFC41EC18
:101F8000100B0BF07BFBB0EE408AF0EE608A9FED09
:101F9000FD0B51EC180B53EC102B11F04FFD1CB046
:101FA00041EC100BBDEC068B10BD10B5E821F748D5
:101FB00003F0FAFFF648F74920F8BC1F4A0CC2802C
:101FC000C181828281834284F048E821E83003F0B5
:101FD000EBFFEF490020C1F8B40010BD2DE9F0433C
:101FE000EB4D04462DED108BC3B0006BC5F8A0017E
:101FF0002046FFF7DCFD00287ED1D5F8941105F1CD
:10200000BC08012911D1B4F98C003D90B4F98E00BF
:102010003E90B4F990003F903DA9DC48FEF7CBFB21
:1020200004F18C01404600F0A4FB1FED48DB9FED5E
:10203000DABB9FEDDBCB9FEDDCAB9FEDDDEBD34E51
:10204000D5F80801E83E002802DD401EC5F8080169
:1020500096ED300B53EC1D2B51EC100B12F044F8A5
:102060007DD2CA49E822E839684603F004FFC74830
:102070003DA9E838FEF79FFBC44940AA20390F4626
:10208000A1F1C800FEF769FD00287BD0BF483946A2
:10209000E838FFF791F9B0EE408AF0EE608A95EDEE
:1020A000400B51EC180B53EC102B12F02BF996ED62
:1020B000300B41EC190B53EC1B2B51EC100B12F0B5
:1020C00021F941EC100B51EC190B53EC102B11F0D2
:1020D000B5FC41EC100B0BF0D1FA96ED30FBB0EEF5
:1020E000409AF0EE609A53EC1B2B51EC1F0B12F050
:1020F00009F953EC1F2B00E0E9E011F0F7FE41EC89
:102100001F0B53EC1C2B51EC180B11F0EFFE53EC92
:102110001F2B11F093FC41EC100B0BF0AFFAD5F82C
:10212000E80012F0D9F995ED381B53EC112B11F0A2
:10213000DDFE53EC192B11F09DFE03D3D5F80801F9
:10214000002826DD9148E8226946E83803F093FE2E
:10215000D5F8E80012F0C0F995ED381B01E010E069
:1021600010E053EC112B11F0C1FE53EC192B11F0C0
:1021700081FE5CD24FF4FA7001F03CFE0A20C5F8F3
:10218000080154E08148E8226946E83803F073FE0C
:102190004DE0D5F89801012849D1D5F8B400401C8C
:1021A000C5F8B40000200EF0F1FD96ED320B53ECB3
:1021B0001A2B51EC100B11F099FE11F0D3FD3A904F
:1021C00096ED340B53EC1A2B51EC100B11F08EFEE4
:1021D00011F0C8FD3B9096ED360B53EC1A2B51ECE9
:1021E000100B11F083FE11F0BDFD3C9003213AA8C5
:1021F0000EF03EFD96ED300B53EC1E2B51EC100B08
:1022000011F072FF11D29FED6C0A6049E839F0EECF
:10221000400A0846FEF7FFF95C483946E838FFF700
:10222000CBF8B0EE408AF0EE608A85ED408B208ED0
:10223000564FC0050CD5B4F87400C00508D507F199
:10224000E800FFF7EAFDB0EE408AF0EE608A01E0B8
:102250009FED4C8B97ED300B1FEDCD1B51EC100B10
:1022600053EC112B11F006FE31D3484940AAC83176
:1022700089464648FEF771FC00287CD0D4F8AC00B3
:1022800011F0CDFD41EC100B53EC102B9FED4B0BDF
:1022900051EC100B11F0D2FB41EC1F0B4846FFF73D
:1022A00004FDB0EE409AF0EE609A53EC1F2B51EC17
:1022B000190B11F019FF0BD29FED420B51EC180BCB
:1022C00053EC102B11F0D6FD02D2FFF76EFEDBE1CE
:1022D00053EC1F2B51EC190B11F0CCFD51D251ECEA
:1022E000180B9FED3A9B53EC192B11F0C3FDF5D25F
:1022F00097ED300B9FED371B51EC100B53EC112B6E
:1023000011F0F2FEEAD296ED300B53EC1D2B51EC9E
:10231000100B11F0EBFC7CD149461C48FFF74CF840
:10232000B0EE408AF0EE608A85ED408B97ED309BF1
:1023300053EC1B2B51EC190B11F0E4FF53EC192B50
:1023400011F0D4FD41EC190B53EC1C2B51EC180B84
:1023500011F0CCFD53EC192B11F070FB41EC100B7C
:102360000BF08CF9B0EE408AF0EE608AD5F8E80008
:1023700012F0B2F800E088E195ED381B53EC112B18
:102380002CE078E10000000000000840D02600208A
:10239000A02800200080FFFF000000000000F03FA8
:1023A0000000000000000040000000000000F040BD
:1023B0000000000000409F406666E63E9A999999A9
:1023C0009999A941000000000000F83F00000000BA
:1023D000000010400000000000003E4011F086FDAB
:1023E00053EC182B11F046FDFFF46FAF9DED400B41
:1023F00049464046FDF7C4FF02283FF466AF002877
:102400007ED1D5F898010128FAD100200EF0BEFC4B
:1024100000E02FE097ED320B53EC1A2B51EC100B30
:1024200011F064FD11F09EFC3A9097ED340B53ECE3
:102430001A2B51EC100B11F059FD11F093FC3B904D
:1024400097ED360B53EC1A2B51EC100B11F04EFD9F
:1024500011F088FC3C9003213AA80EF009FC012001
:102460000EF032FC192000900190029068460EF0A8
:1024700023FCF6E0D5F8B40011F0D1FC97ED301B49
:1024800053EC112B11F0DAFA9FEDE71B53EC112BF3
:1024900011F02AFEA8D34946E548FEF78DFF97EDD7
:1024A00030DBB0EE408AF0EE608A53EC1B2B51EC2F
:1024B0001D0B11F027FF53EC1D2B11F017FD41EC04
:1024C0001B0B53EC1C2B51EC180B11F00FFD53ECB4
:1024D0001B2B11F0B3FA41EC100B0BF0CFF8B0EE60
:1024E00040BAF0EE60BAD5F8E80011F0F5FF95EDCE
:1024F000381B53EC112B11F0F9FC53EC1B2B00E0B3
:1025000087E011F0B7FCC5D39DED400B494640462E
:10251000FDF736FF00287CD196ED361B97ED360B84
:1025200053EC112B51EC100B11F0ECFE41EC100BA5
:1025300053EC102B11F0DAFC96ED341B97ED340BB5
:1025400041EC1B0B53EC112B51EC100B11F0DAFE8C
:1025500041EC100B53EC102B11F0C8FC96ED321B24
:1025600097ED320B41EC1C0B53EC112B51EC100B83
:1025700011F0C8FE41EC100B53EC102B11F0B6FC1F
:1025800053EC1C2B11F0A6F953EC1B2B11F0A2F904
:1025900041EC100B0BF072F8B0EE40BAF0EE60BAFE
:1025A000D4F8AC0011F03BFC53EC1B2B11F09EFC5B
:1025B0009FEDA01B53EC112B11F098FC41EC1B0B71
:1025C00053EC192B11F090FD1AD39FED9C0B51EC9D
:1025D0001B0B53EC102B11F087FDBFF476AED5F832
:1025E000B40011F01CFC97ED301B53EC112B11F0D3
:1025F00025FA9FED941B53EC112B11F03BFCECD210
:10260000D5F8980101287FF460AE00200EF0BEFBE3
:1026100000E039E085ED408B97ED320B53EC1A2B3F
:1026200051EC100B11F062FC11F09CFB3A9097ED0D
:10263000340B53EC1A2B51EC100B11F057FC11F02A
:1026400091FB3B9097ED360B53EC1A2B51EC100B92
:1026500011F04CFC11F086FB3C9003213AA80EF0DF
:1026600007FBF7EE000A9FED790A7149A1F1E80036
:10267000FDF7D1FF29E697ED300B53EC1E2B51EC03
:10268000100B11F031FDF5D3002043B0BDEC108BE1
:10269000BDE8F08370B56E4C0546D4F80C0110B956
:1026A000284600F091F8D5F8B01044F62060814239
:1026B0000ADAD4F8102111448142C4F810114FF005
:1026C000000005DBC4F810012846BDE8704085E431
:1026D00070BD04224FF4C871AFF247000EF08CB900
:1026E000AFF24F000EF046BC514810B5E821E83873
:1026F00003F05AFCFFF759FC4FF4D471544803F02F
:1027000053FC534CB7EE000A04F5907084ED3A0A7E
:1027100002F095FD0A20C4F87001B2EE000A84EDC3
:10272000570A1E209FED4B0AC4F87C0184ED620A13
:102730009FED490A84ED610A9FED480A002084ED6F
:10274000630A10BD10B5FFF7CFFF002805D1AFF227
:102750007D00BDE810400EF0D7B910BD10B5AFF246
:10276000CB000EF007FCAFF29500BDE810400EF074
:1027700027BC30B50022C2EBC20331F9124030F958
:102780001350AC420ADD02EB42040D8820F82450BD
:1027900000EB84044D8865808D88A58000EB4303A1
:1027A00031F91240B3F906309C4209DA02EB4203D8
:1027B00000EB83030C88DC804C881C818C885C8156
:1027C000521C032AD7DB30BD70B5214DD0F8AC20A8
:1027D0000446EAB1D3170020192103F0FEF845F8AA
:1027E000AC0F54F8AC2F0020D317052103F0F5F8F7
:1027F000686022680020D317962103F0EEF811F0EC
:102800000EFBC5E90D01AC3D0120C5F80C0170BD02
:102810006FF00040C5F8AC009FED110BC5F8B0009B
:1028200085ED380BF0E700000AD7A3703D0AE73FBB
:10283000D0260020000000000000103E0000000034
:1028400000000440333333333333C33F0000000010
:10285000A0280020CDCCCC3E3333333F9A99193F8A
:102860000000C0FFFFFFDF4110B5FF49C4074FF074
:1028700040434FF0804205D08B66CB66C1E91C32E5
:102880008A67CA67840709D5C1F80031C1F80431E5
:10289000C1E94232C1F81021C1F81421400709D51D
:1028A000C1F89831C1F89C31C1E96832C1F8A8215A
:1028B000C1F8AC2110BD2DE9F14F002082B0824655
:1028C00081460298806F00287ED000220020401CA4
:1028D0000428FCDB029800EBC203D3E90010A1FB43
:1028E0000167D3E9065400FB017701FB0077AB4693
:1028F000AD1BCDE900670326A5FB06C8A64664EB21
:10290000070404FB0684002705FB0745DDE9006793
:102910001CEB06047D41A4FB016705FB017504FB6C
:102920000055D3E90C47341B65EB0705CDE900459D
:102930005D46A5FB05670324A6FB04580EFB0B7739
:102940000BFB0E7707FB04844FF0000C06FB0C44D6
:10295000D3E91263761B63EB04034C18A4FB017CE0
:1029600040EB000505FB01C504FB0055A7FB014C2E
:1029700005FB01C507FB0055A4FB017C05FB01C558
:1029800004FB0054F6196341DDE90045AD0045EA5A
:102990009475A400A4FB017C05FB01C104FB001499
:1029A000F01B73EB040103D50023404263EB0101EC
:1029B000BAEB000479EB010301DA82468946521C26
:1029C000032A83DB504600E016E0494611F0B2FDD1
:1029D00000EE900AA54890ED0E1A80EE810A10EEE6
:1029E000100A11F025FEA04AD2F80C2203B0920082
:1029F000BDE8F04F02F0DEBF002003B00146BDE8A5
:102A0000F08F2DE9F14F0020009A0146926FE2B35A
:102A100000240022521C042AFCDB009A02EBC405AD
:102A2000AA46D5E90029A2FB023CD5E906769E46D6
:102A3000FB1A0325A3FB057809FB02CC02FB09CB9B
:102A400066EB0B0606FB05854FF0000C03FB0C56EE
:102A500017EB0E03A3FB027C46EB0B0606FB02C240
:102A600003FB0923DAE90C25BA1AAB4103D500258B
:102A7000524265EB0303851A71EB030501DA104638
:102A80001946641C032CC4DB00E015E011F052FD74
:102A900000EE900A754890ED0E1A80EE810A10EE55
:102AA000100A11F0C5FD704AD2F80C22BDE8F84FAB
:102AB00002EB420202F07EBF00200146BDE8F88F23
:102AC0002DE9FE43684D80460024D5F810626F461C
:102AD00005EBC4013246D1E9020102F058FF05EBD3
:102AE0008401B1F884100904401847F8240004F167
:102AF0000104032CECDB5C489821083003F054FA05
:102B00000120FFF7B1FE95F8E8010199042807D1EB
:102B1000D5F81802B0F5201F02DD052085F8E80180
:102B2000524C0098636AC11A01D40E4600E01E1A86
:102B30000198A26A801A01D4074601E0019FD71BC1
:102B4000BE4206DD002901D4084606E00098181AA6
:102B500003E0002801D50198101A029AE16A521A7E
:102B600001D4134601E0029BCB1A834205DB002A05
:102B700001D4104601E00298081AD8F824100DF08C
:102B8000F6FCD5F81812814206DD032168460EF0E6
:102B900043F902200EF092F9009860620198A06259
:102BA0000298E062BDE8FE83304AC2E90201704744
:102BB0002E4AC2E9060170472C4AC2E90401704757
:102BC000294AD2F8E0310360D2E97402C1E9000277
:102BD0007047254AD2F8E0310360D2E97602C1E9B4
:102BE000000270472DE9FE4781460020EA468A6FC1
:102BF00022B901EB800339F91020DA6701EB80027A
:102C000039F91030D46F1D1B4AF82050136E9D42C5
:102C100000DD1566D36E9D4200DAD56601230024DF
:102C200022464FEAE578A3FB056704FB057403FB26
:102C30000844334602EB420601EBC60606EBC00C25
:102C4000DCE90076FF186641CCE90076521C042AC4
:102C5000E9DB401C0328CADB886F401C8867012021
:102C6000C1F89000BDE8FE87482A0020A82C00206B
:102C700030B5002302EB830550F823405B1CEC6663
:102C8000032BF7DBC2F88810916F79B1002102EBBA
:102C9000810450F82130E56F5B1B00D55B42256E47
:102CA0009D4200DA2366491C0329F0DB906F401C2B
:102CB00090670120C2F8900030BD10B500210B468E
:102CC00000EB8102491CD46ED46713660329F7DB3D
:102CD000D0F8881040F8783FC0E9051310BDD0E95E
:102CE0002210081A70470146D1E91802824200DB1F
:102CF0001046896E814200DB084670472DE9F04797
:102D00008046501E012686408946C2F12007404673
:102D100002F050FE04460D46404649463A4602F04F
:102D200036FE3A4602F046FEB04203DD641C45F131
:102D3000000505E07142884202DA641E45F1FF3564
:102D400020462946BDE8F087F7490020086248621E
:102D50008862C862086448648864C8640863486319
:102D60008863C863086548658865C865704730B57D
:102D7000EE4AD2F8483223B1D2E990542D1A8C4150
:102D800001DAC2E990015B1CC2F8483230BD30B5AF
:102D9000E64AD2F8583223B1D2E994542D1A8C4124
:102DA00001DAC2E994015B1CC2F8583230BD30B57B
:102DB000DE4AD2F828322BB1D2E98845041B71EBE8
:102DC000050401DAC2E988015B1CC2F8283230BD73
:102DD00030B5D64AD2F838322BB1D2E98C45041B33
:102DE00071EB050401DAC2E98C015B1CC2F83832D0
:102DF00030BD2DE9F0470246CC4801250830804619
:102E0000C36E016E046FC91A436E1B1B8B4200DB3D
:102E10001946836ED8F87400181A884200DB014600
:102E2000C14F6037F86B884204DA002400F010FAD2
:102E3000204687E7108E0124BC4EC0054FF00001EC
:102E40000ED5D6F880303068834209DBB2F87420A2
:102E5000D20506D5D6F8B021824201DB052400E078
:102E60000C4674B3600719D5AF48C8388146FFF7E0
:102E700022FD000D40EA01300915C6E97601D7E9C7
:102E800004321B1A8A4102DA0025FFF7A1FF9821BC
:102E9000484603F089F80420FFF7E6FCE0070ED06F
:102EA0004046FFF708FDC6E97C01D7E90634024633
:102EB000181A8C4103DA00251046FFF778FF2846E0
:102EC00040E7FFE702203DE71EB5044690F83000DA
:102ED000C0F38110032804D19449201D0831FFF765
:102EE00081FE94F87400C0F38110032805D18E4947
:102EF00004F14800C839FFF775FED4F8B8008B4AD2
:102F0000C0F38113A0326946032B0FD0C0F34110E8
:102F100003281AD1002004EB8003D3F8A0309B13C0
:102F200041F82030401C0328F5DB09E0002004EBC9
:102F30004003B3F98C3041F82030401C0328F6DB05
:102F40006846D4F8C010FFF793FE1EBD2DE9F04788
:102F500005460020296BCA056AD501F050014029B9
:102F600000D1012095F8741001F05001402900D1E2
:102F7000012095F8B8106D4C01F05001402900D0A7
:102F800030B100F065F90020C4F8E00184F8E801F0
:102F9000654ED4F80812E86A6036814228D0C4F839
:102FA00008020A28306B0CDA40002060716B00EEDA
:102FB000100A491CC4F80C12B8EEC00A0AF09BFBB8
:102FC00005E02060706BC4F80C0296ED0E0A84EDEB
:102FD000850AD4F80C02C0F11000C4F810024FF4B6
:102FE0008040C4F8180296F8341019208840F06325
:102FF0002846FFF769FF94F8E811DFF830910527BC
:103000004FF0020809F1A009072911D2DFE801F009
:10301000041127305E7E8500D4F8E001411CC4F81D
:10302000E0110A2804DB00F013F9012084F8E8011C
:1030300086E0D4F89800012810D12846FFF7D9FE81
:1030400010B1012803D004E084F8E87101E084F8AD
:10305000E8814846FFF731FEFFF776FE70E0032077
:1030600084F8E8012846FFF72BFD00F0F1F867E04F
:103070002846FFF7BEFEE8B3012861D1B5F8B800D5
:103080004FF00403C00515D54846FFF72CFE014656
:10309000C017C4E97410D6E902C2BCEB0101824139
:1030A00002DA84F8E87108E04846FFF718FE316A52
:1030B000884202D384F8E83124E0F4E97601FFF78E
:1030C00066FED4E90601FFF752FE39E0B5F8B80014
:1030D000C0050BD54846FFF706FE0146C017C4E9F8
:1030E0007410D6E90232591A824108DB2846FFF7EC
:1030F00080FE00E003E010B1012803D020E084F856
:10310000E8711DE02846FFF7DBFCD6E7062084F8CF
:10311000E80101200DF0D2FE0DE02846FFF769FE20
:10312000012805D038B10BE0482C0020482A0020A7
:1031300084F8E88104E000F08BF84846FFF7BDFD15
:103140000020FFE510B500214010002802D001F159
:103150000101F9DC4FF0010001F1010100FA01F079
:10316000434C00EE100AC4E90C01B8EEC00A0AF0A4
:10317000C2FA84ED0E0A94F8341019208840E063F6
:1031800010BD10B54FF418713A4802F00DFF402100
:10319000374802F009FF0720FFF766FB344840F28A
:1031A000DC510022C0E906121421C0E902124FF4DA
:1031B0001671C0E9041230492E4C01620120C4F896
:1031C000E4011920FFF7BEFF0020C4F8080210BD7B
:1031D00010B54FF41871274802F0E6FE0720FFF7FC
:1031E00043FB244801210022C0F8E41180F8E811D3
:1031F000032101200DF058FE07226421AFF2B32015
:10320000BDE810400DF0F8BB10B501200DF056FEE2
:10321000AFF2C720BDE810400DF0ACBE10B5FFF70F
:10322000B0FF002805D1AFF25700BDE810400DF007
:103230006BBC10BD10B5FFF7E7FFAFF26B00BDE848
:1032400010400DF0BDBE0B49D1E97C0170477047BD
:10325000084810B59821083002F0A6FE98210748CA
:1032600002F0A2FEBDE810400520FFF7FDBA000005
:10327000A82C0020482A00200008AF2F802B002017
:10328000F0B516462DED028B85B01F460C4605465F
:103290003C22FE49A1F10C0002F01FFEFB49502226
:1032A0004C31A1F1100002F018FEF84996E80D002B
:1032B0000C3901F13C0C8CE80D005CCC01F198005C
:1032C00080E85C009FEDF28AD1F82401401CC1F82F
:1032D0002401062802DD0620C1F82401C0F10606FB
:1032E0000C46A0351AE004EB06116A463846483110
:1032F0000DF099F906EB460004EB80016A4628467A
:103300000CF07CFCF0EEC00AB0EEC81AF4EEC10A74
:10331000F1EE10FA01D2B0EE408A761C062EE2DB06
:1033200005B0B0EE480ABDEC028BF0BD70B5144696
:103330002DED048B0E46B0EE408A00259FEDD59A08
:10334000416BF0EE498A002904DBD0F8BC00032869
:1033500000D10125CD492422B431081F02F0BDFD62
:10336000CA480C38002380ED388A00EB83015B1CCF
:1033700091ED2F0A0A2B70EE288AF6DBB2EE040AD2
:10338000C822C8EE800AC0ED390A9FEDC31A322E5A
:103390001DDB9FEDC20AC0F81C21B6F57A7FC8EE8E
:1033A000001A00EE104AB8EEC00A61EE801A81EEF3
:1033B000810A2FDB9FEDBA0AC8EE001A00EE104A10
:1033C000B8EEC00A61EE801A81EE810A22E041F275
:1033D000883194FBF1F14942D0F81C3101EB8101B5
:1033E000C918C0F81C1102D50021C0F81C119FEDAE
:1033F000AD0AC8EE001A00EE104AB8EEC00A61EE3F
:10340000801A81EE810A29B9D0F82811012901D149
:10341000B0EE490AD0F8201109B1B0EE480AA2492D
:103420008C4201D1B0EE480AB5EEC00AF1EE10FAB6
:1034300001D0C0ED3A0A90ED3A1A9C4B71EE600A49
:10344000F0EEE00A10EE901A994227DDD0ED2E0A38
:10345000F5EEC00AF1EE10FA20D1002D1ED0C0F812
:103460001C21204610F0DBFC41EC190B18EE100A71
:1034700011F032F89FED8E1B53EC112B10F0DEFA99
:1034800053EC192B10F032FD9FED8B1B53EC112BDD
:1034900010F0D4FA10F0ECF900EE100ABDEC048B39
:1034A00070BD2DE9F04F04462DED048BA9B09FEDC2
:1034B000799A4FF0000A754ECDF810A00C3ECDF869
:1034C00014A0CDF818A0D6F82011022003297DD031
:1034D00000209FED7B8A20AD06EB800191ED2A0A4A
:1034E00005EB8001401CB8EEC00A042820EE080A53
:1034F00081ED000AF0DB0FA80CF0F8FC24A80CF01A
:1035000059FD624B24AA9C330FA920462793FFF74D
:10351000B7FEF0EE408A04F118000CF0A9FD810915
:103520006148D6F83021824200DB0246B0EE680ADC
:103530002046FFF7FBFED6ED3B0AB3460BA820EE74
:10354000200A86ED2E0A0CF0D1FC13A90BA80DF071
:10355000E5F94E480FAAF0300BA906460DF063F8C6
:1035600031460BA80DF03CF800210DF13C080DF19F
:103570004C090DF1100E00221346104601EB410CD0
:103580000CEB000759F8276008EB8007401C7F68A8
:103590000328C6FB0723F3DB900F40EA83004EF8B5
:1035A0002100491C0329E6DBDBF820015E460028E8
:1035B0006AD05046CDF818A0404200EE100AB8EE8E
:1035C000C00A20EE080A09F0FBFC00E0A2E08DED45
:1035D000000A8DED019A8DED029A0698404200EEA8
:1035E000100AB8EEC00A20EE080A09F07FFF8DED40
:1035F000030A9DED060ADFED330AD6F83001B8EE76
:10360000C00A41F2883190FBF1F080EE201A00EE02
:10361000100AF8EEC01A81EE210AB0EE001AC0EED0
:10362000011ABDEEE10A10EE101A490000EE101A60
:103630000691B8EEC00A60EE200A00EE100AB8EE5D
:10364000C00A20EE800ABDEEC00A8DED060AB8EE73
:10365000C00A20EE080A09F0B3FC8DED070A8DEDD3
:10366000089A8DED099A9DED060AB8EEC00A20EE83
:10367000080A09F03BFF8DED0A0A1CAA694620A83A
:103680000DF029F86A461FE04BE00000F42C002002
:10369000002474490000000000409C45000048439D
:1036A000000048420000C84340420F000E2DB23DCA
:1036B0000000000000007940000000000088B340D6
:1036C00000008030E102374707A91CA80DF003F87D
:1036D0006F46DFED958AD4F8BC00002813DD00208A
:1036E00007EB800191ED000A05EB800181ED000AF6
:1036F00020EE280A06EB8001401C0428BDEEC00A1B
:1037000081ED2A0AECDBD4F8BC00F6EE009A03281F
:103710000CD108E0C6F8200129B0BDEC048BBDE84F
:10372000F08F069848E700F03DFEE0B396ED2A0AD8
:10373000B8EEC00A20EE080A8DED1C0A96ED2B0AA1
:10374000B8EEC00A20EE080A8DED1D0A96ED2C0A8F
:10375000B8EEC00A20EE080A8DED1E0A96ED2D0A7D
:10376000B8EEC00A20EE080A8DED1F0AD6F8200137
:103770000028D1D096ED2E0A20EE290A09F020FC6F
:1037800020EE280ABDEEC00A86ED2A0AC6F8ACA0D3
:10379000C6F8B0A096ED2E0A20EE290A09F0A6FE82
:1037A00020EE280A00E004E0BDEEC00A86ED2D0AF6
:1037B0002BE096ED2E0A20EE290A09F001FC8DED92
:1037C000070A8DED089A8DED099A96ED2E0A20EEE6
:1037D000290A09F08BFE8DED0A0A6A4607A920A87E
:1037E0000CF079FF68460DF021F8002007EB80010E
:1037F00091ED000A06EB8001401C20EE280A042807
:10380000BDEEC00A81ED2A0AF0DBD4F8C01027987B
:103810000DF060FAD6F820010028AAD0401E79E702
:1038200070B590F8B810414ACC064FF000034FF045
:10383000030101D4C2E94813B0F82041E40509D4DA
:10384000048EE40503D5B0F87440E40502D4C2E95F
:1038500048131AE0D2F8341139B1D0E93013C91A3B
:103860004FF47A73B1FBF3F105E0D0F8B01044F6F1
:103870002064A14202DBC2F830110AE0D2F82C51D8
:103880002944C2F82C11A14201DA002070BDC2E91E
:103890004B31FFF706FEF8E710B54FF49C71234853
:1038A00002F082FB214C4FF080400021C4F8FC0064
:1038B00044F8A80F1D48A8300DF00CFA4FF47A70A8
:1038C000B7EE000A606784ED110A10BD174880ED5D
:1038D0003B0A002070471549C1F8280100207047B5
:1038E0001249C1F834010020704704224FF41671C8
:1038F000AFF2D3000DF080B8AFF2DB000DF03ABBB1
:1039000010B5FFF7C9FF09490020C1F82801C1F827
:103910003401AFF22900BDE810400DF0F5B8AFF268
:1039200035000DF04DBB00000000804EE82C00205B
:103930001FB501461022684602F058FAF7489DE884
:103940000E0080E80E00F6499DF80C0081F8B001E9
:10395000002004B010BD1FB5F0490EC98DE80E005F
:10396000EF49102291F8B0118DF80C10694602F061
:103970003DFA0020EDE72DE9F04F91B00025182128
:10398000684602F011FB0024182106A802F00CFB87
:10399000E348A046C14690F8C01101297ED1D0F875
:1039A000B8B1D0F8B4A10022C2EBC20000EB4001D4
:1039B000DB4800EB810E9EF850000F90002864D089
:1039C00000215FE0DDE900076D1C5EF821300E93F9
:1039D000181847EBE376CDE900060EEB8100EDB257
:1039E00043690D93DDE9027C4FEAE376DB1946EB90
:1039F0000C06CDE90236836ADDE9047CDE170C9300
:103A0000DB1946EB0C06CDE90436C06B0E9BDDE9F5
:103A1000067C83FB0063360C46EA0346F6194CEB42
:103A20002343CDE906630D9BDDE9087C83FB00633E
:103A30004FEA164646EA0346F6194CEB2343CDE916
:103A400008630C9BDDE90A7C83FB00634FEA1646A2
:103A500046EA0346F6194CEB2343CDE90A6380FBA3
:103A600000634FEA164646EA034616EB080849EBA0
:103A700023490444584501DA834602E0504500DDFD
:103A80008246491C0F9888429CDC521C052A8BDB1D
:103A9000A348AAEB0B01D0F8BC0100E056E081423C
:103AA00054DBA5FB0823E0170026109006FB083026
:103AB00005FB0900CDE90C2084FB0420110C41EA30
:103AC00000410014CDE90E0106A800EBC601D1E9C2
:103AD0000003A0FB05B203FB0522002100FB012C23
:103AE000684600EBC601D1E90001A0FB043701FBE9
:103AF0000471109A00FB0210190C41EA00490CAA4B
:103B00004FEA204A92E889000F9983EA070880EA81
:103B1000010252EA080212D0421A63EB0703BBEB20
:103B200009006CEB0A0C4FEA0C4141EA1041000419
:103B300001F053FF7A4901EB8601C1F8A401761C1C
:103B4000032EC1DB7648012180F8B01111B00020AE
:103B5000BDE8F08FF8B5724D0E460446D5E96D010B
:103B6000091A052291FBF2F1301A90FBF1F0C0B274
:103B70008DF80000042801D92020F8BDC0EBC0005A
:103B800000EB400005EB800191F85000052816D0AD
:103B9000421C81F850209DF80010C1EBC10101EBDF
:103BA000410105EB810202EB8001CE63236842F8FC
:103BB000203060684861A06888620020F8BD01F18B
:103BC0004003181F1022194602F087F99DF80000E3
:103BD0001022C0EBC00000EB400005EB8000011D8F
:103BE00002F07BF99DF800001022C0EBC00000EB52
:103BF000400005EB800000F11801143002F06DF96F
:103C00009DF800001022C0EBC00000EB400005EB67
:103C1000800000F12C01283002F05FF90420BAE79F
:103C200030B585B0044603A968460CF0FBF904A83A
:103C30000CF0AAFA02282BD0D4F8E4000399401A19
:103C4000374991F8B02112B308B3D1F8A421009CF0
:103C500080FB0232150445EA134222440092D1F857
:103C6000A821019C80FB0232150445EA134222443C
:103C70000192D1F8AC11029A80FB0110030443EACF
:103C8000114010440290032168460DF0C5F80CE085
:103C9000606B032809D10CF0D7F930B1684603995D
:103CA000FFF758FF08B9FFF766FE05B0002030BDEA
:103CB00010B54FF4E2711A4802F076F91848194924
:103CC000C0F8B4114FF4AA01C0F8B8114FF4A02104
:103CD000C0F8BC11012180F8C011002010BD1049AE
:103CE000C1F8B801002070470D49C1F8B4010020A7
:103CF00070470B49C1F8BC010020704758B1084912
:103D0000D1F8A4210260D1F8A8214260D1F8AC1109
:103D1000816000207047052070470000C42F0020FC
:103D2000202E00200000D8FF2420F5E720B12D49E7
:103D300081F8C0010020EFE72420EDE7294B93F83C
:103D4000B1010028E8D0D3E96D10401A052190FB9D
:103D5000F1F00020C0EBC00101EB410103EB810158
:103D600091F8502022B1002100E0491C8A42FCDC7D
:103D7000401C0528EEDB0020CEE7082296211A48D9
:103D80000CF03ABE18480DF0F5B810B5FFF790FFEB
:103D90004FF49A731022154915480CF081FE20B992
:103DA000AFF229000CF0B0FE08B1012010BD0D49A2
:103DB000012081F8B101002010BD10B5094C94F824
:103DC000B101002808D008480DF0D4F8AFF2550032
:103DD0000DF0F6F808B1012010BD002084F8B10103
:103DE00010BD0000202E0020213C0008573900089B
:103DF00031390008002803DDFE490122C1E9200213
:103E00000020704710B5B821FA4802F0CDF89FEDB8
:103E1000FA0AF84880ED030A9FEDF80A80ED020ADD
:103E20009FEDF70A4FF0804180ED000AB3EE0E0AD5
:103E300080ED010A41664FF4FA619FEDF20AC16715
:103E400080ED270A002010BD70B5EA4C002594EDE6
:103E5000001AB4EEC01AF1EE10FA17D394ED011A5D
:103E6000B4EEC01AF1EE10FA10DC2069012817D167
:103E700094ED030AB4EEE00AF1EE10FA06D394EDE5
:103E8000020AB4EEE00AF1EE10FA09DD606F20B923
:103E9000D848A16D18300CF01DFF0120C4E91D05A4
:103EA000D4E91E01884204DB606F012800D1E5657A
:103EB000656770BD10B504462DED028BB0EE408AEB
:103EC0000CF01EF8CB49002220B918EE100ACE4B98
:103ED000984202DD0A614A6102E00869002808D1BF
:103EE000486920444861B0F5FA7F02DD0120C1E94C
:103EF0000402BDEC028B10BDF0B58DB00D4614462A
:103F0000064669460CF00AFD09AA314628460CF01F
:103F10008AFB294630460CF063FB0021EC460DF18C
:103F2000240E00231A46184601EB41073D180EEBFC
:103F300080065CF825507668401CC5FB06320328D5
:103F4000F4DB980F40EA820044F82100491C032961
:103F5000E7DB0DB0F0BDA7490020C1F88C00704729
:103F600010B590ED000AD0ED010AB8EEC00AB8EE27
:103F7000E01AF8EEE00A20EE000A01EE200AD0ED89
:103F8000020AB8EEE01AF8EEE00A01EE200A09F0A3
:103F9000B2FBDFED9E0A20EE200A10BD00229549FB
:103FA000012330B1012810D0C1F8983041F88C2F8E
:103FB00031E081ED280A81ED290A9FED950A81ED16
:103FC0002A0AE1E924328A607047D1ED280A91ED8E
:103FD000271A70EE600AF0EEE00AF4EEC10AF1EE84
:103FE00010FA16D2D1F89400401CC1F89400D1ED1B
:103FF000290A312830EE800A81ED290AE4DD022009
:10400000DFED840AC1F8900080EE201A81ED2A1AB3
:10401000704741F8902F4A6070472DE9F047984665
:104020002DED088B8AB017468A4604469FED788AA4
:104030000025704E039504950595D6F88800002854
:104040007DD00CF00DF810B103A80BF0DDFFD6F811
:1040500080004FF00109002817DDC6F884900BF0AE
:10406000FFFF48B103A80CF003F88009B0F5C87F42
:1040700002D2D6F8800004E0D6F88000001BC6F813
:104080008000002801DCC6F884500CF0CBF9002831
:1040900055D000209FED5D9A57F8201000EE101AC1
:1040A00058F82010401CB8EEC00A032860EE090A38
:1040B00000EE101AB8EEC00A20EE800A00EE098A5F
:1040C000EADB3846FFF74CFFF0EE408A4FF07E57B0
:1040D00088EE280AF7EE00AA10EE100AB84201DDB9
:1040E000B0EE6A0A10EE100ADFF82C81BFEE00BABB
:1040F000404501D9B0EE4B0A08F04AFDD6F88C00D5
:10410000B0EE40AA98B196ED000AB4EEE80AF1EEDE
:1041100010FA0CDD96ED010AB4EEE80AF1EE10FAA1
:1041200005D2B0EE4A0AD6F89000FFF737FF68468E
:104130000CF014F82F490C22AC31684600E0E2E0A4
:1041400001F028FE18B9D6F8980001286BD129484B
:104150009DE80E00AC3080E80E00009818B9019878
:1041600008B90298F0B36846FFF7FAFEB0EE408A4D
:10417000B5EEC08AF1EE10FA55D0F2EE049A38EEA0
:10418000690A20EE000A09F0B6FA86ED010A38EE57
:10419000290A20EE000A09F0AEFA86ED000A9DED2C
:1041A000020AB8EEC00A60EE090AB0EE480A80EED4
:1041B000808A18EE100AB84201DDB0EE6A8A18EE65
:1041C000100A404501D9B0EE4B8AB0EE480A08F01B
:1041D000DFFCD6ED270A30EE600A86ED020AB0EE6B
:1041E000480A00E024E008F0D3FCD6ED270A30EEC0
:1041F000200A14E0E42F00200000B4420000B4C202
:10420000000070427B142E3E00401C4600008037A8
:104210000000000000004842000080BF03E086ED7F
:10422000030AC6F88C50DFF88481F16D21B32FE0CA
:104230001FED0D0A86ED000AB3EE0E0A86ED010AA7
:10424000D6F89800012808D01FED140A86ED020A5E
:104250001FED170A86ED030AE5E796ED2A0A96EDAB
:10426000271A70EE410A30EE010AC6ED020A86ED09
:10427000030AC6F89850D6E70027C6F85C9006EB0C
:104280000710414618300BF06DFE7F1C042FF6DB43
:10429000464906AA0C310F465046FFF72DFE394617
:1042A00050460CF09DF903A80BF0E2FE00EE100A58
:1042B000DFED3F0A2046B8EE400A20EE200AFFF765
:1042C000F9FDF0EE4A0AB0EE680AFFF7BDFDD6E947
:1042D0001E01884201DA2044B067706F90B9306ED9
:1042E00020443066B0F57A7F0CDD30493022303919
:1042F000A1F11000356601F0F0FD2C484146103860
:104300000BF030FE706F0AB0BDEC088BBDE8F08793
:1043100070B588B0044604A80BF04CFED4E9300117
:10432000451A68460BF0E2FD064604AB04F1A00214
:1043300069462846FFF771FE0CF0DCFC08B03046F9
:1043400070BD04224FF49671AFF23B000CF054BBE9
:10435000AFF243000CF00EBE10B5FFF753FD00287E
:104360000DD1124800215838C0F88C100121C0F836
:104370008810AFF23100BDE810400CF0C5BB10BD95
:1043800010B5AFF273000CF0F5FDAFF27B00BDE8A5
:1043900010400CF0EFBD054901205839C1F88C00E0
:1043A0000020704701485838406F70473C3000206B
:1043B0000000803CF0B51D462DED028B99B090EDCC
:1043C000000AD0ED010A1746B8EEC00AB8EEE01AAE
:1043D000F8EEE00A0E4620EE000A044601EE200A3E
:1043E000D0ED020AB8EEE01AF8EEE00A01EE200A7B
:1043F00009F081F9F0EEC00A10EE900AB0F18D4F8D
:104400007EDDD6ED000AB8EEE01ADFEDFE0A21EE01
:10441000201A8DED041A96ED011AB8EEC11A21EE9C
:10442000201A8DED051A96ED021AB8EEC11A21EE8A
:10443000201A8DED061A96ED031AB8EEC11A61EE38
:10444000200ACDED070A9FEDF08A10AA8DED0C8AA7
:10445000D4ED000A0CA904A8F8EEE00A80EE801A58
:104460008DED0D1AD4ED010AF8EEE00A80EE801A07
:104470008DED0E1AD4ED020AF8EEE00A80EE801AF5
:104480008DED0F1A0CF027F914A904A80CF0B4F85C
:104490006A4614A910A80CF01EF99DED021ADDED74
:1044A000010ADA4921EE010A00EEA00A10EE100A14
:1044B000884202DA9FEDD60A11E010EE100AD549C3
:1044C000884202DA9FEDD40A09E010EE100AD349BF
:1044D000884202DAB5EE000A01E09FEDD10A01EE52
:1044E000907AB8EEE12ADFEDCF2A8DED088AC2EE90
:1044F000221A21EE800A21EE001A8DED091A00E041
:1045000038E020EEC00A6A4604A98DED0A0A8DED56
:104510000B8A08A80CF0DFF86A4604A910460CF0D4
:104520003EF868460CF040F9DDED000A9FEDBE0A4A
:1045300060EE800AFDEEE00AC5ED000ADDED010A3D
:1045400060EE800AFDEEE00AC5ED010ADDED020A2B
:1045500060EE800AFDEEE00AC5ED020ADDED030A19
:1045600020EE800ABDEEC00A85ED030A19B0BDEC4D
:10457000028BF0BD96E80F0085E80F00F6E72DE905
:10458000F0410C462DED068B054690ED000AD0ED6E
:10459000010AB8EEC00AB8EEE01AF8EEE00A20EE22
:1045A000000A01EE200AD0ED020AB8EEE01AF8EE99
:1045B000E00A01EE200A09F09EF810EE100A4FF012
:1045C0007E5800264FF0804740453FDDD5ED020A7A
:1045D000B7EE009AF8EEE00AC0EE808A39EE680A7B
:1045E0009FED89AAB5EEC00AF1EE10FA01DCB0EE3B
:1045F0004A0AF6EE009A20EE290A09F07CF8B0EE9D
:10460000408A38EE890AB5EEC00AF1EE10FA01DCF4
:10461000B0EE4A0A20EE290A09F06DF8F0EE408A61
:1046200095ED000AB8EEC00A60EE000A95ED010AA9
:10463000B8EEC01AB8EEC00A41EE000AB0EE600A49
:1046400009F059F810EE100A404503DCC4E9007681
:10465000A66025E0DFED740A28EEA01ABDEEC11AAF
:1046600084ED001A95ED011AF8EEC11A81EE801A58
:1046700021EE081A61EE200AFDEEE00AC4ED010AFF
:10468000D5ED000AF8EEE00A80EE801A21EE080A65
:10469000DFED660A20EE200ABDEEC00A84ED020AB4
:1046A000E660BDEC068BBDE8F08170B590ED000AC8
:1046B000D0ED010A0546B8EEC00AB8EEE01AF8EEF1
:1046C000E00A0C4620EE000A01EE200AD0ED020AB4
:1046D000B8EEE01AF8EEE00A01EE200AD0ED030A87
:1046E000B8EEE01AF8EEE00A01EE200AB5EEC00AD4
:1046F000F1EE10FA07D84FF0804020600020606093
:10470000A060C86070BD08F0F6FFB7EE001AC1EEF9
:10471000000A9FED450A20EE800AD5ED000AF8EE6A
:10472000E00A60EE800AFDEEE00AC4ED000AD5ED75
:10473000010AF8EEE00A60EE800AFDEEE00AC4ED40
:10474000010AD5ED020AF8EEE00A60EE800AFDEEFD
:10475000E00AC4ED020AD5ED030AF8EEE00A20EE05
:10476000800ABDEEC00A84ED030A70BD70B5044630
:1047700090F8300088B040067ED5A069002801DBA3
:10478000014600E041424FF480320026284D91421C
:104790000BDAE169002900DA4942914205DA216A1F
:1047A000002900DA4942914267DB002800DA4042E2
:1047B0004FF4C80188420BDCE069002800DA40426F
:1047C000884205DC206A002800DA4042884201DD88
:1047D000032000E00220A863696BA06A814242D0F6
:1047E000686394ED0A0A9FED131AF8EEC00A80EE92
:1047F000810ADFED110A20EE200A10EE100A0FF0F8
:104800006BFE1BE0000080300000000017B751393C
:10481000A69BC43B0AD7233C8FC2753DCDCC4C3EF2
:10482000CDCCCC3E0014CD470000804E000080CEA1
:104830009C300020002474490000004E9FEDFA1BBC
:1048400053EC112B0FF052FB9FEDF91B53EC112B86
:104850000FF04CFB9FEDF81B53EC112B0FF0EEF813
:104860000FF080FA28630496296BA0690BF07FFE95
:104870000590296BE06901E022E023E00BF077FE70
:104880000690296B206A0BF072FE07906A4604A915
:10489000EB480BF0C8FE0098E94A800100900198AF
:1048A000694680010190029880010290039880017E
:1048B000039010460BF061FEE1490846FFF7F5FE54
:1048C00008B070BDAE63FBE770B504462DED048BF8
:1048D0008EB0D0F82001410676D5D94DD4F810110C
:1048E000D84B2A68891AD4F82C215A438A4201DA13
:1048F000032100E00221A963800504F5887602D532
:10490000CF493046B5E0002107A80BF08BFBCC491E
:104910000C223C3107A801F03DFA20B9D4F8280157
:10492000A96D88427ED020886B4680B207AA616A52
:104930000BF0BAF99DED000ADDED010AB8EEC00AF0
:10494000B8EEE01AF8EEE00A20EE000A01EE200AC6
:10495000DDED020AB8EEE01AF8EEE00A01EE200AF8
:1049600008F0C9FEB0EE408A9FEDB70A68EE000A73
:104970009FEDB61A80EE810ADFEDB50A20EE200A1F
:10498000D4ED4A0AF8EEE00A60EE800A1FED571AED
:1049900080EE810AF6EE000A20EE209AB0EE490A77
:1049A00008F00EFBF0EE408AB0EE490A08F09EFDDA
:1049B00018EE100A4FF08041884206DA0020C5E95F
:1049C00012102865686532E055E05FED690A68EE0F
:1049D000A00AFDEEE00AC5ED120A5FED6C0A20EEBA
:1049E000200ADDED000AF8EEE00A60EE200A80EE13
:1049F000881AFDEEC10AC5ED130ADDED010AF8EED5
:104A0000E00A60EE200A80EE881AFDEEC10AC5EDCC
:104A1000140ADDED020AF8EEE00A20EE200AC0EEEC
:104A2000080A00E00DE0BDEEE00A85ED150A07ABCF
:104A300093E8070005F13C0383E80700D4F8280158
:104A4000A8657F4903AA483130460BF0ECFD7C484D
:104A50000AAA5C3003A904460BF0E5FD2146304666
:104A60000BF0BEFD03AA0AA975480BF0DCFD7449E2
:104A700003A8FFF71AFE0EB0BDEC048B70BD1FB586
:104A8000044669466E480BF0ABFD6D4A694620321C
:104A900020460BF0C8FD6A491DCC103181E81D008D
:104AA0001FBD2DE9F0470446654E90F8740006F1ED
:104AB0005C0A06F12008012500F05001103692B082
:104AC00004F5887904F15C07402906D094F82001A8
:104AD00000F0500040280DD01DE031463846FFF769
:104AE0004EFDB4F82001C0050CD5514648460BF0E8
:104AF00077FD07E0514648460BF072FDB4F87400AC
:104B0000C00508D569464E480BF06AFD4246694625
:104B100030460BF088FDB4F82001C005204602D5D0
:104B2000FFF7D2FE01E0FFF721FE3246444940463E
:104B30000BF079FD94F8740040066FD5208EB4F820
:104B400020110843C0056DD50FAA394630460BF039
:104B5000C5FED4E9172080FB0001C2FB0201626E92
:104B6000374FC2FB02014FF08042801A71F1020000
:104B700014DB04A80BF0B2FADDE9042080FB00018D
:104B8000C2FB0201069AC2FB02014FF08042801A6A
:104B900071F1020002DB0420B8630BE0B86B04285B
:104BA00008D041F28832022806D0032804D0012818
:104BB00052D009E0002507E0E16E91FBF2F5012DEE
:104BC00000DA0125032800D0AD0022480024454327
:104BD00010980794800229460BF0C9FC08900F98A2
:104BE0002946404280020BF0C2FCCDE909040BAA21
:104BF000314607A80BF017FD32460BA910460BF003
:104C0000BCFC31460846FFF750FD69460C480BF0E6
:104C1000E7FC4246694630460BF005FD12B0002025
:104C2000BDE8F08720E00000112D4454FB2109402D
:104C3000000000000000704000000000008066409E
:104C40009C30002071981C00DB0F49400000344369
:104C500000008037A69BC400E06E90FBF2F00128B4
:104C600000DA01204500AFE7334619463846E26EC8
:104C7000FFF7A0FBC9E770B50446008EC105D4F864
:104C8000200107D4B4F87410C90503D4C10501D4B8
:104C9000002070BDC0F30120032807D02046FFF795
:104CA00000FF2348A16B0CF055F9F1E704F588717A
:104CB0001F482EC980E82E00F3E71E480CF05AB9B1
:104CC0001B4810B56C21103801F06EF918484FF0F0
:104CD00080411038016101600162C163C16500203B
:104CE00010BD184810B5082213A1006801F052F851
:104CF00008B1322010BD1322BDE81040C8210D4874
:104D00000BF07ABE10B5FFF7DBFF002805D1AFF23C
:104D10002D00BDE810400BF0F7BE10BD10B50548E2
:104D20000CF028F9AFF24500BDE810400CF048B98E
:104D3000AC300020774C0008654D504C20352E31AA
:104D4000000000002C00002000209FEDFE0AFE4A1B
:104D5000DFEDFE0A02EB8001401C81ED080AC0B2C3
:104D6000C1ED0B0A0328F5D37047F74A002002EB88
:104D70008001D1ED080A91ED2D0AF4EEC00AF1EEA2
:104D800010FA01D281ED080AD1ED0B0AF4EEC00A47
:104D9000F1EE10FA01DD81ED0B0A401CC0B20328D0
:104DA000E5D370473EB50B46B0F8481009040091B2
:104DB000B0F84A10009A09040191B0F84C100904A7
:104DC0000291E1494C6E121B0092019A8C6E121BEB
:104DD0000192029AC96E511A0291816EB0F8440094
:104DE0006A4680B20AF060FF3EBDF0B5D64F00249F
:104DF0002546D7F894208DB02E46012A01D1C7F858
:104E0000946009A9FFF7CEFF05A80BF0D3F8059928
:104E100009986022A0EBA130099006990A98A0EBAE
:104E2000A1300A9007990B98A0EBA130C8490B90CC
:104E3000081F01F052F80DF1240CC5489CE80E0043
:104E4000143080E80E0068460BF048F9C049602233
:104E50006C31081F01F041F8BD489DE80E0080301C
:104E600080E80E0000210922D7F82C04401CC7F866
:104E70002C0401EB410007EB8000DDF800C0D0F806
:104E80004C33491C93FBF2F31C44D0F850330929EE
:104E900093FBF2F31D44D0F8543393FBF2F31E441A
:104EA000D0F8B83393FBF2F363440093D0F8BC33EB
:104EB000DDF804C093FBF2F363440193D0F8C00320
:104EC000029B90FBF2F018440290CDDB002C00DA3C
:104ED0006442002D00DA6D42002E00DA764200981E
:104EE000002800DA404200900198002800DA404291
:104EF00001900298002800DA4042029000990020B8
:104F00008C4200DA012001998D4200DA401C02999E
:104F10008E4200DA401CD7F82C14092900DB401C13
:104F200004280DD197F8240402280BD9014686489D
:104F3000D7F8282464300BF057FE01200BF04EFE0A
:104F40000DB0F0BD0BF03CFEFAE72DE9F0417E4DCF
:104F500000272DED048B06463C4685F824749FED12
:104F60007D9B9FED7E8BC5F8287405EB8400D5ED05
:104F70000F0A90ED330AB4EEE00AF1EE10FA1EDBF0
:104F800095ED140B53EC182B51EC100B0FF0BAF9F4
:104F900041EC100B08F0BCF853EC192B51EC100B42
:104FA0000EF068FF0BD295F824040121401C85F80F
:104FB0002404D5F82804A1400843C5F82804641C3B
:104FC000E4B2032CD1D395F82404B8B3002406EB43
:104FD000C40090ED000B51EC100B0EF0C3FE05EB7E
:104FE0008401641CE4B24866032CF0D3C5F82C7429
:104FF000A868042802DA95F82404A86095F8240427
:1050000003281BD15749E868884217DC95ED140B3B
:1050100053EC182B51EC100B0FF074F941EC100B02
:1050200008F076F853EC192B51EC100B0EF022FF20
:1050300004D2A868032801D10420A8604A4928693D
:1050400088421DDA4949E868884219DC95ED140B5D
:1050500053EC182B51EC100B0FF054F941EC100BE2
:1050600008F056F89FED421B51EC100B53EC112B3E
:105070000EF000FF04D2A868042801D10520A86022
:10508000BDEC048BBDE8F0812DE9F0412E4C0746C4
:10509000D4F8A404012802D000252846F2E73649B6
:1050A000F7EE000AA1F1E800B7EE000A0646FBF7AA
:1050B000B2FA254A3046503202F5AC71FBF74DFD8D
:1050C0000500EAD06068401C606094ED140B51EC60
:1050D000100B0EF047FEB96E0BF049FA00EE100A05
:1050E000DFED260AB8EEC00A20EE200A10EE100A04
:1050F0000FF0F2F9C4E9140194ED6A0B51EC100BB6
:105100000EF030FEA06594ED6C0B51EC100B0EF020
:1051100029FEE06594ED6E0B51EC100B0EF022FEB3
:10512000206694ED680B9FED161B51EC100B53ECB1
:10513000112B0EF0D9FFB0D231469FED130AF0EEDD
:10514000400A23E000401CC60831002000401C46F5
:10515000583400209A9999999999B93F0000000014
:105160000000F03FAE47E13D00007A43BC74933C41
:105170009CC420B07268913FD0320020000080377C
:10518000000000000070A740CDCCCC3E0846FBF7E5
:1051900042FA82E7D0ED030A90ED040A00210122D1
:1051A000F4EEC00A0223F1EE10FA12DD90ED051ABA
:1051B000F4EEC10AF1EE10FA0BDDB4EEC10A01649F
:1051C000F1EE10FA02DBC0E911237047C0E9113299
:1051D0007047B4EEE00AF1EE10FA12DD90ED051A18
:1051E000B4EEC10AF1EE10FA0BDDF4EEC10A02646E
:1051F000F1EE10FA02DBC0E911137047C0E911317A
:105200007047F4EEC00A0364F1EE10FA02DBC0E965
:1052100011127047C0E911217047002319469FED14
:10522000FE0AC36400EB8102491C82ED000A82ED94
:10523000090A0329F6DB0121C0E91D13704730B5C7
:1052400004461420A0650A202066002584F87050CA
:105250002046FFF7E2FF656530BD70B52DED048B8C
:1052600086B06946FFF79EFD9FEDEC8B1FED3D9AE2
:1052700000246E4603AD56F8240000EE100A05EB3C
:105280008400B8EEC00A20EE090A80ED000A20EE84
:10529000000A10EE100A0FF01FF953EC182B0EF055
:1052A00019FB41EC180B641C032CE4DBB0EE480A3C
:1052B000F0EE680A08F0E2F9DA4EB0EE408AF0EE5D
:1052C000608A002455F824000FF006F953EC182BDF
:1052D0000EF0B4FB0EF0CCFA00EE100A06EB8400E0
:1052E00000F58060641CD0ED0C0A032C30EE200A1F
:1052F00080ED0C0AE6DBD6F88404401CC6F8840472
:105300000120C6F8AC0406B0BDEC048B70BD70B5CE
:1053100005462DED028B86B004AA03A968460BF062
:1053200051F89FEDBE8B00246E4606EB840090ED95
:10533000000A20EE000A10EE100A0FF0CDF853EC30
:10534000182B0EF0C7FA41EC180B641C032CECDB95
:10535000B0EE480AF0EE680A08F090F9B0EE408A24
:10536000F0EE608A002456F824000FF0B5F853ECF4
:10537000182B0EF063FB0EF07BFA00EE100A05EB23
:105380008400641CD0ED000A032C30EE200A80ED6E
:10539000000AE8DB686D401C68650120E86706B01C
:1053A000BDEC028B70BDF0B504460021F7EE001A8B
:1053B0009FED992A94ED140A04EB8100B8EEC01A0F
:1053C000D0ED000A80EE810AB5EEC00AF1EE10FAC7
:1053D00002DBB0EE401A01E0B1EE401AD0ED060A51
:1053E000F5EEC00AF1EE10FA01DAF1EE600A71EEA4
:1053F000600AC0ED0C0A80ED060A94ED0F1AD0ED9C
:10540000092A71EE610A00EEA20AC0EE010AC0ED9F
:10541000090AF5EEC00AF1EE10FA01DAF1EE600ABF
:10542000C0ED030A491C80ED002A0329C2DB204697
:10543000FFF7B0FEE06CB0F57A7F01DA401CE06463
:1054400094F8707000210526042303250122206CA6
:10545000062F09D2DFE807F00309102B52376267E5
:10546000A267E16484F87020F0BDE06F0128FBD1F1
:10547000022084F870000DE004EB8000D4ED190ADE
:1054800090ED030AB4EEE00AF1EE10FA04DB84F8C2
:10549000703031E0A167F0BDD4ED1A0AB4EEE00A35
:1054A000F1EE10FA22D934E06267A267F0BD04EB96
:1054B0008000D4ED190A90ED030AB4EEE00AF1EE93
:1054C00010FAE4DAF0BD04EB8000D4ED1A0A90ED96
:1054D000030AB4EEE00AF1EE10FA07D9006B524E5F
:1054E000B04206D9216EE06C8842EBDB84F8705044
:1054F000DAE784F87030E1646167CBE704EB8000A1
:10550000D4ED1B0A90ED030AB4EEE00AF1EE10FAB6
:10551000D8D884F87060E164C6E710B5044600EEA0
:10552000104AB8EEC00ADFED410A20EE200A9FEDD6
:10553000401AC0EE010AB6EE000A20EE800A10EE14
:10554000100A0EF0C9FF41EC100B07F0D5FC9FEDDF
:10555000391B51EC100B53EC112B0EF0C7FC0EF065
:1055600001FC01462F48C0E9204110BD2DE9F04F54
:1055700000242DED028B91B0054604940594069409
:10558000C06E44F62061274E884206DBD6F88010B4
:10559000884210D0FFF7C1FF0DE0D6F84823104431
:1055A000C6F8480388427DDBE96E814201D0FFF7EF
:1055B000B4FFC6F84843286BC6F8B0042846FFF786
:1055C0004CFE06F5906003C8814204DB1B48FFF7E0
:1055D000EAFEC6F88444D6F8A804012802D1284679
:1055E000FFF703FCD6F8A40401285BD104A80AF055
:1055F00093FD9DED040ADDED050A20EE000A00EEA4
:10560000A00ADDED060A00EEA00A08F074F886EDA7
:10561000030ADFED0B0A15E00000000000000000A7
:105620000000000008310020CDCC4CBD368D274055
:1056300000247449000000000000D04138350020EB
:105640000000804620EE200AC149A146ADF8204066
:10565000BDEEC00A099110EE100AADF81C00ADF8BD
:105660001E4007A8FDF7BEFA68460AF095FD316FA7
:1056700000980AF07CFF0446716F01980AF077FFEA
:105680000444B16F02980AF072FF0444F16F03986A
:105690000AF06DFF04EB00089DE80F0000240DF1F7
:1056A000340A00E0A2E006F170079FEDAA8A87E8BD
:1056B0000F000DF1280B05EB4407A96E37F8480FD2
:1056C00000040AF054FF00EE100A4AF8240006EB2A
:1056D0008400B8EEC00A20EE080A80ED050A38887A
:1056E00001044BF82410641CE4B2032CE3D3984863
:1056F0000AA9E8380446FBF75EF83168D6F82803B3
:10570000884273DB95ED390AD6ED360AB8EEC00A49
:10571000F5EEC00A20EE080AF1EE10FA05D070EEA0
:10572000600AF0EEE00AC6ED370A86ED360AB06888
:10573000062818D2DFE800F0030303030D249FEDD1
:10574000860AC82086ED0E0AB7EE000A86ED0F0A1B
:1057500008E09FED820A86ED0E0A9FED810A642023
:1057600086ED0F0A3064288EC005099812D4FDF723
:1057700048F90EF0DFFE00EE100A5FED530A11E06B
:105780009FED780A86ED0E0A9FED770A322086EDAE
:105790000F0AE7E7FDF78FF80EF0CCFE00EE100AD7
:1057A000DFED720A982180EE201A86ED041A09981E
:1057B00000F0FAFBD6F88410414543DA96ED040A6E
:1057C000B5EEC00AF1EE10FA3CDDD6ED0E0AB4EEED
:1057D000E00AF1EE10FA35D2316C7068884206DAD0
:1057E0002846FFF751FC002859D00CE056E06049EC
:1057F000D6F8B000884206DB2846FFF745FC0028B3
:105800004DD0C6F80490002006EB8001401C91EDBD
:10581000050AC0B281ED2D0A0328F5D3FFF7A5FADA
:10582000002006EB8001401C91ED080AD1ED0B0A27
:10583000C0B2032830EE600A81ED330AF1D34D483F
:10584000FFF783FB002006EB8001401C91ED260A48
:10585000D1ED050AC0B2032830EE600AB0EEC00AEE
:1058600081ED290AEFD396ED290AD6ED2A0A002008
:1058700030EE200AD6ED2B0A30EE200A86ED2C0AF7
:1058800006EB8001401C91ED050AC0B281ED260AAD
:105890000328F5D3E821204600F086FB002011B054
:1058A000BDEC028BBDE8F08F10B54FF49761324824
:1058B00000F07AFB304C0A20206040072067FFF799
:1058C00043FA04F58660FFF7BAFC2068C4F8800448
:1058D0009FED2A0A04F580601E2180ED1B0A9FEDD2
:1058E000280AC4F88C1480ED260A9FED260A80ED64
:1058F000250A9FED250A80ED270A1920FDF722FCD5
:10590000002010BD012240F25231AFF29F300BF067
:1059100073B8AFF2A7300BF02DBB10B5FFF7C4FF83
:10592000002805D1AFF22300BDE810400BF0ECB821
:1059300010BD10B5AFF2CB300BF01CFBAFF23B004B
:10594000BDE810400BF03CBB0B488068704700007E
:10595000B8330020000080370080BB44000096432D
:105960009A99993F000070423333B33F0050C347C8
:10597000CDCC4C3DB0320020083100200000004268
:10598000CDCCCC3ECDCC4C3F3333333F7047B2F11E
:1059900020030AD5C2F1200301FA02F120FA03F331
:1059A00000FA02F041EA0301704700FA03F14FF0F8
:1059B00000007047B2F120030AD5C2F1200320FA9B
:1059C00002F001FA03F341FA02F140EA03007047E2
:1059D00041FA03F04FEAE171704710B54C1084EAC8
:1059E000530404D54042C1F1000138BF491E1B4297
:1059F00004D55242C3F1000338BF5B1E00F0FFFA2A
:105A000014F0804F04D04042C1F1000138BF491E5C
:105A100014F0004F04D05242C3F1000338BF5B1EA4
:105A200010BD00001CB50C46064B7B446946009037
:105A3000204600F0F8FD04460020694600F006FE0E
:105A400020461CBD1F0C00000FB4044910B503AA6A
:105A5000029800F017FE10BC5DF814FB2000002037
:105A600070B5044685690068C10601D5302600E09E
:105A70002026C00707D070BDD4E9012130469047E9
:105A8000206A401C20626D1EF6D570BD70B50446BC
:105A900085690078C00707D170BDD4E901212020B5
:105AA0009047206A401C20626D1EF6D570BD70B50F
:105AB0000C460546012A05D02878800600D5EA69FB
:105AC000002302E0012305E05B1C934202D2E05C6C
:105AD0000028F9D1A869E618C01AA861286A1844F4
