:020000040800F2
:1000000060450020C1010008C9010008CB010008BB
:10001000CD010008CF010008D10100080000000058
:10002000000000000000000000000000D3010008F4
:10003000D501000800000000D7010008D901000820
:10004000DB010008DB010008DB010008DB01000820
:10005000DB010008DB010008DB010008DB01000810
:10006000DB010008DB010008DB010008DB01000800
:10007000DB010008DB010008DB010008DB010008F0
:10008000DB010008DB010008DB010008DB010008E0
:10009000DB010008DB010008DB010008DB010008D0
:1000A000DB010008DB010008DB010008DB010008C0
:1000B000DB010008DB010008A1180008DB010008D3
:1000C000DB010008DB010008DB010008DB010008A0
:1000D000DB0100085D1A0008DB010008DB010008F5
:1000E000DB010008DB010008DB010008DB01000880
:1000F000DB010008DB010008DB010008DB01000870
:10010000DB010008DB010008DB010008DB0100085F
:10011000DB010008DB010008DD180008DB01000836
:10012000DB010008DB010008DB010008DB0100083F
:10013000DB010008DB010008DB010008DB0100082F
:10014000DB010008DB010008DB010008DB0100081F
:10015000DB010008DB010008DB010008DB0100080F
:10016000DB010008DB010008DB010008DB010008FF
:10017000DB010008DB010008DB010008DB010008EF
:10018000DB010008DB010008DB010008DB010008DF
:10019000DB010008DB010008DB010008DB010008CF
:1001A000DB010008DB010008DB010008DFF80CD0F0
:1001B00000F0D6FB004800479D480008604500203D
:1001C0000648804706480047FEE7FEE7FEE7FEE7F1
:1001D000FEE7FEE7FEE7FEE7FEE7FEE73918000868
:1001E000AD0100082DE9F05F0546002092469B46D0
:1001F00088460646814640241BE02846414647463D
:10020000224600F08EFA53465A46C01A914110D346
:1002100011461846224600F075FA2D1A67EB0108C0
:100220004F4622460120002100F06CFA17EB00092E
:100230004E41201EA4F10104DFDC484631462A4627
:100240004346BDE8F09F40EA01039B0703D009E065
:1002500008C9121F08C0042AFAD203E011F8013BB2
:1002600000F8013B521EF9D27047D2B201E000F80B
:10027000012B491EFBD270470022F6E710B513464A
:100280000A4604461946FFF7F0FF204610BD2DE947
:10029000FE4F804681EA0300C00F0C46009021F01B
:1002A000004123F00045B8EB0200A94105D24046C9
:1002B000214690461C460B46024623F00040104360
:1002C00047D0270DC7F30A00C3F30A510290401A22
:1002D000019040286BDAC3F3130040F4801B0098B0
:1002E000924620B10023D2EB030A63EB0B0B01987B
:1002F0005946C0F14002504600F004FA06460D4649
:1003000050465946019A00F01CFA10EB0800614172
:10031000002487EA115284EAE7731A4340D0009A16
:1003200062B3019A012A4FEA075215DC001B61EB08
:1003300002014FF0004202EA0752CDE90042001CE0
:1003400041F5801132462B4600F053FA03B0BDE868
:10035000F08F40462146F9E7001B61EB0201001CCB
:1003600041F5801300185B412018A2F5001747EBF8
:10037000030140EAD570B6196D4111E06D084FEAEE
:10038000360645EAC0754FEA0752001B61EB0201D1
:10039000001C41F5801149084FEA30000019514115
:1003A00032462B4603B0BDE8F04F00F013BA009878
:1003B000012240000023D0EB020263EBE0730098BF
:1003C00021464FEAE074B8EB000061EB0401E9E775
:1003D00083F000435BE781F0004158E72DE9FE4FD1
:1003E00081EA030404F0004421F0004100944FF03E
:1003F000000B23F0004350EA01045ED052EA0304EC
:100400005BD0C3F30A54C1F30A552C44A4F2F3346D
:100410000194A0FB0254C1F3130141F48011C3F312
:10042000130343F4801301FB024400FB034E840AD0
:10043000970A44EA815447EA8357A4FB0768029568
:100440008D0A05FB07854FEA932C04FB0C54270506
:10045000029D4FEA065847EA1637B5EB08056EEBE2
:10046000070C870E920E47EA811742EA8312A7FB18
:100470000201B6EB0B0164EB00042B0D43EA0C33D5
:100480005E1844EB1C50DA465146E7FB0201C5F307
:1004900013044FEA0B3343EA14534FEA0432019C2E
:1004A00043EA0603A4F10C040294009CCDE900B4D5
:1004B00000F09FF903B0BDE8F08F00200146F9E796
:1004C0002DE9F04D81EA030404F0004B21F00045D2
:1004D00014464FF0000A23F0004150EA050220D0F4
:1004E00054EA01021DD0C5F30A570246C5F31303AF
:1004F000C1F31300C1F30A5640F4801543F480138E
:10050000A7EB0608101BD64608F2FD3873EB050072
:1005100002D308F1010801E092185B41B8F1000F25
:1005200003DA00200146BDE8F08D00204FF4801171
:10053000064684460EE0171B73EB050705D3121B16
:1005400063EB050306434CEA010C49084FEA30000F
:1005500092185B4150EA0107EDD152EA030012D034
:1005600082EA040083EA0501084305D0101BAB4171
:1005700006D20122002306E000224FF0004302E0F1
:100580006FF0010253101AEB06004CEB085110EB10
:100590000A0041EB0B01BDE8F04D00F01BB930B48F
:1005A000044696230800214604D0B62330BC00221E
:1005B00000F0E2B820460021F8E70EB5C10F80EA4E
:1005C000E0700844CA07002140F233438DE80E0072
:1005D0000A460B4600F00DF903B000BD70B5C1F33B
:1005E0000A5201F000450024C1F3130140F2FF3329
:1005F00041F480119A4201DA002070BD40F2334389
:100600009A42A2F2334203DC524200F08AF800E040
:1006100090402C43F1D0404270BD00F0004230F0D9
:1006200000400AD0C10D01F56071C0F3160042EA26
:100630000151C2084007114370470020014670472E
:1006400030B5041E71F1000404DB4FF00044404259
:1006500064EB0101141E73F1000405DB1C464FF02E
:100660000043524263EB04038B4208BF824230BD19
:1006700030B5041E71F1000404DB4FF00044404229
:1006800064EB0101141E73F1000405DB1C464FF0FE
:100690000043524263EB0403994208BF904230BDCD
:1006A00001F0004330B421F0004150EA010206D0CD
:1006B0000A0DA2F56072C1F31301002A02DC30BCFE
:1006C00000207047440F44EAC104C100E01830BC68
:1006D00000EBC25000F047B830B50B460146002091
:1006E0002022012409E021FA02F59D4205D303FAF4
:1006F00002F5491B04FA02F52844151EA2F1010275
:10070000F1DC30BD202A04DB203A00FA02F100209F
:1007100070479140C2F1200320FA03F3194390403F
:100720007047202A04DB203A21FA02F000217047AA
:1007300021FA02F3D040C2F1200291400843194649
:100740007047202A06DBCB17203A41FA02F043EA31
:10075000E07306E041FA02F3D040C2F1200291407A
:100760000843194670470029A8BF7047401C49003C
:1007700008BF20F00100704710B4B0FA80FC00FA06
:100780000CF050EA010404BF10BC704749B1CCF131
:10079000200421FA04F411FA0CF118BF01212143BD
:1007A0000843A3EB0C01CB1D4FEA00614FEA102078
:1007B00042BF002010BC704700EBC350104400291A
:1007C000A4BF10BC7047401C490008BF20F00100C6
:1007D00010BC704710B5141E73F1000408DA401CF9
:1007E00041F1000192185B411A4301D120F0010050
:1007F00010BD2DE9F04D92469B4611B1B1FA81F240
:1008000002E0B0FA80F220329046FFF77BFF044608
:100810000F4640EA0A0041EA0B0153465A46084394
:1008200013D0114653EA010019D0C8F140025046D6
:10083000FFF777FF05460E46504659464246FFF7FA
:1008400061FF084305D0012004E020463946BDE899
:10085000F08D0020054346EAE0762C4337430A98A2
:100860006305E40AA0EB08000022FD0A44EA4754AD
:100870000A3002D500200146E9E701051019694157
:10088000DDE9084500196941BDE8F04DA2E72DE911
:10089000F04D00231A461B1A8A4103DB0020014653
:1008A000BDE8F08DC1F30A52C1F3130141F4801584
:1008B0004FF0000BD10702D100186D41521E0027E6
:1008C000044640F2FF11384601EB620A3E4680467C
:1008D000024600204FF48011FFF723FFC219714137
:1008E000BB1846EB0100B4EB030C75EB000C04D312
:1008F000E41A65EB000517460E46241908F10100BD
:100900006D4180463428E3DDF91946EB0600091BEA
:10091000A84103D24FF0FF32134601E000221346F4
:100920001BEB070046EB0A51BDE8F04DFFF752BF45
:10093000C1F30A52C1F3130140F2FF3341F48011B5
:100940009A4202DA00200146704740F233439A424D
:10095000A2F2334202DC5242FFF7E3BEFFF7D2BEFF
:10096000064C074D06E0E06840F0010394E80700FC
:1009700098471034AC42F6D3FFF71CFC2C7B0008E0
:100980004C7B00080EB540F2334102910021CDE9C5
:1009900000110A460B46FFF72CFF03B000BD70B5EF
:1009A0008C1810F8015B15F0070301D110F8013B1A
:1009B0002A1106D110F8012B03E010F8016B01F8A1
:1009C000016B5B1EF9D12B0705D40023521E0DD4F9
:1009D00001F8013BFAE710F8013BCB1A921C03E047
:1009E00013F8015B01F8015B521EF9D5A142D8D37F
:1009F000002070BD30B5CC1000F1200353F8243036
:100A00004C07E50E0F24AC40A343CD1000F12004A9
:100A100044F82530CC1000F1200353F824304C0763
:100A2000E40E02FA04F42343CD1000F1200444F84C
:100A3000253030BD2DE9F0470C46DDE9086700217F
:100A400000258C4600BF60E04FF0010808FA01F570
:100A500004EA050CAC4557D1D0F800804FEA410AB2
:100A60004FF0030909FA0AF928EA0908C0F80080DA
:100A7000D0F800804FEA410902FA09F948EA09086A
:100A8000C0F80080012A01D0022A27D1D0F80880BE
:100A90004FEA410A4FF0030909FA0AF928EA09085E
:100AA000C0F80880D0F808804FEA410906FA09F931
:100AB00048EA0908C0F80880D0F804904FF001080F
:100AC00008FA01F829EA0809C0F80490D0F804806F
:100AD00003FA01F948EA0908C0F80480D0F80C804C
:100AE0004FEA410A4FF0030909FA0AF928EA09080E
:100AF000C0F80C80D0F80C804FEA410907FA09F9D8
:100B000048EA0908C0F80C80491C10299CD3BDE8AC
:100B1000F087000010B500200F4908600F480068FA
:100B200020F440600D4908600846006840F4806089
:100B3000086000200A49C1F89402022002F068FE11
:100B4000012005490860022002F062FE00200449ED
:100B5000C1F8900210BD000090824342001C024088
:100B6000008043421CB50B48006840F080000949F2
:100B700008600120022100230246CDE90010302147
:100B80000548FFF757FF0120044908600449C1F8F0
:100B900094021CBD30380240001C02409082434247
:100BA0000080434210B500200F4908600F480068DC
:100BB00020F440600D4908600846006840F48060F9
:100BC000086001200A49C1F89402022002F020FEC8
:100BD000012005490860022002F01AFE00200449A5
:100BE000C1F8900210BD000090824342001C0240F8
:100BF0000080434270B5054600241648006820F482
:100C0000406014490860084600680860002616E045
:100C1000002011490860022002F0FAFD01200F496E
:100C2000C1F890026006040E0B487C38006808B1D9
:100C3000601CC4B2012002F0EBFD701CC6B2082E8D
:100C4000E6DB15B9FFF7AEFF01E0FFF763FF2046D3
:100C500070BD0000001C024090824342008043426D
:100C600070B504461548006820F4406013490860D8
:100C70000846006840F48060086000201049086061
:100C8000002517E0E0090E49091D08606006040E02
:100C9000022002F0BDFD01200A49C1F890020220A5
:100CA00002F0B6FD002006490860022002F0B0FD07
:100CB000681CC5B2082DE5DB70BD0000001C0240B9
:100CC000908243420080434210B50F48006820F4F0
:100CD00040600D4908600846006840F48060086084
:100CE00001200A4908600A49C1F89002042002F074
:100CF0008FFD002005490860042002F089FD0020D6
:100D00000349C1F8900210BD001C02409482434286
:100D10000080434210B50F48006820F440600D4940
:100D200008600846006840F48060086000200A49B6
:100D300008600A49C1F89402042002F069FD01200C
:100D4000054908600549C1F89402042002F060FDDD
:100D500010BD0000001C02409082434200804342CC
:100D600010B500241348006820F440601149086061
:100D700008460068086001200F49086002F048FD3D
:100D800001200E49C1F8900202F042FD07E0601C0C
:100D9000C4B2FA2C03DDFFF7BDFF012010BD0648E9
:100DA000803800680028F2D10349091F086000BF9D
:100DB000F4E70000001C024094824342008043425A
:100DC0002DE9FC4104460D4616466B4606223B21A2
:100DD000682000F009F90746BFB99DF801009DF8A9
:100DE000001040EA012000B220809DF803009DF829
:100DF000021040EA012000B228809DF805009DF80D
:100E0000041040EA012000B230803846BDE8FC8181
:100E10002DE9FC4104460D4616466B460622432149
:100E2000682000F0E1F80746BFB99DF801009DF881
:100E3000001040EA012000B220809DF803009DF8D8
:100E4000021040EA012000B228809DF805009DF8BC
:100E5000041040EA012000B230803846BDE8FC8131
:100E600010B52DED088B82B001AB02224121682024
:100E700000F0BAF89DF805009DF8041040EA012042
:100E800004B22046FFF799FB41EC1B0B9FED100BC2
:100E900053EC102BFFF714FB41EC1A0B9FED0E0BDC
:100EA00053EC102BFFF7F3F941EC190BFFF7F8FBAC
:100EB00008EE100A9FED0A0A28EE000ABDEEC00AED
:100EC00010EE100A00B202B0BDEC088B10BD00009D
:100ED00052B81E85EBDD7440000000000000354074
:100EE0000000C84210B50024FFF73CFE80226B21B1
:100EF000682000F003F9642002F06EFC00226B21F0
:100F0000682000F0FBF8032000F0B1F8002000F0AA
:100F1000A5F8322000F0D4F800223821682000F033
:100F2000EDF800226A21682000F0E8F80022232171
:100F3000682000F0E3F882223721682000F0DEF814
:100F40007521682000F02CF80446712C0DD1012287
:100F50006B21682000F0D2F800226C21682000F09C
:100F6000CDF8322000F0ACF801E0012010BD0021E6
:100F70000C2000F015F80446482C0DD101220B215D
:100F80000C2000F0BBF8322002F026FC11220A21CE
:100F90000C2000F0B3F801E00120E7E70020E5E7CE
:100FA00070B504460D46FFF78FFE002141EA44016B
:100FB000C8B2FFF755FEFFF7D3FE2846FFF750FEF5
:100FC000FFF7CEFEFFF780FE012101EB4401C8B21E
:100FD000FFF746FEFFF7C4FE0020FFF70BFE0646B4
:100FE000FFF798FE304670BD2DE9F04106460F46EA
:100FF00014461D46FFF768FE002141EA4601C8B2CB
:10100000FFF72EFEFFF7ACFE20B1FFF783FE0120B5
:10101000BDE8F0813846FFF723FEFFF7A1FEFFF79A
:1010200053FE012101EB4601C8B2FFF719FEFFF79D
:1010300097FE0DE0012C04D10020FFF7DBFD2870A6
:1010400003E00120FFF7D6FD2870601EC4B26D1CBE
:10105000002CEFD1FFF75EFE0020D9E710B5044663
:10106000E006020E1C21682000F048F810BD10B503
:101070000446032000EBC400C2B21B21682000F02C
:101080003DF810BD70B504460025BC2C01DB0125E0
:1010900010E0622C01DB02250CE02A2C01DB032589
:1010A00008E0142C01DB042504E00A2C01DB0525F3
:1010B00000E006252A461A21682000F01FF870BDBE
:1010C00070B50446B4F57A7F01DD4FF47A74042CD0
:1010D00000DA04244FF47A7090FBF4F0401EC5B29D
:1010E0002A461921682000F009F80546264604EB37
:1010F000D671C1F34F00FFF7C5FF70BD70B5044650
:101100000D461646FFF7E0FD002141EA4401C8B252
:10111000FFF7A6FDFFF724FE18B1FFF7FBFD012046
:1011200070BD2846FFF79CFDFFF71AFE3046FFF71B
:1011300097FDFFF715FE18B1FFF7ECFD0120EFE773
:10114000FFF7E8FD0020EBE72DE9F0410746884670
:1011500014461D46284600F033F8C5F1040007FA8E
:1011600000F60F20284100EA0800064306F00F06AB
:10117000E21704EBD2625211920002F1E022D2F89F
:1011800000212146E31704EBD3635B11A4EB431C5E
:10119000012303FA0CF31A432046E31704EBD3634D
:1011A0005B119B0003F1E023C3F800210348005DBD
:1011B00040EA061001490855BDE8F08100E400E06E
:1011C0000146072323EA01021202054B18684FF675
:1011D000FF031840034B18431043014B186070473E
:1011E0000CED00E00000FA054A0A52020243014BEE
:1011F0001A60704708ED00E070B5002100230F224F
:10120000C4781CB3174C246804F4E064C4F5E064AB
:10121000C4F30721C1F10404E3B20A4144789C40BD
:10122000E1B28478144021430C07210E0E4C05785E
:101230006155047804F01F050124AC4005786D1158
:10124000AD0005F1E025C5F8004109E0047804F09F
:101250001F050124AC40054D0678761145F826405F
:1012600070BD00000CED00E000E400E080E100E073
:1012700029B1064A12680243044B1A6004E0034A8B
:1012800012688243014B1A607047000040380240E8
:101290007CB5002400250026A948006840F0010024
:1012A000A7490860A6480838006840F07C00A449B7
:1012B000083908600120032100230222CDE9001033
:1012C0000D21A048FFF7B6FB0120032100230222D5
:1012D000CDE900104CF203719B48FFF7ABFB0120F6
:1012E000032100230222CDE900104FF683719748B5
:1012F000FFF7A0FB0120032100230222CDE900100B
:101300004FF63F019248FFF795FB01200321002390
:101310000222CDE9001048F237118E48FFF78AFB10
:101320000C2200218748FFF765FB0C22022185482B
:10133000FFF760FB0C2203218248FFF75BFB0C22C6
:1013400000218148FFF756FB0C2201217E48FFF760
:1013500051FB0C2208217C48FFF74CFB0C22092191
:101360007948FFF747FB0C220A217748FFF742FB39
:101370000C220E217448FFF73DFB0C220F2172480E
:10138000FFF738FB0C2200217048FFF733FB0C22DB
:1013900001216E48FFF72EFB0C2207216B48FFF757
:1013A00029FB0C2208216948FFF724FB0C220921A4
:1013B0006648FFF71FFB0C220A216448FFF71AFB5F
:1013C0000C220B216148FFF715FB0C2211465F48E8
:1013D000FFF710FB0C220D215C48FFF70BFB0C22E2
:1013E0000E215A48FFF706FB0C220F215748FFF742
:1013F00001FB0C2200215648FFF7FCFA0C220121C8
:101400005348FFF7F7FA0C2202215148FFF7F2FA8E
:101410000C2203214E48FFF7EDFA0C2204214C4820
:10142000FFF7E8FA0C2205214948FFF7E3FA0C22FE
:101430000B214748FFF7DEFA0C2211464448FFF71C
:10144000D9FA0C220D214248FFF7D4FA0C220E21C2
:101450003F48FFF7CFFA0C220F213D48FFF7CAFAA9
:101460000C2200213B48FFF7C5FA0C220121394824
:10147000FFF7C0FA0C2202213648FFF7BBFA0C2214
:1014800004213448FFF7B6FA0C2205213148FFF752
:10149000B1FA0C2208212F48FFF7ACFA0C220F21D9
:1014A0002C48FFF7A7FA44F0010444F0080444F084
:1014B000100444F0400444F4C07400BF44F40064D9
:1014C00044F4805400BF2448046045F0010545F011
:1014D000600545F4A06545F4A04545F4803545F424
:1014E000801545F08075C005C0F8485100231A46A4
:1014F0000121184600F032F84FF4FA7002F088F932
:1015000000231A460221184600F028F8002308227A
:101510000321184600F022F846F0030600BF46F00B
:10152000300600BF46F40076334600220421104600
:1015300000F014F840F2B4500749143108607CBD43
:101540003838024000080240000C024000100240FF
:101550000014024000180240400100A0F0B504460B
:101560000D46002600212943C4F104070120B8409C
:10157000014341EA421141EA43210948016005E083
:10158000761CB6F5001F01D30120F0BD04480830D9
:10159000006800F020000028F2D100BFF5E700004D
:1015A000500100A00CB50020019000904148006857
:1015B00040F480303F49086000BF3E48006800F4B6
:1015C000003000900198401C0190009818B90198D3
:1015D000B0F5A04FF1D13748006800F4003010B1E9
:1015E0000120009001E0002000900098012860D1C7
:1015F00030484030006840F080502E49403108604B
:101600002D48006840F440402B49086029480830C4
:1016100000682849083108600846006840F4004026
:1016200008600846006840F4A05008602348091F7D
:101630000860081F006840F08070091F086000BF44
:101640001C48006800F000700028F9D01A480068B3
:1016500040F480301849086000BF1748406800F423
:1016600080300028F9D01448006840F40030124956
:10167000086000BF1048406800F400300028F9D02E
:1016800040F205700E4908600A480830006820F0F2
:1016900003000849083108600846006840F002006D
:1016A000086000BF03480830006800F00C000828FC
:1016B000F8D10CBD0038024000700040195A4007B4
:1016C000003C0240F0B504460D4616461F4614483D
:1016D000006840F0010012490860002010490831FC
:1016E00008600F4800680F4908400D4908600E481F
:1016F000091D0860081F006820F48020091F086089
:10170000002007490C3108603B46324629462046F6
:1017100000F00CF800210846FFF766FDF0BD000060
:1017200000380240FFFFF6FE10300024F0B50446FA
:101730000D46002100203D4E366846F480363B4F72
:101740003E6001E04E1CB1B2384E366806F40036F9
:101750001EB941F6FF76B142F4DB41F6FF76B142A5
:1017600001D1012060E0314E4036366846F08056A7
:101770002E4F40373E602E4E366846F440462C4F82
:101780003E602A4E0836366846F41446274F08371E
:101790003E60264E366826F08076244F3E6045EA4D
:1017A00084160127C7EB520746EA074646EA036656
:1017B00046F480061D4F3F1D3E603E1F366846F0D2
:1017C00080763F1F3E6000BF184E366806F00076F8
:1017D000002EF9D0174E366846F48076154F3E60DD
:1017E0003E46366846F400763E603E46366846F42D
:1017F00080663E603E46366846F005063E600B4E0B
:101800000836366826F00306084F08373E603E4625
:10181000366846F002063E6000BF044E0836366861
:1018200006F00C06082EF8D1F0BD0000003802408A
:1018300000700040003C024010B51548006840F4BC
:101840007000134908601348006840F00100114916
:10185000086000200F49083108600E4800680E49F2
:1018600008400C4908600D48091D0860081F006801
:1018700020F48020091F0860002006490C31086010
:10188000FFF790FE4FF0006001498039086010BDFD
:1018900088ED00E000380240FFFFF6FE1030002423
:1018A00010B50C48008800F0010058B10A490869D9
:1018B000804700200749143108604FF47A700549C9
:1018C0001C3108600348008820F0010001490880AD
:1018D00010BD0000100800403402002010B50121A6
:1018E0000E4800F036F8C0B10D480078401CC0B278
:1018F0000B490870322801DB002008700948D0E944
:101900000020521C40F100000649C1E9002004F00B
:1019100055FB0121014800F00AF810BD00100040FD
:10192000C8010020B8010020CA4302827047CA43A0
:101930000282704721B1028842F00102028004E075
:1019400002884FF6FE731A40028070470146486ACB
:10195000704730B50246002000230024158A05EAAE
:101960000103958905EA010413B10CB1012000E0DF
:10197000002030BD1AB183890B43838102E0838943
:101980008B4383817047000000220288184B9842E5
:101990000ED0184B98420BD0B0F1804F08D0164BA8
:1019A000984205D0154B984202D0154B984204D16D
:1019B0004FF68F731A404B881A43124B984207D048
:1019C000114B984204D04FF6FF431A400B891A433B
:1019D00002804B68C3620B880385054B984202D096
:1019E000044B984201D18B7A03860123838270478E
:1019F00000000140000401400004004000080040D5
:101A0000000C0040001000400014004070B5054676
:101A10000C461048006840F004000E4908600E486B
:101A20000560001F04800C482038008840F0010049
:101A300009492039088008482C38008840F0010006
:101A400005492C39088002231E2203210846FFF78E
:101A50007BFB70BD403802402C0800401C490988BF
:101A600001F0200109B31A498988C8B219490988C7
:101A700001F40041C9B91749098801F4804161B1F5
:101A80000A2803D00021134A118020E01149098857
:101A900041F400410F4A118019E00D2806D10D498B
:101AA000098841F480410B4A118010E009490988F6
:101AB000C1F30D01084A505406490988491C054ADA
:101AC000118011460988C72901DD00211180704766
:101AD00000100140B4010020980400200FB4054B11
:101AE00010B503A9044A029801F0BAFA10BC5DF8D7
:101AF00014FB0000D9430008B001002003B4019892
:101B00004100009850EAC12018BF04204A0D18BFB8
:101B100040F0010040F2FF72B2EB515F08BF40F0AD
:101B20000200012808BF052002B070470000000035
:101B300070B5C1482DED020B2DED0E8B82B0119DBD
:101B400025F000449FEDBEDB9FEDBFEB84423EDB02
:101B5000A4F140511098A1F17F6108430FD0BC4817
:101B6000844202DC28D1109830B39DED100B02B0F6
:101B7000BDEC0E8B02B0BDE8704001F075B99DED73
:101B8000100B53EC1D2B51EC100BFEF727FC9DEDB9
:101B9000100B41EC180B53EC1E2B51EC100BFEF705
:101BA0001DFC53EC182BFEF772FB41EC100B02B03E
:101BB000BDEC0E8B02B070BD012001F099F902B0AE
:101BC000BDEC0E8B02B0BDE8704001F061B9A148D8
:101BD0009FEDA18B844256DA9DED100BB4F1795F35
:101BE0000ADA51EC100BFFF789FF042808BF01F057
:101BF0005FF99DED100BDAE753EC102B51EC100B55
:101C0000FEF7ECFB41EC190B95480621B0EE490AB2
:101C1000F0EE690A784401F013F853EC192B51ECFB
:101C2000100BFEF7DBFB41EC1A0B8E48B0EE490AB5
:101C3000F0EE690A0421784401F002F853EC192B04
:101C400051EC100BFEF7CAFB53EC182BFEF71FFBF1
:101C500041EC100B51EC1A0B53EC102BFEF730FC3F
:101C6000CDE900019DED000B53EC102B9DED100B09
:101C700051EC100BFEF7B2FB9DED101B53EC112B3A
:101C8000FEF705FBD2E09DED100B51EC100B02F0BE
:101C900097FB53EC182BFEF79EFB9FED730BCDE9E2
:101CA000000153EC102B9DED000B51EC100BFEF7D7
:101CB00095FB41EC190B6E480621B0EE490AF0EE97
:101CC000690A784400F0BCFF53EC192B51EC100B5F
:101CD000FEF784FB41EC1B0B6648B0EE490AF0EEC0
:101CE000690A0421784400F0ABFF53EC192B51EC46
:101CF000100BFEF773FB53EC182BFEF7C8FA41EC00
:101D00001C0B51EC190B04F0ECF841EC180B5A4881
:101D10009FED5BABA04222DC53EC1C2B51EC1B0B68
:101D2000FEF7CEFBCDE900019DED000B51EC180B49
:101D300053EC102BFEF752FB53EC182BFEF7A7FACF
:101D400053EC1A2BFEF74AFB53EC1D2BFEF740FB1E
:101D500053EC1E2BFEF73FFB41EC100B5FE08DEDCB
:101D6000008B002000909DED000B51EC180B53EC04
:101D7000102BFEF78CFA9DED000B41EC1E0B53EC83
:101D8000102B51EC100BFEF729FB53EC192BFEF72F
:101D900022FB53EC1E2BFEF793FB41EC190B53EC8B
:101DA0001C2B51EC1B0BFEF78BFB41EC1B0B53EC7C
:101DB0001A2B51EC190BFEF711FB53EC1D2BFEF700
:101DC0000AFB41EC190B53EC1A2B51EC180BFEF7E4
:101DD00005FB53EC1B2BFEF701FB53EC192BFEF715
:101DE000F7FA9DED000B41EC180B53EC1A2B51EC5C
:101DF000100BFEF7F3FA9FED249B53EC192BFEF723
:101E0000EAFA41EC100B51EC180B53EC102BFEF7D7
:101E1000DFFA53EC192BFEF7DEFA41EC100B002D24
:101E20003FF7C5AE51EC100B81F0004141EC100BB7
:101E3000BDE60000000000000000F03F00000000D0
:101E4000075C143326A6913C182D4454FB21F93F1E
:101E50000000F07F0000E03F000000000000F03FC5
:101E6000005C00000E5C0000000000000000E03F8D
:101E7000525B0000605B00003333EF3F0000000066
:101E80000000000000000040182D4454FB21E93FF1
:101E900070B59B482DED020B2DED068B079D25F0AF
:101EA0000044A04218DC9748844202DC0AD106981C
:101EB00040B19DED060BBDEC068B02B0BDE8704055
:101EC00000F0D2BF002DCCBF9FED8F0B9FED900B8C
:101ED000BDEC068B02B070BD8F48A04215DD8F4867
:101EE000A042D8BF4FF0FF3458DD9DED060B51ECFA
:101EF000100BFFF703FE042808BF00F0D9FF9DED8B
:101F0000060BBDEC068B02B070BD9DED060B51ECCF
:101F1000100B02F055FACDE9060181489FED828B46
:101F2000A0423CDD8248A0421FDD00249FED82AB31
:101F30009DED060B53EC1A2B51EC100BFEF7A7F995
:101F40009DED060B41EC190B53EC1A2B51EC100BC9
:101F5000FEF744FA53EC182BFEF73AFA53EC192B20
:101F6000FEF7AEFACDE9060149E09DED060B01242E
:101F700053EC182B51EC100BFEF789F99DED060B75
:101F800041EC190B53EC182B51EC100BFEF720FA17
:101F900053EC192BFEF794FACDE906012FE06848BF
:101FA000A0421FDD02249FED689B9DED060B53ECC4
:101FB000192B51EC100BFEF711FA53EC182BFEF70E
:101FC00066F99DED060B41EC180B53EC192B51EC07
:101FD000100BFEF7FDF953EC182BFEF771FACDE963
:101FE00006010CE09DED060B032453EC102B9FED36
:101FF000580B51EC100BFEF763FACDE906019DED8D
:10200000060B53EC102B51EC100BFEF7E7F941ECEB
:10201000180B53EC182BFEF7E1F941EC190B4E4865
:102020000621B0EE490AF0EE690A784400F008FE95
:1020300053EC182B51EC100BFEF7D0F941EC180BB8
:102040004648B0EE490AF0EE690A0521784400F0EE
:10205000F7FD53EC192B51EC100BFEF7BFF941ECD7
:10206000100B51EC180B53EC102B002C0EDAFEF772
:102070000EF99DED061B53EC112BFEF7AFF99DED0C
:10208000061B53EC112BFEF7A6F935E0FEF7FFF81F
:102090009DED061B53EC112BFEF7A0F941EC100B44
:1020A0002F48784400EBC40090ED001B51EC100B5E
:1020B00053EC112BFEF78CF99DED061B53EC112B05
:1020C000FEF786F941EC100B2648784400EBC4007B
:1020D00090ED001B51EC100B53EC112BFEF77BF92C
:1020E00041EC100B002DA2BFBDEC068B02B070BD01
:1020F00051EC100B81F0004141EC100B01E70000A6
:10210000000010440000F07F182D4454FB21F93FDB
:10211000182D4454FB21F9BF0000DC3F0000203E95
:102120000000F33F00000000000000000000F03F4E
:102130000000E63F0000000000000000000000403A
:102140000080034000000000000000000000F83F95
:10215000000000000000F0BFA25800005858000026
:10216000E25700009A57000070B56B4E2DED040B3E
:102170002DED028B82B0DDF81CC0DDE905235C4249
:102180002CF000411C4341EAD474049D22F000402D
:10219000B44205D86C422C4340EAD474B4420BD903
:1021A0009DED061B9DED040B02B0BDEC028B04B04F
:1021B000BDE8704000F062BEACF14054A4F17F6411
:1021C0001C430BD0022404EAAC7444EAD2740543E5
:1021D0009FED538B9FED542B07D015E09DED040B25
:1021E00051EC100B01F0D3FA42E0002C11BF012C8E
:1021F0009DED040B02B0BDEC028B04BF04B070BDBA
:10220000022C38D0032C3BD00B439FED491B9FED94
:102210004A0B0AD0B14218D1B04209D121F0804115
:1022200020F08040079105900FE0002A15DA10E0B9
:10223000434B7B44002C08BF93ED000B0DD0012CC9
:1022400010D0022C17D0032C1AD0B0421DD1002A76
:1022500003DAB0EE410AF0EE610A02B0BDEC028B87
:1022600004B070BD93ED000B51EC100B81F00041F8
:1022700041EC100BF1E7B0EE480AF0EE680AECE72B
:10228000B0EE420AF0EE620AE7E7401A00153C2879
:10229000C8BF8DED000B19DCBCF1000FBEBF10F103
:1022A0003C0F9FED290B8DED000B0FDB9DED060B19
:1022B00053EC102B9DED040B51EC100BFEF700F9C5
:1022C00002F07EF801F063FACDE90001002C08BFAE
:1022D0009DED000BC1D0012C10D0022C9FED1C0BEA
:1022E00053EC102B9DED000B51EC100B0DD0FEF7B5
:1022F0006FF853EC182BFEF76BF8B9E7019880F0F4
:10230000004001909DED000BA7E7FEF761F853EC4C
:10231000182BFEF760F8ABE70000F07F000000002C
:10232000182D4454FB210940182D4454FB2109C0A9
:10233000182D4454FB21F9BF182D4454FB21F93FBB
:10234000FA5600000000000000000000000000003D
:10235000075C143326A6A13C10B52F499FED2C1B1A
:102360002DED020B84B0059820F000408842D8BFC4
:102370009DED040B2DDD2949884209D1049840B90F
:102380004FF0010000F0B4FD00F082FD06B010BD7A
:1023900005DB9DED040B00F067FD06B010BD68463F
:1023A0009DED040B00F078F910F0030004BF9DEDE3
:1023B000021B9DED000B0CD001280ED09DED021BE1
:1023C0009DED000B022817D0012000F0B5FC06B0EF
:1023D00010BD00F07DFB06B010BD9DED021B9DED14
:1023E000000B012000F0A8FC51EC100B81F0004123
:1023F00006B041EC100B10BD00F06AFB51EC100B65
:1024000081F0004106B041EC100B10BD000000004F
:102410000000000000000000FB21E93F0000F07F09
:102420002DED020B019820F0004001909DED000B76
:1024300002B07047000000002DE9F0412DED020BC5
:102440009FED3D0B2DED028B9FED3D8BDDE90254A1
:10245000C4F30A50A0F2FF36142E37DA002E18DA31
:1024600053EC102B9DED020B51EC100BFDF70FFF01
:1024700053EC182BFEF7FCF857D2002CA4BF002415
:10248000254652DA24F00040284318BF2E4C4CD089
:102490001AE02E4820FA06F704EA070028431FD066
:1024A00053EC102B9DED020B51EC100BFDF7EFFEE2
:1024B00053EC182BFEF7DCF837D2002C03DA4FF47C
:1024C0008010F0400444BC4300252EE0332E07DC8E
:1024D000A6F114004FF0FF3121FA00F73D4206D17A
:1024E0009DED020BBDEC028B02B0BDE8F08153EC18
:1024F000102B9DED020B51EC100BFDF76CFF53EC14
:10250000182BFEF7B5F810D2002C0DDA142E08BFE8
:10251000641C09D0C6F13400012101FA00F02844FE
:10252000A84238BF641C0546BD43CDE902549DED69
:10253000020BD7E7000000009C7500883CE4377E62
:1025400000000000000000000000F0BFFFFF0F00CF
:1025500010B52F499FED2C1B2DED020B84B0059873
:1025600020F000408842DCBF00209DED040B32DDEE
:102570002849884209D1049840B94FF0010000F081
:10258000B7FC00F085FC06B010BD05DB9DED040B2B
:1025900000F06AFC06B010BD68469DED040B00F02B
:1025A0007BF810F0030011D0012818D09DED021B1C
:1025B0009DED000B02281AD000F08AFA51EC100BA6
:1025C00081F0004106B041EC100B10BD9DED021BE7
:1025D0009DED000B012000F0AFFB06B010BD9DED9E
:1025E000021B9DED000B00F073FA06B010BD012038
:1025F00000F0A2FB51EC100B81F0004106B041EC61
:10260000100B10BD000000000000000000000000E2
:10261000FB21E93F0000F07F00B52DED048BB0EE0B
:10262000409AF0EE609A83B051EC190BFEF72FF947
:1026300041EC180B18EE100A18EE901A8DED008B75
:10264000002818BF0120084320F00040C0F17F603F
:1026500000F1E040C00F14D019EE101A19EE900AE4
:102660008DED009B002918BF0121084320F0004098
:10267000C0F17F6000F1E040C00F04BF012000F016
:1026800037FCB0EE480A03B0F0EE680ABDEC048BEC
:1026900000BD0000000000002DE9F14F04462DEDC3
:1026A000020B2DED088B8AB09FEDE70B80ED020B3E
:1026B000139EE74826F0004585420ADC9DED120B8B
:1026C000002084ED000B0AB0BDEC088B03B0BDE820
:1026D000F08FE0489FEDE0AB9FEDE1BBA84247DD06
:1026E000E14F9FEDE39B9FEDE48B9DED120B53ECCF
:1026F0001A2B51EC100B002E1CDDFDF769FE41EC8E
:10270000100BBD4208D053EC1B2B51EC100BFDF706
:102710005FFEC4E900010BE053EC192B51EC100BE8
:10272000FDF756FE53EC182BFDF752FEC4E90001ED
:102730000120C8E7FDF7ABFD41EC100BBD4208D00E
:1027400053EC1B2B51EC100BFDF7A1FDC4E900016C
:102750000BE053EC192B51EC100BFDF798FD53ECEB
:10276000182BFDF794FDC4E900014FF0FF30AAE7F4
:10277000C348A84279DB9DED120B51EC100B01F020
:102780001FFE41EC180B9FEDC00B53EC102BFDF717
:1027900025FE9FEDBF1B53EC112BFDF778FDFDF7D8
:1027A0001DFF0746FDF709FF41EC190B53EC1A2BEF
:1027B000FDF714FE53EC182BFDF70DFE41EC180B42
:1027C00053EC1B2B51EC190BFDF708FEDFF8C8A2E8
:1027D00041EC100B4FEA15580125FA4453EC102B2D
:1027E00051EC180BFDF7F4FD032DC4E900013DD0B9
:1027F000C1F30A5005EB4511A8EB000011398142E5
:1028000034DA0AEB051BB0EE48AA9BED000BF0EEA4
:1028100068AA53EC102B51EC190BFDF7DFFD41ECCE
:102820001B0B51EC1A0B53EC1B2BFDF7D1FD41ECAC
:10283000180B51EC1A0B53EC182BFDF7C9FD53EC98
:102840001B2BFDF7C5FD9BED020B41EC1A0B53EC66
:10285000102B51EC190BFDF7C1FD53EC1A2BFDF7B2
:10286000B7FD41EC100B6D1CB8E70EE0002EA8BFC1
:102870003846BFF628AF94ED000B51EC100B81F0F9
:102880000041C4E9000178421DE7C6F3130040F49B
:10289000801EC6F30A50A0F2F530471100F01F0564
:1028A000C5F12000DDF848B00890002006900790A0
:1028B0000520EC467949002D07EB0002794408BF5A
:1028C00051F8221009D051F8223001EB8201AB40BF
:1028D0004A68089922FA01F11943A1FB0E26A1FBCF
:1028E0000B131A449A4234BF0123002303EB06085A
:1028F0000CEB8003D3E901A60E448E4234BF0121C4
:10290000002192448A4411B1924502D903E09245D4
:1029100001D2012100E00021C3E901A641444CF8A5
:102920002010011EA0F10100C4DC029800F100504B
:10293000850F0298DDE903678000DDF81480FDF75C
:102940003CFE41EC1A0B3046FEF71CF89FED541B81
:1029500053EC112BFDF742FD41EC1B0B3846FEF703
:1029600011F89FED511B53EC112BFDF737FD41EC96
:10297000180B4046FEF706F89FED4D1B53EC112B4C
:10298000FDF72CFD41EC190B51EC180B53EC192BF6
:10299000FDF77DFC53EC1B2BFDF779FC53EC1A2B58
:1029A000FDF775FCCDE90801002008909DED080BAE
:1029B00053EC1A2B51EC100BFDF70AFD53EC1B2BBB
:1029C000FDF706FD53EC182BFDF702FD53EC192B18
:1029D000FDF701FD9FED381B53EC112BFDF7FEFCBD
:1029E0009FED370B41EC180B53EC102B9DED080BB2
:1029F00051EC100BFDF7F2FC53EC182BFDF747FCE4
:102A00009FED310B41EC180B53EC102B9DED080B97
:102A100051EC100BFDF7E2FC53EC182BFDF737FCE3
:102A200041EC100B139810F0004F06D06D4251ECA2
:102A3000100B81F0004141EC100B284684ED000B97
:102A400041E600000000000000000000000000005F
:102A5000FB21E93F7CD9024000004054FB21F93FB3
:102A60003163621A61B4D03DFB21F93F00000000E0
:102A70000000601A61B4D03D7370032E8A19A33B25
:102A8000FB2139410000000083C8C96D305FE43F7D
:102A9000000000000000E03F5A510000A850000074
:102AA000000000000000103E000000000000103C8C
:102AB000000000000000103A182D4454FB21F93D9D
:102AC0003326A611460B113C00000054FB21F93DB2
:102AD00010B52DED040B2DED088B82B0B0EE419AB0
:102AE000F0EE619A0B9820F000449FED4BABB4F1EF
:102AF000795F11DA9DED0A0B51EC100BFDF76EFDBD
:102B0000002801BFB0EE4A0AF0EE6A0A02B0BDEC3E
:102B1000088B04BF04B010BD9DED0A0B53EC102BC5
:102B200051EC100BFDF75AFC41EC180B3C48062108
:102B3000B0EE480AF0EE680A784400F081F853ECF1
:102B4000182B51EC100BFDF749FC9DED0A0B41ECE5
:102B50001B0B53EC192B51EC100BFDF73FFC41EC18
:102B6000190B53EC1B2B51EC180BFDF737FC53ECF6
:102B7000192BFDF72DFC9FED2C0B41EC190B53ECA1
:102B8000102B51EC180BFDF729FC41EC100B2848D9
:102B9000844210DA53EC192B51EC100BFDF718FCA2
:102BA00053EC1A2BFDF717FC41EC100B02B0BDECF7
:102BB000088B04B010BD1F48A042BCBF9FED1E1B78
:102BC0008DED001B06DBA4F50010019000200090A5
:102BD0009DED001B51EC100B53EC112BFDF7F8FB96
:102BE0009DED000B41EC180B53EC102B51EC1A0B24
:102BF000FDF7EEFB41EC1A0B53EC192B51EC180BC3
:102C0000FDF7E6FB53EC1A2BFDF7E5FB41EC100B4F
:102C1000CCE7000000000000000000000000F03FD2
:102C2000C44D000000000000000000000000E03F74
:102C30003333D33F0000E93F000000000000D23FE3
:102C400070B504462DED028B4D1E00EBC500B0EEB5
:102C5000408AF0EE608A90ED000B35F0060017D048
:102C600053EC182B51EC100BFDF7B8FB41EC100B9B
:102C70006D1E04EBC50090ED001B51EC100B53ECE6
:102C8000112BFDF704FB41EC100B35F00600E7D1EA
:102C9000022D36D0042D1CD0062D1CBFBDEC028B9E
:102CA00070BD53EC182B51EC100BFDF797FB94ED16
:102CB0000A1B53EC112BFDF7EAFA53EC182BFDF726
:102CC0008DFB94ED081B53EC112BFDF7E0FA41EC62
:102CD000100B53EC182B51EC100BFDF77FFB94ED10
:102CE000061B53EC112BFDF7D2FA53EC182BFDF712
:102CF00075FB94ED040B53EC102BFDF7C8FA41EC77
:102D0000100B53EC182B51EC100BFDF767FB94EDF7
:102D1000021B53EC112BFDF7BAFA53EC182BFDF7FD
:102D20005DFB94ED001B53EC112BFDF7B0FABDECED
:102D3000028B41EC100B70BD31B504462DED040B38
:102D40002DED0A8BB0EE41BAF0EE61BA0B989DED15
:102D50000A0B20F00040B0F1795F0DDA51EC100B56
:102D6000FEF7CCFE042808BF00F0A2F89DED0A0B88
:102D7000BDEC0A8B05B030BD53EC102B51EC100BA1
:102D8000FDF72CFB41EC180B9DED0A0B53EC182BB7
:102D900051EC100BFDF722FB41EC190B2C48B0EE67
:102DA000480AF0EE680A05217844FFF749FF9FEDD5
:102DB0002ACBB0EE40AAF0EE60AA9CB353EC1C2BD9
:102DC00051EC190BFDF70AFB41EC1C0B53EC1A2BD1
:102DD00051EC190BFDF702FB9FED210B41EC190B98
:102DE00053EC102B51EC1B0BFDF7F8FA53EC192B9D
:102DF000FDF7EEFA53EC182BFDF7F0FA53EC1B2B12
:102E0000FDF7E6FA53EC1C2BFDF7E2FA9DED0A1BE9
:102E100053EC112BFDF7DFFABDEC0A8B05B041EC4A
:102E2000100B30BDFFE753EC1A2B51EC180BFDF7DC
:102E3000D5FA53EC1C2BFDF72AFA53EC192BFDF7AE
:102E4000CDFA9DED0A1B53EC112BFDF720FAE3E7B9
:102E5000544C000000000000495555555555C5BF5C
:102E6000000000000000E03F10B553EC102B51ECC7
:102E7000100BFDF70CFA41EC100B10BD10B553EC24
:102E8000112B51EC100BFDF702FA41EC100B10BDA9
:102E90009FED050B10B553EC102B51EC100BFDF70B
:102EA0000FFB41EC100B10BD000000000000000003
:102EB0009FED050B10B553EC102B51EC100BFDF7EB
:102EC0008DFA41EC100B10BD000000000000001056
:102ED00002E008C8121F08C1002AFAD170477047E3
:102EE000002001E001C1121F002AFBD17047000041
:102EF0000149086070470000280300202DE9FF5FAA
:102F0000DDE90220010DDDF838B0024318D044F6A7
:102F10001050A1F2FF3141430D140F98012820D029
:102F2000A5EB0B00401C5FEA000A4FF00004474E7F
:102F3000DFF81C91A046504616D5CAF1000728E0DC
:102F40000F98012443A2012808D0002100980F9B6C
:102F5000C0E90021C0E90243BDE8FF9F6FEA0B0111
:102F6000F4E7CBF10000DEE7074612E0F80707D0F0
:102F70002246334640464946FDF730FA80468946A8
:102F80002246334610461946FDF728FA04460E46F7
:102F90007F10002FEAD1DDE90201BAF1000F4246AD
:102FA0004B4602DAFDF71AFA01E0FDF789FA04460A
:102FB0000E460022284BFDF75BFB03D84FF0FF3095
:102FC000014607E00022254B20463146FDF75FF918
:102FD000FDF7AEFC102409E0002C0ADB0A220023D6
:102FE000FDF700F9019B30321A55641E50EA0102C8
:102FF000F2D1641C019AC4F1110314440F9A012AFE
:1030000003D0012208430DD10AE0084304D0002078
:103010004FF0110B0F9080E7A3EB0B056D1E0DE039
:103020005B4504DD4FF0000205F1010504E003DA21
:103030004FF00002A5F10105002AECD000980F998D
:10304000C0E90231C0E9004586E7000000002440E5
:103050000000F03F300000000000F0430000E03FBF
:103060002DE9FF4F95B09B468946064600250FE2A5
:10307000252877D100242746F84A0121059400E04D
:10308000044316F8013F203B01FA03F01042F7D148
:1030900030782A2811D06FF02F033078A0F1300259
:1030A000092A16D8059A44F0020402EB820203EBC7
:1030B00042021044761C0590EFE759F8042B059264
:1030C000002A03DA504244F40054059044F002040C
:1030D000761C30782E2816D116F8010F44F004041F
:1030E0002A280DD06FF02F023078A0F13003092B81
:1030F00009D807EB870302EB4303C718761CF3E7F5
:1031000059F8047B761C30786C280FD006DC4C28EC
:1031100017D068280DD06A2814D104E0742810D084
:103120007A280FD10DE044F400140AE044F480142E
:1031300001E044F440147278824202D104F5801414
:10314000761C761C307866280BD013DC582877D094
:1031500009DC002875D04528F6D04628F4D0472849
:103160001AD19DE118E0632835D0642879D065280C
:1031700012D195E1702873D008DC6728F1D0692856
:103180006FD06E280DD06F2806D1B5E073282CD0F3
:10319000752875D0782874D05A46179990476D1CB9
:1031A00075E1C4F30250022809D003280DD0D9F8E4
:1031B000001004280DD00D6009F1040967E1D9F869
:1031C0000010EA17C1E90052F6E7D9F800100D80A7
:1031D000F2E70D70F0E719F8041B8DF800100020DD
:1031E0008DF80100EA46012003E059F804AB4FF0E6
:1031F000FF3061074FF0000102D40DE008F101013A
:103200008846B9420FDA8045F8DB1AF80810002921
:10321000F4D108E008F1010188468142FADB1AF88E
:1032200008100029F6D105985B46A0EB0807214657
:103230003846179A00F094FA284400EB080507E096
:103240004DE029E10DE01AF8010B5A461799904715
:10325000B8F10108F7D25B4621463846179A13E1C8
:1032600042E00A220092C4F302524FF0000A022AFE
:1032700008D059F804CB032A4FEAEC710AD00DE0CC
:1032800029E02AE009F1070121F00702F2E802C172
:10329000914609E00FFA8CFC4FEAEC71042A03D145
:1032A0004FFA8CFC4FEAEC71002907DA0A4600213C
:1032B000DCF1000C61EB02012D2202E0220504D5B5
:1032C0002B228DF80420012203E0E20701D0202206
:1032D000F7E7904659E00A2102E010220DE01021A4
:1032E0004FF0000A00910BE010224FF0000A44F06A
:1032F00004040827009203E008224FF0000A00921D
:10330000C4F30252022A05D059F804CB0021032A43
:1033100008D009E009F1070121F00702F2E802C133
:10332000914605E01FFA8CFC042A01D10CF0FF0C39
:103330004FF00008220728D5702806D0009B83F0A4
:10334000100353EA0A0305D00EE040228DF8042052
:10335000012208E05CEA010206D030228DF8042048
:103360008DF8050002229046009B83F0080353EA83
:103370000A030AD15CEA010201D1620705D53022B5
:103380008DF804204FF001087F1E582804D034A087
:1033900003900EA802900DE036A0F9E75346604670
:1033A000009AFCF71FFF84460398825C0298401E37
:1033B000029002705CEA0100F0D1029806A9081A96
:1033C00000F1200A600702D524F4803400E00127D0
:1033D000574502DDA7EB0A0000E0002000EB0A01E0
:1033E000009005984144401A0590E00306D45B46DE
:1033F0002146179A059800F0B3F90544002706E026
:1034000001A85A46C05D179990476D1C7F1C47451F
:10341000F6DBE0030CD55B462146179A059800F0D1
:103420009FF9054404E030205A46179990476D1CD7
:103430000099481E00900029F5DC08E002980299E6
:103440005A460078491C0291179990476D1CBAF1B1
:103450000001AAF1010AF1DC65E100000928010080
:1034600030313233343536373839616263646566FA
:1034700000000000303132333435363738394142BC
:10348000434445460000000000F058F90544761C0E
:10349000307800287FF4ECAD19B02846BDE8F08FF5
:1034A000620700D4062709F1070222F0070CFCE8A6
:1034B0000223E14603F000485FEA080C02D00FF255
:1034C000702C0DE05FEA045C02D50FF2682C07E077
:1034D0005FEAC47C02D00FF2602C01E0AFF2700C06
:1034E0004FF0FF3823F00043CDF850C065280CD0D2
:1034F00006DC452809D046281DD047283DD13DE0AF
:10350000662818D067287ED138E00021112F01DB12
:10351000112000E0781CCDE9000106A90EA8FFF7F4
:10352000EDFCDDE90F010E9A03910021009207F1F5
:10353000010A04914DE04FF000400097CDE90110E1
:1035400006A90EA8FFF7DAFCDDE90F0203920E9B35
:1035500011990022DDF80CA00093049211B9791C96
:1035600000EB010AB7EB0A0004D4C0F1FF3007F109
:10357000010A0490AAEB0700019044E0012F00DA51
:1035800001270021112F01DD112000E03846CDE98F
:10359000000106A90EA8FFF7B1FCDDE90F010E9AA4
:1035A0000391002104910092BA4621070CD403999B
:1035B000514500DA8A46BAF1010F05DD009AAAF1F9
:1035C0000101515C302908D0B84202DA10F1040F31
:1035D00006DA0121CDE9011015E0AAF10101E9E7C0
:1035E000002805DC049901440491AAEB000102E0E3
:1035F000411C514500DD8A460499401A401C019047
:103600004FF000400290200704D40198504501DBA0
:10361000CDF8048000208DF84F0002980DF14F077F
:10362000B0F1004F25D02B200E9002984FF00208E9
:1036300000280CDA404202902D200E9007E00A216B
:103640000298FDF749F83031029007F8011DB8F1F2
:103650000001A8F10108F2DC02980028EFD1791EE0
:103660000E980870307800F0200040F0450007F810
:10367000020D12A8C01B00F107081498007800B1D1
:10368000012000EB0A01019801EBE071059841442B
:10369000401A401E0590E00306D45B462146179A67
:1036A000059800F05DF805441498007818B15A4662
:1036B000179990476D1CE00324D55B462146179A65
:1036C000059800F04DF805441CE00498002807DB3D
:1036D000DDE90301884203DD0098405C179901E0B1
:1036E000179930205A469047049805F10105401C6F
:1036F00004900198401E019004D12E205A4617993B
:1037000090476D1CBAF10001AAF1010ADDDC05E069
:1037100017F8010B5A46179990476D1CB8F1000134
:10372000A8F10108F4DC5B462146179A0598ABE640
:103730002D0000002B000000200000002DE9F041CA
:10374000044600251E461746880404D405E0394681
:103750002020B0476D1C641EF9D52846BDE8F081D5
:103760002DE9F041044600251E469046C80301D5C8
:10377000302700E02027880404D505E0414638467C
:10378000B0476D1C641EF9D52846BDE8F08110B520
:1037900041EC100BFEF77CFB51EC100B10BD000050
:1037A0004FF0E021096921F004014FF0E02211619E
:1037B000C21700EB5272C2F3C702054B1A704FF4E6
:1037C0007A714143C1F3CF01024A11807047000072
:1037D000AC010020AE01002070B504464FF4077024
:1037E00094FBF0F0C6B24FF4077094FBF0F100FBCD
:1037F000114085B205E04FF4077000F027F8701E05
:10380000C6B2002EF7D115B1284600F01FF870BDE2
:1038100001460D4A12784A434FF0E0235A610022D4
:103820009A6101221A6100BF4FF0E022106900F096
:1038300001021AB100F48032002AF5D000224FF0C4
:10384000E0231A619A617047AC01002001460D4ADD
:1038500012884A434FF0E0235A6100229A61012204
:103860001A6100BF4FF0E022106900F001021AB1A6
:1038700000F48032002AF5D000224FF0E0231A61D4
:103880009A617047AE0100202DE9FF4F2DED040B2A
:103890002DED0E8BADF5357D91469B46F0EE409AB1
:1038A000B0EE60AAF0EE41AADDF850A3F4EE4A9A19
:1038B000F1EE10FA7ED03AEE690AC0EE2A8AB0EE36
:1038C000000A6AEE000A80EEA80A70EE2ADAB0EE6C
:1038D000000AC8EE800A99ED000A30EE800A8DEDEC
:1038E000000A0098FCF799FE41EC1C0BB0EE4C0A64
:1038F000F0EE6C0AFEF730FDB0EE40EAF0EE60EA62
:1039000051EC1E0BFCF7CCFE00EE100A6DEE80DAD7
:10391000B0EE000AC8EE800ACDED000A0098FCF770
:103920007CFE41EC1E0BB0EE4E0AF0EE6E0AFEF786
:103930000FFEB0EE40CAF0EE60CA51EC1C0BFCF773
:10394000AFFE00EE100A6DEE80BAB0EE000A6AEE2D
:10395000000A80EEA80A70EE2ADAF0EE000A88EE7D
:10396000A00AD9ED000A30EE200A8DED000A009879
:10397000FCF753FE41EC1C0BB0EE4C0AF0EE6C0A67
:10398000FEF7E6FDB0EE40EAF0EE60EA51EC1E0B09
:10399000FCF786FE00EE100A6DEE80DAB0EE000A4B
:1039A000C8EE800ACDED000A0098FCF736FE41EC27
:1039B0001C0B00E014E0B0EE4C0AF0EE6C0AFEF7CF
:1039C000C7FDB0EE40EAF0EE60EA51EC1E0BFCF7EA
:1039D00067FE00EE100A2DEE80DAB0EE688A37E05E
:1039E00099ED000A10EE101A0846FCF716FE41EC9D
:1039F0001C0BB0EE4C0AF0EE6C0AFEF7ADFCB0EE1C
:103A000040EAF0EE60EA51EC1E0BFCF749FE00EED6
:103A1000100A60EE29BA99ED000A10EE101A084655
:103A2000FCF7FBFD41EC1C0BB0EE4C0AF0EE6C0A0F
:103A3000FEF78EFDB0EE40EAF0EE60EA51EC1E0BB0
:103A4000FCF72EFE00EE100A20EE29DA9FEDFE8A2A
:103A5000002536E0002431E09FEDFB0A072000FB43
:103A6000045182A800EB810080ED000A002622E0CC
:103A7000072000FB045182A800EB810090ED000AB2
:103A8000072000FB06500AEB800090ED001A07208B
:103A900000FB0461ED48405600EE900AF8EEE00AA3
:103AA00001EE200A072000FB045082A901EB8000F0
:103AB00080ED000A761C072EDADB641C032CCBDBBE
:103AC0006D1C072DC6DB00256DE0002431E09FED65
:103AD000DE0A032000FB0451A0A800EB810080ED6A
:103AE000000A002622E0032000FB0450A0A901EBFD
:103AF000800090ED000A032000FB0650D4490856D0
:103B000000EE900AF8EEE00A072000FB04600AEBE2
:103B1000800090ED001A00EE810A032000FB0450A3
:103B2000A0A901EB800080ED000A761C072EDADBED
:103B3000641C072CCBDB002432E09FEDC30AB0EEFF
:103B4000409A002617E0032000FB0650A0A901EBD5
:103B50008000D0ED000A072000FB0460BB49085636
:103B600000EE100AB8EEC01AB0EE490A00EE810A63
:103B7000B0EE409A761C072EE5DB032000FB0451D3
:103B8000D59800EB810090ED000A30EE090A032081
:103B900000FB045197A800EB810080ED000A641C33
:103BA000032CCADB6D1C032D8FDB00264FF00108B0
:103BB00002279DED970A10EE101A0846FCF72DFD1E
:103BC00041EC1C0BB0EE4C0AF0EE6C0AFEF728FC40
:103BD000B0EE40EAF0EE60EA51EC1E0BFCF760FD3F
:103BE00009EE100A9DED980A10EE101A0846FCF72F
:103BF00014FD41EC1E0BB0EE4E0AF0EE6E0AFEF71D
:103C00000FFCB0EE40CAF0EE60CA51EC1C0BFCF7A2
:103C100047FD0BEE100AB4EEC9BAF1EE10FA04DD5E
:103C2000B0EE4B9A01264FF000089DED990A10EE78
:103C3000101A0846FCF7F1FC41EC1C0BB0EE4C0AE4
:103C4000F0EE6C0AFEF7ECFBB0EE40EAF0EE60EA54
:103C500051EC1E0BFCF724FD00EE100AB4EEC90A6D
:103C6000F1EE10FA03DD02264FF00108002797A8B5
:103C700000EB880090ED000A97A800EB8600D0EDDD
:103C8000000A80EE201A97A800EB880080ED001A49
:103C900097A800EB870090ED000A97A800EB86003C
:103CA000D0ED000A80EE201A97A800EB870080ED87
:103CB000001A08F1030097A901EB800090ED000ABB
:103CC00097A800EB8800D0ED000AF01C01EB800003
:103CD00090ED001A00EEC10A08F1030001EB80002C
:103CE00080ED000AF81C01EB800090ED000A97A817
:103CF00000EB8700D0ED000AF01C01EB800090ED96
:103D0000001A00EEC10AF81C01EB800080ED000AE9
:103D100008F1060001EB800090ED000A97A800EB87
:103D20008800D0ED000AB01D01EB800090ED001A74
:103D300000EEC10A08F1060001EB800080ED000AE8
:103D4000B81D01EB800090ED000A97A800EB8700FA
:103D5000D0ED000AB01D01EB800090ED001A00EEDE
:103D6000C10AB81D01EB800080ED000AF81C97AA7B
:103D700002EB800090ED000A10EE101A0846FCF7E6
:103D80004CFC41EC1C0BB0EE4C0AF0EE6C0AFEF75A
:103D900047FBB0EE40EAF0EE60EA51EC1E0BFCF798
:103DA0007FFC0DEE900A08F1030097AA02EB800059
:103DB00090ED000A10EE101A0846FCF72EFC41ECBC
:103DC0001C0BB0EE4C0AF0EE6C0AFEF729FBB0EECD
:103DD00040EAF0EE60EA51EC1E0BFCF761FC00EEED
:103DE000100AF4EEC0DAF1EE10FA02DD4546B846EC
:103DF0002F46F81C97A901EB800090ED000A08F10E
:103E0000030001EB8000D0ED000A80EE201AF81CC0
:103E100001EB800080ED001AB81D01EB800090EDF1
:103E2000000AF81C01EB8000D0ED000A08F1060042
:103E300001EB800090ED001A00EEC10AB81D01EB05
:103E4000800080ED000A05E000000000BC7700085B
:103E5000D17700080024F5E082A800EB840090ED03
:103E6000000A97A800EB8600D0ED000A80EE201A29
:103E7000072000FB06406DA901EB800080ED001AD1
:103E8000E01D82A901EB800090ED000A072000FBF5
:103E900006406DA901EB8000D0ED000AF01C97A947
:103EA00001EB800090ED001A00EEC10A072000FB34
:103EB00008406DA901EB800080ED000A04F10E00BE
:103EC00082A901EB800090ED000A072000FB06416B
:103ED0006DA800EB8100D0ED000AB01D97A901EBA1
:103EE000800090ED001A00EEC10A072000FB074099
:103EF0006DA901EB800080ED000A072000FB08405F
:103F000001EB800090ED000A08F1030097A901EB96
:103F10008000D0ED000A80EE201A072000FB084048
:103F20006DA901EB800080ED001A072000FB07401F
:103F300001EB800090ED000A072000FB084001EB38
:103F40008000D0ED000A08F1060097A901EB80007F
:103F500090ED001A00EEC10A072000FB07406DA992
:103F600001EB800080ED000A072000FB074001EB19
:103F7000800090ED000AB81D97A901EB8000D0EDFC
:103F8000000A80EE201A072000FB07406DA901EB14
:103F9000800080ED001A072000FB084001EB800044
:103FA00090ED000A072000FB074001EB8000D0EDF8
:103FB000000AF81C97A901EB800090ED001A00EEB2
:103FC000C10A072000FB08406DA901EB800080EDCD
:103FD000000A072000FB064001EB800090ED000A7C
:103FE000072000FB074001EB8000D0ED000A97A8F6
:103FF00000EB870090ED001A00EEC10A072000FBDD
:10400000064001EB800080ED000A072000FB06401F
:1040100001EB800090ED000A072000FB084001EB57
:104020008000D0ED000A97A800EB880090ED001A00
:1040300000EEC10A072000FB064001EB800080ED86
:10404000000A641C072CFFF607AFCDED67BA8DEDB3
:1040500068DAB1EE480A8DED690A002536E01FEDF9
:10406000860A6AA800EB850080ED000A002419E0AA
:104070006AA800EB850090ED000A032000FB0450C5
:10408000CB49085600EE900AF8EEE00A0BEB8400EC
:1040900090ED001A00EE810A6AA800EB850080ED21
:1040A000000A641C072CE3DB67A800EB850090ED99
:1040B000000A6AA800EB8500D0ED000A30EE600A25
:1040C00064A800EB850080ED000A6D1C032DC6DBA3
:1040D000002593E01FEDA40AB0EE409A002413E0FF
:1040E000072000FB04506DA901EB8000D0ED000A11
:1040F00064A800EB840090ED001AB0EE490A00EECF
:10410000810AB0EE409A641C032CE9DB0BEB8500BE
:1041100090ED000A30EE090A0BEB850080ED000AF5
:10412000002433E01FEDB80AB0EE409A002617E0F5
:10413000072000FB06506DA901EB8000D0ED000ABE
:10414000032000FB04609A49085600EE100AB8EEFE
:10415000C01AB0EE490A00EE810AB0EE409A761C11
:10416000032EE5DB072000FB04509249085600EEC1
:10417000100AB8EEC00A30EE490A072000FB0451CD
:1041800033A800EB810080ED000A641C072CC9DB1A
:10419000002430E01FEDD40A072000FB045002A9E0
:1041A00001EB800080ED000A002621E0072000FBE3
:1041B000045002A901EB800090ED000A072000FBEB
:1041C000065033A901EB8000D0ED000A072000FB68
:1041D00004600AEB800090ED001A00EE810A0720CF
:1041E00000FB045002A901EB800080ED000A761C60
:1041F000072EDBDB641C072CCCDB6D1C072DFFF6C8
:1042000069AF002514E000240FE0072000FB054003
:1042100002A901EB800090ED000A072000FB054099
:104220000AEB800080ED000A641C072CEDDB6D1C9E
:10423000072DE8DB002521E000241CE0072000FB1F
:1042400005400AEB800090ED000A072000FB0450B7
:104250000AEB8000D0ED000A30EE200AF6EE000AEC
:1042600020EE200A072000FB054033A901EB800067
:1042700080ED000A641C072CE0DB6D1C072DDBDBE6
:10428000002514E000240FE0072000FB054033A9BF
:1042900001EB800090ED000A072000FB05400AEBCF
:1042A000800080ED000A641C072CEDDB6D1C072DDF
:1042B000E8DB0020019018E00721019801FB0000D5
:1042C0000AEB800090ED000AB5EEC00AF1EE10FA9C
:1042D00008D29FED390A019801FB00000AEB80002B
:1042E00080ED000A0198401C019001980728E3DB4B
:1042F000002521E0C79800EB850090ED000A0BEB4C
:104300008500D0ED000A30EE200AC79800EB85004A
:1043100080ED000AC89800EB850090ED000AE81CCB
:104320000BEB8000D0ED000A30EE200AC89800EBBD
:10433000850080ED000A6D1C032DDBDB99ED000A82
:10434000DBED060A30EE200A89ED000A99ED000A3D
:10435000DFED1A0A80EE201A89ED001A99ED000AA5
:1043600010EE101A0846FCF758F941EC1C0BB0EEA1
:104370004C0AF0EE6C0AFEF75FF8B0EE40EAF0EEA1
:1043800060EA51EC1E0BFCF78BF900EE100AD9ED38
:10439000000A30EEC00ADFED090A20EE200A89ED9E
:1043A000000A0DF5357DBDEC0E8B08B0BDE8F08F31
:1043B000D1770008E677000800000000DB0FC94055
:1043C00082B0CDE9000121F0004001909DED000B8D
:1043D00002B051EC100B704700BF054A128802F082
:1043E0004002002AF9D0C2B2014B9A807047000007
:1043F0000010014070B500BF00F018F8094A03C270
:104400000848D0E900200849D1E90031D41A60EB0E
:1044100001050448D0E90010034AC2E90010204613
:10442000294670BDD0010020D80100202DE9F041BF
:104430000D48FDF78BFA002706465A223B463946BF
:10444000FBF7D0FE094B0CCB0A264FF0000CA2FB69
:10445000067803FB068302FB0C32C41941EB02050C
:1044600020462946BDE8F08100100040B801002038
:1044700010B52DED068BB0EE408AB0EE000A28EEA6
:10448000000A10EE101A0846FCF7C7F841EC1A0BA8
:10449000B0EE4A0AF0EE6A0AFDF75EFFB0EE409A0F
:1044A000F0EE609A51EC190BFCF7FAF800EE900A66
:1044B0009FED040A9FED041A01EE600ABDEC068B25
:1044C00010BD000060E51C4100FED43C2DE9F04128
:1044D0002DED0A8BC6B005462C213BA8FBF7CCFE80
:1044E0002C2130A8FBF7C8FEB7EE000AB0EE408AD8
:1044F00000BF4FF0000818EE100AFCF78EF841ECF0
:10450000190B9FEDE00B53EC102BFCF799F819D821
:10451000BDEEC80A10EE107ABDEEC80A10EE100A01
:10452000C01C2490002409E005EB840090ED000AF3
:1045300019A800EB840080ED000A641CB81C8442BA
:10454000F2DDB2E018EE100AFCF767F841EC1A0B46
:104550009FEDCE0B53EC102BFBF73DFF41EC190BFD
:104560009FEDC80B53EC102BFCF76AF845D218EE00
:10457000100AFCF752F841EC1A0B9FEDC20B53ECFA
:10458000102BFBF725FF41EC190BFCF727F8C0F1C6
:104590000C00249018EE100AFCF73FF841EC1A0BBF
:1045A0009FEDB80B53EC102BFBF712FF41EC190BEE
:1045B000FCF714F8C0F10C0700241BE018EE100AF9
:1045C000FCF72BF841EC1A0B9FEDAE0B53EC102BC4
:1045D000FBF7FEFE41EC190BFCF700F82044401EEF
:1045E00005EB800090ED000A19A800EB840080ED37
:1045F000000A641CBC42E1DB57E018EE100AFCF72D
:104600000CF841EC1B0B9FED9F0B53EC102BFBF7B1
:104610003EFE41EC190B18EE100AFBF7FEFF41ECD1
:104620001B0B9FED980B53EC102BFBF7D1FE41ECCD
:104630001A0B53EC192BFCF71BF802D200240026AE
:1046400021E018EE100AFBF7E8FF41EC1A0B9FED92
:104650008D0B53EC102BFBF7BBFE41EC190BFBF75A
:10466000BDFF441E18EE100AFBF7D7FF41EC1A0BF2
:104670009FED840B53EC102BFBF709FE41EC190B5B
:10468000FBF7ACFF0646301B2490371B00260AE0E0
:10469000A01905EB800090ED000A19A800EB860038
:1046A00080ED000A761CBE42F2DB24A919A801F0B5
:1046B0009BFA24980D90249F00240AE019A800EB8F
:1046C000840090ED000A0EA800EB840080ED000A43
:1046D000641CBC42F2DB0DA90EA800F083FCFDEEC9
:1046E000C80A10EE900A401E30A901EB800080ED50
:1046F000000A249F002416E019A800EB8400D0EDE6
:10470000000ABDEEC80A10EE100A401E30A901EBE7
:10471000800090ED000A30EEC00A02A800EB840091
:1047200080ED000A641CBC42E6DB249840B2019094
:1047300000241DE002A800EB840090ED000A10EEBA
:10474000101A0846FBF769FF41EC1A0BB0EE4A0A53
:10475000F0EE6A0AFDF764FEB0EE409AF0EE609A61
:1047600051EC190BFBF79CFF0EA941F82400641CC7
:10477000601C24998142DDDA01A90EA800F032FC08
:10478000FDEEC80A10EE900A401E3BA901EB800026
:1047900080ED000A18EE100AFBF73FFF41EC190B01
:1047A0009FED3A0B53EC102BFBF74AFF02D14FF071
:1047B000010805E0B7EE000A38EE000AB0EE408AC4
:1047C000B8F1000F3FF495AE002451E005EB8400F2
:1047D00090ED000AF0EE408A3BA800EB840090EDDB
:1047E000000A10EE101A0846FBF717FF41EC1C0BED
:1047F0009FED280B53EC102BFBF7F0FD41EC1B0B4E
:104800009FED200B53EC102BFBF7E8FD41EC190B4F
:1048100005EB840090ED000A30A800EB8400D0ED99
:10482000000A30EE600A10EE101A0846FBF7F5FE9B
:1048300041EC1B0BB0EE4B0AF0EE6B0AFDF7F0FDFE
:10484000B0EE40AAF0EE60AA53EC192B51EC1A0B13
:10485000FBF7F6FE06D930A800EB840090ED000AC5
:10486000F0EE408A25A800EB8400C0ED008A641CAD
:104870000B2CABDB9DED2F0A46B0BDEC0A8BBDE8DF
:10488000F08100000000000000000840000000006F
:10489000000026407456971ABDB8F73F2DED108BD7
:1048A000BAB00020379038903990349035903690D7
:1048B0001822FE492EA8FBF7C6FC1822FB49183126
:1048C00028A8FBF7C0FCF94A3032D2E90010926800
:1048D000CDE9260225911822F44940311EA8FBF7A4
:1048E000B2FC00BF00BF00BF9FEDF10A8DED1D0AB5
:1048F0009FEDF00A8DED1C0A9FEDEF0A8DED1B0A6E
:104900002422EA49583112A8FBF79DFC0823022211
:1049100019214FF4B470FCF7D5FEB420FEF740FF28
:104920004FF4E1315A2001F0D5FDE44841685A20A6
:104930008847FCF7ADFCFCF7D5FA01F009FBE0A0D5
:10494000FDF7CCF89FEDDF0AFFF792FDF0EE408A0D
:1049500018E34FF47A75DC4ADC49DD48FCF730FA9D
:10496000DC4ADD49DD48FCF753FAD948B0F90000CC
:1049700000EE100AF8EEC00A9FEDD91A80EE810A07
:1049800020EE280AD74880ED000AD048B0F9000090
:1049900000EE100AF8EEC00A9FEDD11A80EE810AEF
:1049A00020EE280AD04880ED000AC748B0F9000080
:1049B00000EE100AF8EEC00A9FEDC91A80EE810AD7
:1049C00020EE280AC94880ED000AC448B0F900006A
:1049D00000EE100AB8EEC00A10EE100AFBF71DFE3A
:1049E00041EC1C0B9FEDC20B53EC102BFBF768FD49
:1049F00041EC1D0B9FEDC00B53EC102BFBF7EEFCB5
:104A000041EC1E0B9FEDBE0B53EC102BFBF758FD3A
:104A100041EC1F0BFBF744FEBB490860AE48B0F900
:104A2000000000EE100AB8EEC00A10EE100AFBF704
:104A3000F4FD41EC1F0B9FEDAE0B53EC102BFBF77D
:104A40003FFD41EC1E0B9FEDAC0B53EC102BFBF725
:104A5000C5FC41EC1D0B9FEDAA0B53EC102BFBF793
:104A60002FFD41EC1C0BFBF71BFEA8490860994881
:104A7000B0F9000000EE100AB8EEC00A10EE100AFD
:104A8000FBF7CBFD41EC1C0B9FED990B53EC102B6E
:104A9000FBF716FD41EC1D0B9FED970B53EC102B14
:104AA000FBF79CFC41EC1F0B9FED950B53EC102B7F
:104AB000FBF706FD41EC1E0BFBF7F2FD9449086085
:104AC00094480068A84224DA934890ED000A8E4882
:104AD000D0ED000A30EE200A8F4880ED000A90EDFC
:104AE000010A8A48D0ED000A30EE200A8A4880ED9B
:104AF000010A90ED020A0846D0ED000A30EE200AC5
:104B0000854880ED020A83480068401C814908609E
:104B100037E280480068A84229D17F48D0ED000ADA
:104B200000EE105AB8EEC00A80EE801A7B4880ED85
:104B3000001A7948D0ED010A00EE105AB8EEC00A0A
:104B400080EE801A754880ED011A7348D0ED020A94
:104B500000EE105AB8EEC00A80EE801A6F4880ED61
:104B6000021A6C480068401C6A49086009E26B48F8
:104B700090ED000A6448D0ED000A30EEC00A80EDE6
:104B8000000A664890ED010A6048D0ED000A30EE58
:104B9000C00A80ED000A614890ED020A5C48D0ED41
:104BA000000A30EEC00A80ED000A002442E05C49B1
:104BB000601C01EB800090ED000A084600EB8400C9
:104BC00080ED000A5749601C01EB800090ED000A5F
:104BD000084600EB840080ED000A5349601C01EB9D
:104BE000800090ED000A084600EB840080ED000A8A
:104BF0004E49601C01EB800090ED000A084600EB76
:104C0000840080ED000A4A49601C01EB800090EDB1
:104C1000000A084600EB840080ED000A4549601C4C
:104C200001EB800090ED000A084600EB840080ED67
:104C3000000A641C0A2CBADB334890ED000A38489D
:104C400080ED0A0A314890ED000A364880ED0A0AE4
:104C50002F4890ED000A344880ED0A0A214890ED73
:104C6000000A324880ED0A0A1F4890ED000A3048D9
:104C700080ED0A0A1D4890ED000A2E4880ED0A0AD0
:104C8000274890ED000AB5EEC00AF1EE10FA7DD08B
:104C9000FFF71CFCB0EE409A2248FFF717FCF0EE3D
:104CA000409A2148FFF712FC46E0000020770008F8
:104CB000B81E053E9A99193E0AD7A33E3402002039
:104CC0000D0A00008C95CA3E080000200600002056
:104CD000040000200E0000200C0000200A0000202C
:104CE0000000804610000020180000201400002062
:104CF0006666666666663040182D4454FB2109409E
:104D000000000000008066401C0000202000002001
:104D100024000020A8010020800400208C04002032
:104D200078030020A4030020D0030020FC0300200F
:104D30002804002054040020B0EE40AA9248FFF757
:104D4000C5FBF0EE40AA9148FFF7C0FBB0EE40BAB9
:104D50008F48FFF7BBFBF0EE40BA8E48C0ED00AACB
:104D6000B1EE4B0A80ED010AB1EE6B0A80ED020A4A
:104D7000894880ED009AB1EE690A80ED010AB1EE32
:104D80004A0A80ED020AFFF735FB00E0F9E006462B
:104D9000FBF705FC8046FBF740FC9FED800B53ECD6
:104DA000102BFBF71BFB9FED7D0B53EC102BFBF740
:104DB00015FBFBF775FC7B4908607B4B084690EDC3
:104DC000000A754A79497A4801F00CF9794B774A1B
:104DD0007049774800F004FA744890ED000A20EE1C
:104DE000000AD0ED010A90ED011A00EE810AD0ED23
:104DF000020A90ED021A00EE810AD0ED030A90ED4E
:104E0000031A00EE810A10EE101A0846FBF705FCA3
:104E100041EC1C0BB0EE4C0AF0EE6C0AFDF7FCFB0B
:104E2000B0EE40DAF0EE60DA51EC1D0BFBF738FC27
:104E300008EE100A5D4890ED000AC0EE080AC0EDC9
:104E4000000A90ED010AC0EE080AC0ED010A90EDDB
:104E5000020AC0EE080AC0ED020A90ED030AC0EE95
:104E6000080AC0ED030A37A900F0F6FE00241DE091
:104E700037A800EB840090ED000ADFED4F0A20EE2A
:104E8000200A10EE101A0846FBF7C7FB41EC1D0B79
:104E90001FED670B53EC102BFBF712FB41EC1C0BC7
:104EA000FBF7FEFB34A941F82400641C032CDFDB74
:104EB00012A84249CDE900109DED1B1ADDED1C0A38
:104EC0009DED1D0A3E4B37AA3E493F48FEF7DCFCEC
:104ED00034480068FBF7A1FB41EC1C0B2D4890ED1A
:104EE000020A10EE101A0846FBF797FB41EC1D0B67
:104EF000284890ED010A10EE101A0846FBF78DFBCA
:104F000041EC1E0B234890ED000A10EE101A0846E3
:104F1000FBF783FB41EC1F0B1F4890ED020A10EEDC
:104F2000101A0846FBF779FBCDE910011A4890EDFD
:104F3000010A10EE101A0846FBF76FFBCDE90E01CF
:104F4000154890ED000A10EE101A0846FBF765FBB5
:104F5000CDE90C018DED0ACB8DED08DB8DED06EB77
:104F60008DED04FB9DED100B8DED020B9DED0E0BF9
:104F70008DED000B9DED0C0B53EC102B13A0FCF7EB
:104F8000ADFD00BFE5E40000FC0300202804002084
:104F9000540400202C03002038030020FCA9F1D287
:104FA0004D62503F000000202800002070000020CB
:104FB000800000204C00002000003443C00000208E
:104FC0005C030020500300204403002025662C25AC
:104FD000662C25662C25662C25662C25662C2566D8
:104FE0000D0A00002DE9F0472DED0E8B8CB08146A7
:104FF0000C462146484600F0F7FDD4F80080002614
:1050000009E009EB860090ED000A01A800EB86009C
:1050100080ED000A761C4645F3DB2068A0F103080A
:1050200000272CE0A8EB0706002524E0681C01A956
:1050300001EB800090ED000A01A800EB8500D0EDA7
:10504000000AB4EEE00AF1EE10FA13D201A800EB68
:105050008500D0ED008A681C01EB800090ED000A0D
:1050600001A800EB850080ED000A681C01EB8000C0
:10507000C0ED008A6D1C701C8542D7DD7F1C08F1D5
:1050800001008742CEDD94ED000AB8EEC00A10EEB2
:10509000101A0846FBF7C1FA41EC1B0B9FED4C0BB5
:1050A00053EC102BFBF70CFA41EC1A0BB0EE4A0A4A
:1050B000F0EE6A0AFDF7C0F9B0EE409AF0EE609AA1
:1050C00051EC190BFBF78AFA2168A1EB400001288B
:1050D00023D194ED000AB8EEC00A10EE101A08466B
:1050E000FBF79BFA41EC1B0B9FED3B0B53EC102B9A
:1050F000FBF7CDF841EC1A0B9FED350B53EC102B61
:10510000FBF7DEF941EC190BFBF768FA401E01A929
:1051100001EB800090ED008A52E094ED000AB8EEB9
:10512000C00A10EE101A0846FBF777FA41EC1C0B88
:105130009FED270B53EC102BFBF7C2F941EC1B0B37
:10514000FBF74CFA401E01A901EB800090ED00EA4C
:1051500094ED000AB8EEC00A10EE101A0846FBF7EC
:105160005CFA41EC1D0B9FED1A0B53EC102BFBF777
:10517000A7F941EC1C0B9FED180B53EC102BFBF720
:1051800086F841EC1B0BFBF729FA401E01A901EB45
:10519000800090ED000A3EEE000A10EE10AA504684
:1051A000FBF73BFA41EC1A0B9FED090B53EC102B6C
:1051B000FBF786F941EC190BFBF772FA08EE100ABF
:1051C000B0EE480A0CB0BDEC0E8BBDE8F0870000D5
:1051D0000000000000000040000000000000F03F60
:1051E0002DE9FF4F2DED088BDFB08246914699EDFA
:1051F000020AB1EE400A8DED530A99ED030A8DEDD6
:10520000560A99ED000AB1EE400A8DED590A99ED62
:10521000010A8DED5C0A99ED010A8DED540A99EDB4
:10522000000A8DED570A99ED030A8DED5A0A99EDA2
:10523000020A8DED5D0A99ED000A8DED550A99ED92
:10524000010AB1EE400A8DED580A99ED020AB1EE5D
:10525000400A8DED5B0A99ED030A8DED5E0A00258B
:1052600019E0002414E0032000FB054053A901EBE2
:10527000800090ED000AF0EE000A20EE200A0320E4
:1052800000FB054047A901EB800080ED000A641C8B
:10529000032CE8DB6D1C042DE3DB002524E09FEDEF
:1052A000FE0A44A800EB850080ED000A002418E007
:1052B00044A800EB850090ED000A032000FB045099
:1052C00047A901EB8000D0ED000A09EB840090EDC6
:1052D000001A00EE810A44A800EB850080ED000A68
:1052E000641C042CE4DB6D1C032DD8DB44A800F007
:1052F00013FCB0EE408A00250CE044A800EB8500CA
:1053000090ED000AC0EE080A44A800EB8500C0ED4D
:10531000000A6D1C032DF0DB002531E000242CE099
:105320009FEDDD0A05EB84002FA901EB800080EDE5
:10533000000A00261EE005EB84002FA901EB800087
:1053400090ED000A05EB86000AEB8000D0ED000A24
:10535000032000FB064047A901EB800090ED001AF6
:1053600000EE810A05EB84002FA901EB800080ED9F
:10537000000A761C042EDEDB641C032CD0DB6D1CC3
:10538000042DCBDB00256AE000242FE09FEDC20A4C
:10539000032000FB045053A901EB800080ED000ABC
:1053A000002620E0032000FB045053A901EB8000FD
:1053B00090ED000A032000FB065047A901EB800096
:1053C000D0ED000A06EB84000AEB800090ED001A95
:1053D00000EE810A032000FB045053A901EB80007A
:1053E00080ED000A761C042EDCDB641C042CCDDB73
:1053F000002431E09FEDA80AB0EE408A002616E0B6
:10540000032000FB065053A901EB8000D0ED000AF9
:10541000032000FB064047A901EB800090ED001A35
:10542000B0EE480A00EE810AB0EE408A761C042EE7
:10543000E6DB032000FB04516A9800EB810090ED4D
:10544000000A30EE080A032000FB04503BA901EBE0
:10545000800080ED000A641C032CCBDB6D1C032D47
:1054600092DB00264FF0010802279DED3B0A10EE6B
:10547000101A0846FBF7D1F841EC1A0BB0EE4A0AB5
:10548000F0EE6A0AFCF7CCFFB0EE409AF0EE609ABC
:1054900051EC190BFBF704F908EE100A9DED3C0ADC
:1054A00010EE101A0846FBF7B8F841EC1A0BB0EEF4
:1054B0004A0AF0EE6A0AFCF7B3FFB0EE409AF0EE4B
:1054C000609A51EC190BFBF7EBF808EE900AF4EE3A
:1054D000C88AF1EE10FA04DDB0EE688A01264FF0BA
:1054E00000089DED3D0A10EE101A0846FBF795F8EE
:1054F00041EC1A0BB0EE4A0AF0EE6A0AFCF790FF94
:10550000B0EE409AF0EE609A51EC190BFBF7C8F838
:1055100000EE100AB4EEC80AF1EE10FA03DD02261E
:105520004FF0010800273BA800EB880090ED000A2F
:105530003BA800EB8600D0ED000A80EE201A3BA8C5
:1055400000EB880080ED001A3BA800EB870090ED8F
:10555000000A3BA800EB8600D0ED000A80EE201A7E
:105560003BA800EB870080ED001A08F103003BA97F
:1055700001EB800090ED000A3BA800EB8800D0ED25
:10558000000AF01C01EB800090ED001A00EEC10A49
:1055900008F1030001EB800080ED000AF81C01EB2C
:1055A000800090ED000A3BA800EB8700D0ED000AD8
:1055B000F01C01EB800090ED001A00EEC10AF81C0F
:1055C00001EB800080ED000A08F1060001EB80008D
:1055D00090ED000A3BA800EB8800D0ED000AB01D5A
:1055E00001EB800090ED001A00EEC10A08F1060000
:1055F00001EB800080ED000AB81D01EB800090ED0A
:10560000000A3BA800EB8700D0ED000AB01D01EBBB
:10561000800090ED001A00EEC10AB81D01EB800079
:1056200080ED000AF81C3BAA02EB800090ED000A16
:1056300010EE101A0846FAF7F0FF41EC1A0BB0EE24
:105640004A0AF0EE6A0AFCF7EBFEB0EE409AF0EE82
:10565000609A51EC190BFBF723F80BEE100A08F1D6
:1056600003003BAA02EB800090ED000A10EE101A36
:105670000846FAF7D2FF41EC1A0BB0EE4A0AF0EEF8
:105680006A0AFCF7CDFEB0EE409AF0EE609A51EC5B
:10569000190BFBF705F801E00000000000EE100A0E
:1056A000B4EEC0BAF1EE10FA02DD4546B8462F4618
:1056B000F81C3BA901EB800090ED000A08F1030003
:1056C00001EB8000D0ED000A80EE201AF81C01EBFF
:1056D000800080ED001AB81D01EB800090ED000AFB
:1056E000F81C01EB8000D0ED000A08F1060001EB88
:1056F000800090ED001A00EEC10AB81D01EB800099
:1057000080ED000A0024E0E02FA800EB840090ED7B
:10571000000A3BA800EB8600D0ED000A80EE201ABC
:1057200004EB860023A901EB800080ED001A201D08
:105730002FA901EB800090ED000A04EB860023A95D
:1057400001EB8000D0ED000AF01C3BA901EB8000CA
:1057500090ED001A00EEC10A04EB880023A901EBCA
:10576000800080ED000A04F108002FA901EB800001
:1057700090ED000A04EB860023A901EB8000D0ED38
:10578000000AB01D3BA901EB800090ED001A00EE6D
:10579000C10A04EB870023A901EB800080ED000A19
:1057A00004EB880001EB800090ED000A08F1030093
:1057B0003BA901EB8000D0ED000A80EE201A04EB3B
:1057C000880023A901EB800080ED001A04EB87001C
:1057D00001EB800090ED000A04EB880001EB8000F3
:1057E000D0ED000A08F106003BA901EB800090ED26
:1057F000001A00EEC10A04EB870023A901EB800028
:1058000080ED000A04EB870001EB800090ED000AB8
:10581000B81D3BA901EB8000D0ED000A80EE201AF4
:1058200004EB870023A901EB800080ED001A04EB54
:10583000880001EB800090ED000A04EB870001EB8B
:105840008000D0ED000AF81C3BA901EB800090ED30
:10585000001A00EEC10A04EB880023A901EB8000C6
:1058600080ED000A04EB860001EB800090ED000A59
:1058700004EB870001EB8000D0ED000A3BA800EBB1
:10588000870090ED001A00EEC10A04EB860001EBE0
:10589000800080ED000A04EB860001EB800090EDB3
:1058A000000A04EB880001EB8000D0ED000A3BA861
:1058B00000EB880090ED001A00EEC10A04EB8600B0
:1058C00001EB800080ED000A641C042CFFF61CAF85
:1058D000689800F021F9B0EE408A002515E068983C
:1058E00000EB850090ED000AF1EE400A80EE880A98
:1058F00044A800EB8500D0ED000A30EE600A20A835
:1059000000EB850080ED000A6D1C032DE7DB002510
:1059100089E01FED9F0AB0EE408A002412E005EBFB
:10592000840023A901EB8000D0ED000A20A800EB41
:10593000840090ED001AB0EE480A00EE810AB0EE45
:10594000408A641C032CEADB09EB850090ED000A19
:1059500030EE080A09EB850080ED000A00242FE0F4
:105960001FEDB30AB0EE408A002615E005EB860075
:1059700023A901EB8000D0ED000A032000FB0460A6
:1059800047A901EB800090ED001AB0EE480A00EE46
:10599000810AB0EE408A761C032EE7DB05EB84001B
:1059A0005B49085600EE100AB8EEC00A30EE480A0D
:1059B00005EB840010A901EB800080ED000A641C57
:1059C000042CCDDB00242BE01FEDCD0A05EB840079
:1059D000694601EB800080ED000A00261DE005EB22
:1059E0008400694601EB800090ED000A05EB86001B
:1059F00010A901EB8000D0ED000A06EB84000AEB51
:105A0000800090ED001A00EE810A05EB84006946E3
:105A100001EB800080ED000A761C042EDFDB641CA5
:105A2000042CD1DB6D1C042DFFF673AF002512E0B2
:105A300000240DE004EB8500694601EB800090ED49
:105A4000000A04EB85000AEB800080ED000A641C6C
:105A5000042CEFDB6D1C042DEADB00251EE0002486
:105A600019E004EB85000AEB800090ED000A05EBDD
:105A700084000AEB8000D0ED000A30EE200AF6EE3A
:105A8000000A20EE200A04EB850010A901EB80003B
:105A900080ED000A641C042CE3DB6D1C042DDEDBAE
:105AA000002512E000240DE004EB850010A901EBB5
:105AB000800090ED000A04EB85000AEB800080ED89
:105AC000000A641C042CEFDB6D1C042DEADB4FF094
:105AD000000B14E00BEB8B000AEB800090ED000A4A
